{
  "contractName": "Demo",
  "abi": [
    {
      "constant": true,
      "inputs": [],
      "name": "INITIAL_SUPPLY",
      "outputs": [
        {
          "internalType": "uint256",
          "name": "",
          "type": "uint256"
        }
      ],
      "payable": false,
      "stateMutability": "view",
      "type": "function"
    },
    {
      "constant": true,
      "inputs": [],
      "name": "decimals",
      "outputs": [
        {
          "internalType": "uint256",
          "name": "",
          "type": "uint256"
        }
      ],
      "payable": false,
      "stateMutability": "view",
      "type": "function"
    },
    {
      "constant": true,
      "inputs": [],
      "name": "name",
      "outputs": [
        {
          "internalType": "string",
          "name": "",
          "type": "string"
        }
      ],
      "payable": false,
      "stateMutability": "view",
      "type": "function"
    },
    {
      "constant": true,
      "inputs": [],
      "name": "symbol",
      "outputs": [
        {
          "internalType": "string",
          "name": "",
          "type": "string"
        }
      ],
      "payable": false,
      "stateMutability": "view",
      "type": "function"
    }
  ],
  "bytecode": "0x608060405234801561001057600080fd5b5061024b806100206000396000f3fe608060405234801561001057600080fd5b506004361061004c5760003560e01c806306fdde03146100515780632ff2e9dc146100d4578063313ce567146100f257806395d89b4114610110575b600080fd5b610059610193565b6040518080602001828103825283818151815260200191508051906020019080838360005b8381101561009957808201518184015260208101905061007e565b50505050905090810190601f1680156100c65780820380516001836020036101000a031916815260200191505b509250505060405180910390f35b6100dc6101cc565b6040518082815260200191505060405180910390f35b6100fa6101d8565b6040518082815260200191505060405180910390f35b6101186101dd565b6040518080602001828103825283818151815260200191508051906020019080838360005b8381101561015857808201518184015260208101905061013d565b50505050905090810190601f1680156101855780820380516001836020036101000a031916815260200191505b509250505060405180910390f35b6040518060400160405280600a81526020017f44454d4f20746f6b656e0000000000000000000000000000000000000000000081525081565b6012600a0a6103e80281565b601281565b6040518060400160405280600481526020017f44454d4f000000000000000000000000000000000000000000000000000000008152508156fea265627a7a72315820711c1b9239de8db5b899a2aca5829940e72bd31a0094e30995fd12831390436564736f6c63430005100032",
  "source": "pragma solidity ^0.5.2;\r\n// solidity version\r\n\r\ncontract Demo { // contract name is Demo\r\n    string public constant name = \"DEMO token\";\r\n    string public constant symbol = \"DEMO\";\r\n    uint public constant decimals = 18;\r\n    uint public constant INITIAL_SUPPLY = 1000 * 10 ** decimals;\r\n    string constant test = \"You can not see this\";\r\n}",
  "sourcePath": "C:\\Users\\admin\\sangil\\BanMan-Dapp\\banman-blockchain\\contracts\\Demo.sol",
  "compiler": {
    "name": "solc",
    "version": "0.5.16+commit.9c3226ce.Emscripten.clang"
  },
  "schemaVersion": "3.4.3",
  "updatedAt": "2021-09-02T08:29:47.412Z",
  "networkType": "ethereum",
  "devdoc": {
    "methods": {}
  },
  "userdoc": {
    "methods": {}
  }
}