{
  "contractName": "AdminTest",
  "abi": [
    {
      "payable": true,
      "stateMutability": "payable",
      "type": "fallback"
    },
    {
      "constant": true,
      "inputs": [],
      "name": "getStoreReturn",
      "outputs": [
        {
          "internalType": "uint256",
          "name": "",
          "type": "uint256"
        }
      ],
      "payable": false,
      "stateMutability": "view",
      "type": "function"
    },
    {
      "constant": true,
      "inputs": [
        {
          "internalType": "string",
          "name": "_storeName",
          "type": "string"
        }
      ],
      "name": "findChickenHouse",
      "outputs": [
        {
          "internalType": "contract ChickenHouseTest",
          "name": "",
          "type": "address"
        }
      ],
      "payable": false,
      "stateMutability": "view",
      "type": "function"
    },
    {
      "constant": false,
      "inputs": [
        {
          "internalType": "string",
          "name": "_storeName",
          "type": "string"
        },
        {
          "internalType": "string",
          "name": "_latitude",
          "type": "string"
        },
        {
          "internalType": "string",
          "name": "_longitude",
          "type": "string"
        },
        {
          "internalType": "string[]",
          "name": "_chickenNames",
          "type": "string[]"
        },
        {
          "internalType": "uint256[]",
          "name": "_prices",
          "type": "uint256[]"
        },
        {
          "internalType": "uint256[]",
          "name": "_menuState",
          "type": "uint256[]"
        }
      ],
      "name": "registerChickenHouse",
      "outputs": [],
      "payable": false,
      "stateMutability": "nonpayable",
      "type": "function"
    },
    {
      "constant": false,
      "inputs": [
        {
          "internalType": "string",
          "name": "_storeName",
          "type": "string"
        },
        {
          "internalType": "uint256",
          "name": "_index",
          "type": "uint256"
        },
        {
          "internalType": "string",
          "name": "_chickenNames",
          "type": "string"
        },
        {
          "internalType": "uint256",
          "name": "_price",
          "type": "uint256"
        },
        {
          "internalType": "uint256",
          "name": "_menuState",
          "type": "uint256"
        }
      ],
      "name": "setMenu",
      "outputs": [
        {
          "internalType": "bool",
          "name": "",
          "type": "bool"
        }
      ],
      "payable": false,
      "stateMutability": "nonpayable",
      "type": "function"
    },
    {
      "constant": false,
      "inputs": [
        {
          "internalType": "string",
          "name": "_storeName",
          "type": "string"
        },
        {
          "internalType": "uint256",
          "name": "_index",
          "type": "uint256"
        }
      ],
      "name": "deleteMenu",
      "outputs": [
        {
          "internalType": "bool",
          "name": "",
          "type": "bool"
        }
      ],
      "payable": false,
      "stateMutability": "nonpayable",
      "type": "function"
    },
    {
      "constant": false,
      "inputs": [
        {
          "internalType": "string",
          "name": "_storeName",
          "type": "string"
        },
        {
          "internalType": "uint256",
          "name": "_price",
          "type": "uint256"
        },
        {
          "internalType": "uint256",
          "name": "_finish",
          "type": "uint256"
        },
        {
          "internalType": "string",
          "name": "_chickenName",
          "type": "string"
        }
      ],
      "name": "createRoom",
      "outputs": [],
      "payable": true,
      "stateMutability": "payable",
      "type": "function"
    },
    {
      "constant": false,
      "inputs": [
        {
          "internalType": "string",
          "name": "_storeName",
          "type": "string"
        },
        {
          "internalType": "uint256",
          "name": "_roomIndex",
          "type": "uint256"
        }
      ],
      "name": "matchRoom",
      "outputs": [],
      "payable": true,
      "stateMutability": "payable",
      "type": "function"
    },
    {
      "constant": false,
      "inputs": [
        {
          "internalType": "string",
          "name": "_storeName",
          "type": "string"
        },
        {
          "internalType": "uint256",
          "name": "_roomIndex",
          "type": "uint256"
        }
      ],
      "name": "approveOrder",
      "outputs": [],
      "payable": false,
      "stateMutability": "nonpayable",
      "type": "function"
    },
    {
      "constant": true,
      "inputs": [
        {
          "internalType": "uint256",
          "name": "_storeIndex",
          "type": "uint256"
        },
        {
          "internalType": "uint256",
          "name": "_roomIndex",
          "type": "uint256"
        }
      ],
      "name": "getBalanceOfRoom",
      "outputs": [
        {
          "internalType": "uint256",
          "name": "",
          "type": "uint256"
        }
      ],
      "payable": false,
      "stateMutability": "view",
      "type": "function"
    },
    {
      "constant": true,
      "inputs": [
        {
          "internalType": "uint256",
          "name": "_storeIndex",
          "type": "uint256"
        },
        {
          "internalType": "uint256",
          "name": "_roomIndex",
          "type": "uint256"
        }
      ],
      "name": "getStateRoom",
      "outputs": [
        {
          "internalType": "uint256",
          "name": "",
          "type": "uint256"
        }
      ],
      "payable": false,
      "stateMutability": "view",
      "type": "function"
    },
    {
      "constant": true,
      "inputs": [
        {
          "internalType": "string",
          "name": "_storeName",
          "type": "string"
        }
      ],
      "name": "getChickenHouse",
      "outputs": [
        {
          "internalType": "string",
          "name": "storeName",
          "type": "string"
        },
        {
          "internalType": "string",
          "name": "latitude",
          "type": "string"
        },
        {
          "internalType": "string",
          "name": "longitude",
          "type": "string"
        },
        {
          "internalType": "uint8",
          "name": "closed",
          "type": "uint8"
        }
      ],
      "payable": false,
      "stateMutability": "view",
      "type": "function"
    },
    {
      "constant": true,
      "inputs": [
        {
          "internalType": "uint256",
          "name": "_storeIndex",
          "type": "uint256"
        }
      ],
      "name": "getChickenHouse2",
      "outputs": [
        {
          "internalType": "string",
          "name": "storeName",
          "type": "string"
        },
        {
          "internalType": "string",
          "name": "latitude",
          "type": "string"
        },
        {
          "internalType": "string",
          "name": "longitude",
          "type": "string"
        },
        {
          "internalType": "uint8",
          "name": "closed",
          "type": "uint8"
        }
      ],
      "payable": false,
      "stateMutability": "view",
      "type": "function"
    },
    {
      "constant": true,
      "inputs": [
        {
          "internalType": "string",
          "name": "_storeName",
          "type": "string"
        }
      ],
      "name": "getStoreMenu",
      "outputs": [
        {
          "internalType": "string[]",
          "name": "",
          "type": "string[]"
        },
        {
          "internalType": "uint256[]",
          "name": "",
          "type": "uint256[]"
        }
      ],
      "payable": false,
      "stateMutability": "view",
      "type": "function"
    },
    {
      "constant": true,
      "inputs": [
        {
          "internalType": "string",
          "name": "_storeName",
          "type": "string"
        },
        {
          "internalType": "uint256",
          "name": "_roomIndex",
          "type": "uint256"
        }
      ],
      "name": "getRoomInfo",
      "outputs": [
        {
          "internalType": "string",
          "name": "",
          "type": "string"
        },
        {
          "internalType": "uint256",
          "name": "",
          "type": "uint256"
        },
        {
          "internalType": "uint8",
          "name": "",
          "type": "uint8"
        },
        {
          "internalType": "address",
          "name": "",
          "type": "address"
        }
      ],
      "payable": false,
      "stateMutability": "view",
      "type": "function"
    },
    {
      "constant": false,
      "inputs": [
        {
          "internalType": "string",
          "name": "_storeName",
          "type": "string"
        }
      ],
      "name": "changeOnOff",
      "outputs": [],
      "payable": false,
      "stateMutability": "nonpayable",
      "type": "function"
    },
    {
      "constant": false,
      "inputs": [
        {
          "internalType": "string",
          "name": "_storeName",
          "type": "string"
        },
        {
          "internalType": "string",
          "name": "_chickenName",
          "type": "string"
        },
        {
          "internalType": "uint256",
          "name": "_price",
          "type": "uint256"
        },
        {
          "internalType": "uint256",
          "name": "_menuState",
          "type": "uint256"
        }
      ],
      "name": "addOneMenu",
      "outputs": [],
      "payable": false,
      "stateMutability": "nonpayable",
      "type": "function"
    },
    {
      "constant": false,
      "inputs": [
        {
          "internalType": "string",
          "name": "_storeName",
          "type": "string"
        },
        {
          "internalType": "string",
          "name": "_longitude",
          "type": "string"
        },
        {
          "internalType": "string",
          "name": "_latitude",
          "type": "string"
        }
      ],
      "name": "changeLocation",
      "outputs": [],
      "payable": false,
      "stateMutability": "nonpayable",
      "type": "function"
    },
    {
      "constant": false,
      "inputs": [
        {
          "internalType": "string",
          "name": "_storeName",
          "type": "string"
        },
        {
          "internalType": "uint256",
          "name": "_roomIndex",
          "type": "uint256"
        }
      ],
      "name": "refund1",
      "outputs": [],
      "payable": false,
      "stateMutability": "nonpayable",
      "type": "function"
    }
  ],
  "bytecode": "0x608060405234801561001057600080fd5b50615c6b806100206000396000f3fe608060405260043610620001225760003560e01c8063827bc52e11620000a3578063b4cc2bc6116200006d578063b4cc2bc614620003ed578063bed336661462000431578063d52933d11462000475578063e050d63414620004a3578063f9bbff6b14620004e85762000122565b8063827bc52e14620003285780638a9707d01462000348578063b06bb1301462000378578063b226ef0914620003bf5762000122565b8063551bfcbb11620000f1578063551bfcbb14620002085780635554c32c146200024f5780637422485c146200027d57806374db0039146200029d5780638251090014620002e15762000122565b806304893236146200012457806310d6a38b1462000168578063427fae88146200019657806350c6627314620001c4575b005b3480156200013157600080fd5b506200015060048036036200014a9190810190620014eb565b62000516565b6040516200015f919062001e2a565b60405180910390f35b3480156200017557600080fd5b506200019460048036036200018e9190810190620017b4565b6200057d565b005b348015620001a357600080fd5b50620001c26004803603620001bc919081019062001530565b62000606565b005b348015620001d157600080fd5b50620001f06004803603620001ea919081019062001adb565b6200068c565b604051620001ff919062002012565b60405180910390f35b3480156200021557600080fd5b506200023460048036036200022e919081019062001a83565b62000697565b60405162000246949392919062001ee4565b60405180910390f35b3480156200025c57600080fd5b506200027b6004803603620002759190810190620014eb565b62000771565b005b6200029b600480360362000295919081019062001852565b620007e6565b005b348015620002aa57600080fd5b50620002c96004803603620002c3919081019062001adb565b620008b3565b604051620002d8919062002012565b60405180910390f35b348015620002ee57600080fd5b506200030d600480360362000307919081019062001852565b62000989565b6040516200031f949392919062001fbe565b60405180910390f35b62000346600480360362000340919081019062001960565b62000a44565b005b3480156200035557600080fd5b506200036062000ace565b6040516200036f919062002012565b60405180910390f35b3480156200038557600080fd5b50620003a460048036036200039e9190810190620014eb565b62000ada565b604051620003b6949392919062001ee4565b60405180910390f35b348015620003cc57600080fd5b50620003eb6004803603620003e59190810190620015d1565b62000b86565b005b348015620003fa57600080fd5b50620004196004803603620004139190810190620018ac565b62000cf4565b60405162000428919062001e0d565b60405180910390f35b3480156200043e57600080fd5b506200045d600480360362000457919081019062001852565b62000da6565b6040516200046c919062001e0d565b60405180910390f35b3480156200048257600080fd5b50620004a160048036036200049b919081019062001852565b62000e4f565b005b348015620004b057600080fd5b50620004cf6004803603620004c99190810190620014eb565b62000ed2565b604051620004df92919062001d80565b60405180910390f35b348015620004f557600080fd5b506200051460048036036200050e919081019062001852565b62000fc2565b005b60008060006001846040516200052d919062001d67565b908152602001604051809103902054815481106200054757fe5b9060005260206000200160009054906101000a900473ffffffffffffffffffffffffffffffffffffffff16905080915050919050565b60006200058a8562000516565b90508073ffffffffffffffffffffffffffffffffffffffff1663367bc1cd8585856040518463ffffffff1660e01b8152600401620005cb9392919062001f7a565b600060405180830381600087803b158015620005e657600080fd5b505af1158015620005fb573d6000803e3d6000fd5b505050505050505050565b6000620006138462000516565b90508073ffffffffffffffffffffffffffffffffffffffff1663f889fc0184846040518363ffffffff1660e01b81526004016200065292919062001e47565b600060405180830381600087803b1580156200066d57600080fd5b505af115801562000682573d6000803e3d6000fd5b5050505050505050565b600080905092915050565b606080606060008060008681548110620006ad57fe5b9060005260206000200160009054906101000a900473ffffffffffffffffffffffffffffffffffffffff1690508073ffffffffffffffffffffffffffffffffffffffff166385b5c4b16040518163ffffffff1660e01b815260040160006040518083038186803b1580156200072157600080fd5b505afa15801562000736573d6000803e3d6000fd5b505050506040513d6000823e3d601f19601f82011682018060405250620007619190810190620016fd565b9450945094509450509193509193565b60006200077e8262000516565b90508073ffffffffffffffffffffffffffffffffffffffff1663ecf668666040518163ffffffff1660e01b8152600401600060405180830381600087803b158015620007c957600080fd5b505af1158015620007de573d6000803e3d6000fd5b505050505050565b6000620007f38362000516565b90508073ffffffffffffffffffffffffffffffffffffffff166108fc349081150290604051600060405180830381858888f193505050501580156200083c573d6000803e3d6000fd5b508073ffffffffffffffffffffffffffffffffffffffff16637422485c84846040518363ffffffff1660e01b81526004016200087a92919062001f46565b600060405180830381600087803b1580156200089557600080fd5b505af1158015620008aa573d6000803e3d6000fd5b50505050505050565b60008060008481548110620008c457fe5b9060005260206000200160009054906101000a900473ffffffffffffffffffffffffffffffffffffffff1690508073ffffffffffffffffffffffffffffffffffffffff16631e010439846040518263ffffffff1660e01b81526004016200092c919062002012565b60206040518083038186803b1580156200094557600080fd5b505afa1580156200095a573d6000803e3d6000fd5b505050506040513d601f19601f8201168201806040525062000980919081019062001aaf565b91505092915050565b60606000806000806200099c8762000516565b90508073ffffffffffffffffffffffffffffffffffffffff16636790d2b5876040518263ffffffff1660e01b8152600401620009d9919062002012565b60006040518083038186803b158015620009f257600080fd5b505afa15801562000a07573d6000803e3d6000fd5b505050506040513d6000823e3d601f19601f8201168201806040525062000a329190810190620019fe565b94509450945094505092959194509250565b600062000a518562000516565b90508073ffffffffffffffffffffffffffffffffffffffff166380f56840348686866040518563ffffffff1660e01b815260040162000a939392919062002083565b6000604051808303818588803b15801562000aad57600080fd5b505af115801562000ac2573d6000803e3d6000fd5b50505050505050505050565b60008080549050905090565b606080606060008062000aed8662000516565b90508073ffffffffffffffffffffffffffffffffffffffff1663a71045f16040518163ffffffff1660e01b815260040160006040518083038186803b15801562000b3657600080fd5b505afa15801562000b4b573d6000803e3d6000fd5b505050506040513d6000823e3d601f19601f8201168201806040525062000b769190810190620016fd565b9450945094509450509193509193565b60008686863360405162000b9a9062001047565b62000ba9949392919062001e82565b604051809103906000f08015801562000bc6573d6000803e3d6000fd5b5090508073ffffffffffffffffffffffffffffffffffffffff16632e639dbb8585856040518463ffffffff1660e01b815260040162000c089392919062001dbb565b602060405180830381600087803b15801562000c2357600080fd5b505af115801562000c38573d6000803e3d6000fd5b505050506040513d601f19601f8201168201806040525062000c5e919081019062001aaf565b50600160008290806001815401808255809150509060018203906000526020600020016000909192909190916101000a81548173ffffffffffffffffffffffffffffffffffffffff021916908373ffffffffffffffffffffffffffffffffffffffff1602179055500360018860405162000cd9919062001d67565b90815260200160405180910390208190555050505050505050565b60008062000d028762000516565b90508073ffffffffffffffffffffffffffffffffffffffff166312561e61878787876040518563ffffffff1660e01b815260040162000d4594939291906200202f565b602060405180830381600087803b15801562000d6057600080fd5b505af115801562000d75573d6000803e3d6000fd5b505050506040513d601f19601f8201168201806040525062000d9b9190810190620014bf565b505095945050505050565b60008062000db48462000516565b90508073ffffffffffffffffffffffffffffffffffffffff1663c2519ac3846040518263ffffffff1660e01b815260040162000df1919062002012565b602060405180830381600087803b15801562000e0c57600080fd5b505af115801562000e21573d6000803e3d6000fd5b505050506040513d601f19601f8201168201806040525062000e479190810190620014bf565b505092915050565b600062000e5c8362000516565b90508073ffffffffffffffffffffffffffffffffffffffff16631dca91bf836040518263ffffffff1660e01b815260040162000e99919062002012565b600060405180830381600087803b15801562000eb457600080fd5b505af115801562000ec9573d6000803e3d6000fd5b50505050505050565b60608060008060018560405162000eea919062001d67565b9081526020016040518091039020548154811062000f0457fe5b9060005260206000200160009054906101000a900473ffffffffffffffffffffffffffffffffffffffff1690508073ffffffffffffffffffffffffffffffffffffffff166316f9c96d6040518163ffffffff1660e01b815260040160006040518083038186803b15801562000f7857600080fd5b505afa15801562000f8d573d6000803e3d6000fd5b505050506040513d6000823e3d601f19601f8201168201806040525062000fb891908101906200144c565b9250925050915091565b600062000fcf8362000516565b90508073ffffffffffffffffffffffffffffffffffffffff1663f9bbff6b84846040518363ffffffff1660e01b81526004016200100e92919062001f46565b600060405180830381600087803b1580156200102957600080fd5b505af11580156200103e573d6000803e3d6000fd5b50505050505050565b61385980620023d083390190565b600081519050620010668162002367565b92915050565b600082601f8301126200107e57600080fd5b8135620010956200108f82620020f5565b620020c7565b9150818183526020840193506020810190508360005b83811015620010df5781358601620010c4888262001297565b845260208401935060208301925050600181019050620010ab565b5050505092915050565b600082601f830112620010fb57600080fd5b8151620011126200110c82620020f5565b620020c7565b9150818183526020840193506020810190508360005b838110156200115c5781518601620011418882620012f3565b84526020840193506020830192505060018101905062001128565b5050505092915050565b600082601f8301126200117857600080fd5b81356200118f62001189826200211e565b620020c7565b91508181835260208401935060208101905083856020840282011115620011b557600080fd5b60005b83811015620011e95781620011ce888262001407565b845260208401935060208301925050600181019050620011b8565b5050505092915050565b600082601f8301126200120557600080fd5b81516200121c62001216826200211e565b620020c7565b915081818352602084019350602081019050838560208402820111156200124257600080fd5b60005b838110156200127657816200125b88826200141e565b84526020840193506020830192505060018101905062001245565b5050505092915050565b600081519050620012918162002381565b92915050565b600082601f830112620012a957600080fd5b8135620012c0620012ba8262002147565b620020c7565b91508082526020830160208301858383011115620012dd57600080fd5b620012ea83828462002311565b50505092915050565b600082601f8301126200130557600080fd5b81516200131c620013168262002147565b620020c7565b915080825260208301602083018583830111156200133957600080fd5b6200134683828462002320565b50505092915050565b600082601f8301126200136157600080fd5b813562001378620013728262002174565b620020c7565b915080825260208301602083018583830111156200139557600080fd5b620013a283828462002311565b50505092915050565b600082601f830112620013bd57600080fd5b8151620013d4620013ce8262002174565b620020c7565b91508082526020830160208301858383011115620013f157600080fd5b620013fe83828462002320565b50505092915050565b60008135905062001418816200239b565b92915050565b6000815190506200142f816200239b565b92915050565b6000815190506200144681620023b5565b92915050565b600080604083850312156200146057600080fd5b600083015167ffffffffffffffff8111156200147b57600080fd5b6200148985828601620010e9565b925050602083015167ffffffffffffffff811115620014a757600080fd5b620014b585828601620011f3565b9150509250929050565b600060208284031215620014d257600080fd5b6000620014e28482850162001280565b91505092915050565b600060208284031215620014fe57600080fd5b600082013567ffffffffffffffff8111156200151957600080fd5b62001527848285016200134f565b91505092915050565b6000806000606084860312156200154657600080fd5b600084013567ffffffffffffffff8111156200156157600080fd5b6200156f868287016200134f565b935050602084013567ffffffffffffffff8111156200158d57600080fd5b6200159b868287016200134f565b925050604084013567ffffffffffffffff811115620015b957600080fd5b620015c7868287016200134f565b9150509250925092565b60008060008060008060c08789031215620015eb57600080fd5b600087013567ffffffffffffffff8111156200160657600080fd5b6200161489828a016200134f565b965050602087013567ffffffffffffffff8111156200163257600080fd5b6200164089828a016200134f565b955050604087013567ffffffffffffffff8111156200165e57600080fd5b6200166c89828a016200134f565b945050606087013567ffffffffffffffff8111156200168a57600080fd5b6200169889828a016200106c565b935050608087013567ffffffffffffffff811115620016b657600080fd5b620016c489828a0162001166565b92505060a087013567ffffffffffffffff811115620016e257600080fd5b620016f089828a0162001166565b9150509295509295509295565b600080600080608085870312156200171457600080fd5b600085015167ffffffffffffffff8111156200172f57600080fd5b6200173d87828801620013ab565b945050602085015167ffffffffffffffff8111156200175b57600080fd5b6200176987828801620013ab565b935050604085015167ffffffffffffffff8111156200178757600080fd5b6200179587828801620013ab565b9250506060620017a88782880162001435565b91505092959194509250565b60008060008060808587031215620017cb57600080fd5b600085013567ffffffffffffffff811115620017e657600080fd5b620017f4878288016200134f565b945050602085013567ffffffffffffffff8111156200181257600080fd5b62001820878288016200134f565b9350506040620018338782880162001407565b9250506060620018468782880162001407565b91505092959194509250565b600080604083850312156200186657600080fd5b600083013567ffffffffffffffff8111156200188157600080fd5b6200188f858286016200134f565b9250506020620018a28582860162001407565b9150509250929050565b600080600080600060a08688031215620018c557600080fd5b600086013567ffffffffffffffff811115620018e057600080fd5b620018ee888289016200134f565b9550506020620019018882890162001407565b945050604086013567ffffffffffffffff8111156200191f57600080fd5b6200192d888289016200134f565b9350506060620019408882890162001407565b9250506080620019538882890162001407565b9150509295509295909350565b600080600080608085870312156200197757600080fd5b600085013567ffffffffffffffff8111156200199257600080fd5b620019a0878288016200134f565b9450506020620019b38782880162001407565b9350506040620019c68782880162001407565b925050606085013567ffffffffffffffff811115620019e457600080fd5b620019f2878288016200134f565b91505092959194509250565b6000806000806080858703121562001a1557600080fd5b600085015167ffffffffffffffff81111562001a3057600080fd5b62001a3e87828801620013ab565b945050602062001a51878288016200141e565b935050604062001a648782880162001435565b925050606062001a778782880162001055565b91505092959194509250565b60006020828403121562001a9657600080fd5b600062001aa68482850162001407565b91505092915050565b60006020828403121562001ac257600080fd5b600062001ad2848285016200141e565b91505092915050565b6000806040838503121562001aef57600080fd5b600062001aff8582860162001407565b925050602062001b128582860162001407565b9150509250929050565b600062001b2a838362001cf3565b905092915050565b600062001b40838362001d34565b60208301905092915050565b62001b5781620022ad565b82525050565b62001b688162002256565b82525050565b600062001b7b82620021c1565b62001b87818562002207565b93508360208202850162001b9b85620021a1565b8060005b8581101562001bdd578484038952815162001bbb858262001b1c565b945062001bc883620021ed565b925060208a0199505060018101905062001b9f565b50829750879550505050505092915050565b600062001bfc82620021cc565b62001c08818562002218565b935062001c1583620021b1565b8060005b8381101562001c4c57815162001c30888262001b32565b975062001c3d83620021fa565b92505060018101905062001c19565b5085935050505092915050565b62001c64816200226a565b82525050565b62001c7581620022c1565b82525050565b600062001c8882620021e2565b62001c9481856200223a565b935062001ca681856020860162002320565b62001cb18162002356565b840191505092915050565b600062001cc982620021e2565b62001cd581856200224b565b935062001ce781856020860162002320565b80840191505092915050565b600062001d0082620021d7565b62001d0c818562002229565b935062001d1e81856020860162002320565b62001d298162002356565b840191505092915050565b62001d3f8162002296565b82525050565b62001d508162002296565b82525050565b62001d6181620022a0565b82525050565b600062001d75828462001cbc565b915081905092915050565b6000604082019050818103600083015262001d9c818562001b6e565b9050818103602083015262001db2818462001bef565b90509392505050565b6000606082019050818103600083015262001dd7818662001b6e565b9050818103602083015262001ded818562001bef565b9050818103604083015262001e03818462001bef565b9050949350505050565b600060208201905062001e24600083018462001c59565b92915050565b600060208201905062001e41600083018462001c6a565b92915050565b6000604082019050818103600083015262001e63818562001c7b565b9050818103602083015262001e79818462001c7b565b90509392505050565b6000608082019050818103600083015262001e9e818762001c7b565b9050818103602083015262001eb4818662001c7b565b9050818103604083015262001eca818562001c7b565b905062001edb606083018462001b4c565b95945050505050565b6000608082019050818103600083015262001f00818762001c7b565b9050818103602083015262001f16818662001c7b565b9050818103604083015262001f2c818562001c7b565b905062001f3d606083018462001d56565b95945050505050565b6000604082019050818103600083015262001f62818562001c7b565b905062001f73602083018462001d45565b9392505050565b6000606082019050818103600083015262001f96818662001c7b565b905062001fa7602083018562001d45565b62001fb6604083018462001d45565b949350505050565b6000608082019050818103600083015262001fda818762001c7b565b905062001feb602083018662001d45565b62001ffa604083018562001d56565b62002009606083018462001b5d565b95945050505050565b600060208201905062002029600083018462001d45565b92915050565b600060808201905062002046600083018762001d45565b81810360208301526200205a818662001c7b565b90506200206b604083018562001d45565b6200207a606083018462001d45565b95945050505050565b60006060820190506200209a600083018662001d45565b620020a9602083018562001d45565b8181036040830152620020bd818462001c7b565b9050949350505050565b6000604051905081810181811067ffffffffffffffff82111715620020eb57600080fd5b8060405250919050565b600067ffffffffffffffff8211156200210d57600080fd5b602082029050602081019050919050565b600067ffffffffffffffff8211156200213657600080fd5b602082029050602081019050919050565b600067ffffffffffffffff8211156200215f57600080fd5b601f19601f8301169050602081019050919050565b600067ffffffffffffffff8211156200218c57600080fd5b601f19601f8301169050602081019050919050565b6000819050602082019050919050565b6000819050602082019050919050565b600081519050919050565b600081519050919050565b600081519050919050565b600081519050919050565b6000602082019050919050565b6000602082019050919050565b600082825260208201905092915050565b600082825260208201905092915050565b600082825260208201905092915050565b600082825260208201905092915050565b600081905092915050565b6000620022638262002276565b9050919050565b60008115159050919050565b600073ffffffffffffffffffffffffffffffffffffffff82169050919050565b6000819050919050565b600060ff82169050919050565b6000620022ba82620022e9565b9050919050565b6000620022ce82620022d5565b9050919050565b6000620022e28262002276565b9050919050565b6000620022f682620022fd565b9050919050565b60006200230a8262002276565b9050919050565b82818337600083830152505050565b60005b838110156200234057808201518184015260208101905062002323565b8381111562002350576000848401525b50505050565b6000601f19601f8301169050919050565b620023728162002256565b81146200237e57600080fd5b50565b6200238c816200226a565b81146200239857600080fd5b50565b620023a68162002296565b8114620023b257600080fd5b50565b620023c081620022a0565b8114620023cc57600080fd5b5056fe60806040526000600360006101000a81548160ff021916908360ff16021790555060006007553480156200003257600080fd5b50604051620038593803806200385983398181016040526200005891908101906200028d565b80806000806101000a81548173ffffffffffffffffffffffffffffffffffffffff021916908373ffffffffffffffffffffffffffffffffffffffff1602179055506000809054906101000a900473ffffffffffffffffffffffffffffffffffffffff1673ffffffffffffffffffffffffffffffffffffffff16600073ffffffffffffffffffffffffffffffffffffffff167f8be0079c531659141344cd1fd0a4f28419497f9722a3daafe3b4186f6b6457e060405160405180910390a35083600290805190602001906200012e9291906200016b565b508260049080519060200190620001479291906200016b565b508160059080519060200190620001609291906200016b565b505050505062000423565b828054600181600116156101000203166002900490600052602060002090601f016020900481019282601f10620001ae57805160ff1916838001178555620001df565b82800160010185558215620001df579182015b82811115620001de578251825591602001919060010190620001c1565b5b509050620001ee9190620001f2565b5090565b6200021791905b8082111562000213576000816000905550600101620001f9565b5090565b90565b6000815190506200022b8162000409565b92915050565b600082601f8301126200024357600080fd5b81516200025a620002548262000372565b62000344565b915080825260208301602083018583830111156200027757600080fd5b62000284838284620003d3565b50505092915050565b60008060008060808587031215620002a457600080fd5b600085015167ffffffffffffffff811115620002bf57600080fd5b620002cd8782880162000231565b945050602085015167ffffffffffffffff811115620002eb57600080fd5b620002f98782880162000231565b935050604085015167ffffffffffffffff8111156200031757600080fd5b620003258782880162000231565b925050606062000338878288016200021a565b91505092959194509250565b6000604051905081810181811067ffffffffffffffff821117156200036857600080fd5b8060405250919050565b600067ffffffffffffffff8211156200038a57600080fd5b601f19601f8301169050602081019050919050565b6000620003ac82620003b3565b9050919050565b600073ffffffffffffffffffffffffffffffffffffffff82169050919050565b60005b83811015620003f3578082015181840152602081019050620003d6565b8381111562000403576000848401525b50505050565b62000414816200039f565b81146200042057600080fd5b50565b61342680620004336000396000f3fe608060405260043610620001525760003560e01c806380f5684011620000bb578063c2519ac31162000079578063c2519ac3146200049f578063d27989ba14620004e3578063ecf668661462000527578063f2fde38b1462000541578063f889fc01146200056f578063f9bbff6b146200059d5762000152565b806380f5684014620003b957806385b5c4b114620003d95780638da5cb5b146200040c5780638f32d59b146200043c578063a71045f1146200046c5762000152565b80632e639dbb11620001155780632e639dbb146200027f578063367bc1cd14620002c35780636790d2b514620002f15780636fe66b031462000338578063715018a6146200037f5780637422485c14620003995762000152565b806312561e61146200015457806316f9c96d14620001985780631dca91bf14620001c95780631e01043914620001f757806321058e81146200023b575b005b3480156200016157600080fd5b506200018060048036036200017a919081019062001fa4565b620005cb565b6040516200018f919062002334565b60405180910390f35b348015620001a557600080fd5b50620001b062000665565b604051620001c0929190620022f9565b60405180910390f35b348015620001d657600080fd5b50620001f56004803603620001ef919081019062001f4c565b6200081e565b005b3480156200020457600080fd5b506200022360048036036200021d919081019062001f4c565b62000893565b604051620002329190620024ac565b60405180910390f35b3480156200024857600080fd5b5062000267600480360362000261919081019062001f4c565b620008c3565b60405162000276919062002351565b60405180910390f35b3480156200028c57600080fd5b50620002ab6004803603620002a5919081019062001cea565b6200090a565b604051620002ba9190620024ac565b60405180910390f35b348015620002d057600080fd5b50620002ef6004803603620002e9919081019062001e58565b62000a13565b005b348015620002fe57600080fd5b506200031d600480360362000317919081019062001f4c565b62000aae565b6040516200032f949392919062002404565b60405180910390f35b3480156200034557600080fd5b506200036460048036036200035e919081019062001f4c565b62000b5a565b60405162000376949392919062002458565b60405180910390f35b3480156200038c57600080fd5b506200039762000c34565b005b620003b76004803603620003b1919081019062001dfe565b62000d07565b005b620003d76004803603620003d1919081019062002029565b62000dd4565b005b348015620003e657600080fd5b50620003f162000edb565b6040516200040394939291906200236e565b60405180910390f35b3480156200041957600080fd5b5062000424620010e6565b604051620004339190620022dc565b60405180910390f35b3480156200044957600080fd5b50620004546200110f565b60405162000463919062002334565b60405180910390f35b3480156200047957600080fd5b506200048462001166565b6040516200049694939291906200236e565b60405180910390f35b348015620004ac57600080fd5b50620004cb6004803603620004c5919081019062001f4c565b62001371565b604051620004da919062002334565b60405180910390f35b348015620004f057600080fd5b506200050f600480360362000509919081019062001f4c565b62001490565b6040516200051e9190620024ac565b60405180910390f35b3480156200053457600080fd5b506200053f6200152a565b005b3480156200054e57600080fd5b506200056d600480360362000567919081019062001cbe565b620015a4565b005b3480156200057c57600080fd5b506200059b600480360362000595919081019062001d8b565b620015c6565b005b348015620005aa57600080fd5b50620005c96004803603620005c3919081019062001dfe565b620015fc565b005b60006006805490508510620005df57600080fd5b8360068681548110620005ee57fe5b90600052602060002090600402016000019080519060200190620006149291906200178e565b5082600686815481106200062457fe5b90600052602060002090600402016001018190555081600686815481106200064857fe5b906000526020600020906004020160020181905550949350505050565b6060806060600680549050604051908082528060200260200182016040528015620006a557816020015b60608152602001906001900390816200068f5790505b5090506060600680549050604051908082528060200260200182016040528015620006df5781602001602082028038833980820191505090505b50905060008090505b6006805490508110156200081157600681815481106200070457fe5b90600052602060002090600402016000018054600181600116156101000203166002900480601f016020809104026020016040519081016040528092919081815260200182805460018160011615610100020316600290048015620007ad5780601f106200078157610100808354040283529160200191620007ad565b820191906000526020600020905b8154815290600101906020018083116200078f57829003601f168201915b5050505050838281518110620007bf57fe5b602002602001018190525060068181548110620007d857fe5b906000526020600020906004020160010154828281518110620007f757fe5b6020026020010181815250508080600101915050620006e8565b5081819350935050509091565b60006200082b82620008c3565b90508073ffffffffffffffffffffffffffffffffffffffff1663d540a0976040518163ffffffff1660e01b8152600401600060405180830381600087803b1580156200087657600080fd5b505af11580156200088b573d6000803e3d6000fd5b505050505050565b600080620008a183620008c3565b90508073ffffffffffffffffffffffffffffffffffffffff1631915050919050565b60008060018381548110620008d457fe5b9060005260206000200160009054906101000a900473ffffffffffffffffffffffffffffffffffffffff16905080915050919050565b600082518451146200091b57600080fd5b60008090505b845181101562000a0357600660405180608001604052808784815181106200094557fe5b602002602001015181526020018684815181106200095f57fe5b602002602001015181526020018584815181106200097957fe5b6020026020010151815260200183815250908060018154018082558091505090600182039060005260206000209060040201600090919290919091506000820151816000019080519060200190620009d392919062001815565b50602082015181600101556040820151816002015560608201518160030155505050808060010191505062000921565b5060068054905090509392505050565b6006604051806080016040528085815260200184815260200183815260200160016006805490500381525090806001815401808255809150509060018203906000526020600020906004020160009091929091909150600082015181600001908051906020019062000a8792919062001815565b50602082015181600101556040820151816002015560608201518160030155505050505050565b606060008060008062000ac186620008c3565b90508073ffffffffffffffffffffffffffffffffffffffff1663bf250b966040518163ffffffff1660e01b815260040160006040518083038186803b15801562000b0a57600080fd5b505afa15801562000b1f573d6000803e3d6000fd5b505050506040513d6000823e3d601f19601f8201168201806040525062000b4a919081019062001ec7565b9450945094509450509193509193565b6006818154811062000b6857fe5b9060005260206000209060040201600091509050806000018054600181600116156101000203166002900480601f01602080910402602001604051908101604052809291908181526020018280546001816001161561010002031660029004801562000c185780601f1062000bec5761010080835404028352916020019162000c18565b820191906000526020600020905b81548152906001019060200180831162000bfa57829003601f168201915b5050505050908060010154908060020154908060030154905084565b62000c3e6200110f565b62000c4857600080fd5b600073ffffffffffffffffffffffffffffffffffffffff166000809054906101000a900473ffffffffffffffffffffffffffffffffffffffff1673ffffffffffffffffffffffffffffffffffffffff167f8be0079c531659141344cd1fd0a4f28419497f9722a3daafe3b4186f6b6457e060405160405180910390a360008060006101000a81548173ffffffffffffffffffffffffffffffffffffffff021916908373ffffffffffffffffffffffffffffffffffffffff160217905550565b600062000d1482620008c3565b90508073ffffffffffffffffffffffffffffffffffffffff166108fc479081150290604051600060405180830381858888f1935050505015801562000d5d573d6000803e3d6000fd5b508073ffffffffffffffffffffffffffffffffffffffff16637422485c84846040518363ffffffff1660e01b815260040162000d9b929190620023d0565b600060405180830381600087803b15801562000db657600080fd5b505af115801562000dcb573d6000803e3d6000fd5b50505050505050565b600083838360405162000de7906200189c565b62000df593929190620024c9565b604051809103906000f08015801562000e12573d6000803e3d6000fd5b50905060018190806001815401808255809150509060018203906000526020600020016000909192909190916101000a81548173ffffffffffffffffffffffffffffffffffffffff021916908373ffffffffffffffffffffffffffffffffffffffff160217905550508073ffffffffffffffffffffffffffffffffffffffff166108fc349081150290604051600060405180830381858888f1935050505015801562000ec2573d6000803e3d6000fd5b5060076000815480929190600101919050555050505050565b60608060606000600260046005600360009054906101000a900460ff16838054600181600116156101000203166002900480601f01602080910402602001604051908101604052809291908181526020018280546001816001161561010002031660029004801562000f915780601f1062000f655761010080835404028352916020019162000f91565b820191906000526020600020905b81548152906001019060200180831162000f7357829003601f168201915b50505050509350828054600181600116156101000203166002900480601f016020809104026020016040519081016040528092919081815260200182805460018160011615610100020316600290048015620010315780601f10620010055761010080835404028352916020019162001031565b820191906000526020600020905b8154815290600101906020018083116200101357829003601f168201915b50505050509250818054600181600116156101000203166002900480601f016020809104026020016040519081016040528092919081815260200182805460018160011615610100020316600290048015620010d15780601f10620010a557610100808354040283529160200191620010d1565b820191906000526020600020905b815481529060010190602001808311620010b357829003601f168201915b50505050509150935093509350935090919293565b60008060009054906101000a900473ffffffffffffffffffffffffffffffffffffffff16905090565b60008060009054906101000a900473ffffffffffffffffffffffffffffffffffffffff1673ffffffffffffffffffffffffffffffffffffffff163373ffffffffffffffffffffffffffffffffffffffff1614905090565b60608060606000600260046005600360009054906101000a900460ff16838054600181600116156101000203166002900480601f0160208091040260200160405190810160405280929190818152602001828054600181600116156101000203166002900480156200121c5780601f10620011f0576101008083540402835291602001916200121c565b820191906000526020600020905b815481529060010190602001808311620011fe57829003601f168201915b50505050509350828054600181600116156101000203166002900480601f016020809104026020016040519081016040528092919081815260200182805460018160011615610100020316600290048015620012bc5780601f106200129057610100808354040283529160200191620012bc565b820191906000526020600020905b8154815290600101906020018083116200129e57829003601f168201915b50505050509250818054600181600116156101000203166002900480601f0160208091040260200160405190810160405280929190818152602001828054600181600116156101000203166002900480156200135c5780601f1062001330576101008083540402835291602001916200135c565b820191906000526020600020905b8154815290600101906020018083116200133e57829003601f168201915b50505050509150935093509350935090919293565b60006006600160068054905003815481106200138957fe5b906000526020600020906004020160068381548110620013a557fe5b906000526020600020906004020160008201816000019080546001816001161561010002031660029004620013dc929190620018aa565b5060018201548160010155600282015481600201556003820154816003015590505081600683815481106200140d57fe5b9060005260206000209060040201600301819055506006600160068054905003815481106200143857fe5b90600052602060002090600402016000808201600062001459919062001938565b600182016000905560028201600090556003820160009055505060068054809190600190036200148a919062001984565b50919050565b6000806200149e83620008c3565b90508073ffffffffffffffffffffffffffffffffffffffff1663c9d3937f6040518163ffffffff1660e01b815260040160206040518083038186803b158015620014e757600080fd5b505afa158015620014fc573d6000803e3d6000fd5b505050506040513d601f19601f8201168201806040525062001522919081019062001f78565b915050919050565b6000600360009054906101000a900460ff1660ff16141562001568576001600360006101000a81548160ff021916908360ff160217905550620015a2565b6001600360009054906101000a900460ff1660ff161415620015a1576000600360006101000a81548160ff021916908360ff1602179055505b5b565b620015ae6200110f565b620015b857600080fd5b620015c38162001695565b50565b8160059080519060200190620015de9291906200178e565b508060049080519060200190620015f79291906200178e565b505050565b620016066200110f565b6200161057600080fd5b60006200161d82620008c3565b90508073ffffffffffffffffffffffffffffffffffffffff1663f9bbff6b84846040518363ffffffff1660e01b81526004016200165c929190620023d0565b600060405180830381600087803b1580156200167757600080fd5b505af11580156200168c573d6000803e3d6000fd5b50505050505050565b600073ffffffffffffffffffffffffffffffffffffffff168173ffffffffffffffffffffffffffffffffffffffff161415620016d057600080fd5b8073ffffffffffffffffffffffffffffffffffffffff166000809054906101000a900473ffffffffffffffffffffffffffffffffffffffff1673ffffffffffffffffffffffffffffffffffffffff167f8be0079c531659141344cd1fd0a4f28419497f9722a3daafe3b4186f6b6457e060405160405180910390a3806000806101000a81548173ffffffffffffffffffffffffffffffffffffffff021916908373ffffffffffffffffffffffffffffffffffffffff16021790555050565b828054600181600116156101000203166002900490600052602060002090601f016020900481019282601f10620017d157805160ff191683800117855562001802565b8280016001018555821562001802579182015b8281111562001801578251825591602001919060010190620017e4565b5b509050620018119190620019b9565b5090565b828054600181600116156101000203166002900490600052602060002090601f016020900481019282601f106200185857805160ff191683800117855562001889565b8280016001018555821562001889579182015b82811115620018885782518255916020019190600101906200186b565b5b509050620018989190620019b9565b5090565b610c2f80620027b583390190565b828054600181600116156101000203166002900490600052602060002090601f016020900481019282601f10620018e5578054855562001925565b828001600101855582156200192557600052602060002091601f016020900482015b828111156200192457825482559160010191906001019062001907565b5b509050620019349190620019b9565b5090565b50805460018160011615610100020316600290046000825580601f1062001960575062001981565b601f016020900490600052602060002090810190620019809190620019b9565b5b50565b815481835581811115620019b457600402816004028360005260206000209182019101620019b39190620019e1565b5b505050565b620019de91905b80821115620019da576000816000905550600101620019c0565b5090565b90565b62001a2a91905b8082111562001a26576000808201600062001a04919062001938565b60018201600090556002820160009055600382016000905550600401620019e8565b5090565b90565b60008135905062001a3e8162002766565b92915050565b60008151905062001a558162002766565b92915050565b600082601f83011262001a6d57600080fd5b813562001a8462001a7e826200253b565b6200250d565b9150818183526020840193506020810190508360005b8381101562001ace578135860162001ab3888262001b65565b84526020840193506020830192505060018101905062001a9a565b5050505092915050565b600082601f83011262001aea57600080fd5b813562001b0162001afb8262002564565b6200250d565b9150818183526020840193506020810190508385602084028201111562001b2757600080fd5b60005b8381101562001b5b578162001b40888262001c79565b84526020840193506020830192505060018101905062001b2a565b5050505092915050565b600082601f83011262001b7757600080fd5b813562001b8e62001b88826200258d565b6200250d565b9150808252602083016020830185838301111562001bab57600080fd5b62001bb883828462002710565b50505092915050565b600082601f83011262001bd357600080fd5b813562001bea62001be482620025ba565b6200250d565b9150808252602083016020830185838301111562001c0757600080fd5b62001c1483828462002710565b50505092915050565b600082601f83011262001c2f57600080fd5b815162001c4662001c4082620025ba565b6200250d565b9150808252602083016020830185838301111562001c6357600080fd5b62001c708382846200271f565b50505092915050565b60008135905062001c8a8162002780565b92915050565b60008151905062001ca18162002780565b92915050565b60008151905062001cb8816200279a565b92915050565b60006020828403121562001cd157600080fd5b600062001ce18482850162001a2d565b91505092915050565b60008060006060848603121562001d0057600080fd5b600084013567ffffffffffffffff81111562001d1b57600080fd5b62001d298682870162001a5b565b935050602084013567ffffffffffffffff81111562001d4757600080fd5b62001d558682870162001ad8565b925050604084013567ffffffffffffffff81111562001d7357600080fd5b62001d818682870162001ad8565b9150509250925092565b6000806040838503121562001d9f57600080fd5b600083013567ffffffffffffffff81111562001dba57600080fd5b62001dc88582860162001bc1565b925050602083013567ffffffffffffffff81111562001de657600080fd5b62001df48582860162001bc1565b9150509250929050565b6000806040838503121562001e1257600080fd5b600083013567ffffffffffffffff81111562001e2d57600080fd5b62001e3b8582860162001bc1565b925050602062001e4e8582860162001c79565b9150509250929050565b60008060006060848603121562001e6e57600080fd5b600084013567ffffffffffffffff81111562001e8957600080fd5b62001e978682870162001bc1565b935050602062001eaa8682870162001c79565b925050604062001ebd8682870162001c79565b9150509250925092565b6000806000806080858703121562001ede57600080fd5b600085015167ffffffffffffffff81111562001ef957600080fd5b62001f078782880162001c1d565b945050602062001f1a8782880162001c90565b935050604062001f2d8782880162001ca7565b925050606062001f408782880162001a44565b91505092959194509250565b60006020828403121562001f5f57600080fd5b600062001f6f8482850162001c79565b91505092915050565b60006020828403121562001f8b57600080fd5b600062001f9b8482850162001c90565b91505092915050565b6000806000806080858703121562001fbb57600080fd5b600062001fcb8782880162001c79565b945050602085013567ffffffffffffffff81111562001fe957600080fd5b62001ff78782880162001bc1565b93505060406200200a8782880162001c79565b92505060606200201d8782880162001c79565b91505092959194509250565b6000806000606084860312156200203f57600080fd5b60006200204f8682870162001c79565b9350506020620020628682870162001c79565b925050604084013567ffffffffffffffff8111156200208057600080fd5b6200208e8682870162001bc1565b9150509250925092565b6000620020a6838362002227565b905092915050565b6000620020bc8383620022a9565b60208301905092915050565b620020d38162002691565b82525050565b6000620020e68262002607565b620020f281856200264d565b9350836020820285016200210685620025e7565b8060005b8581101562002148578484038952815162002126858262002098565b9450620021338362002633565b925060208a019950506001810190506200210a565b50829750879550505050505092915050565b6000620021678262002612565b6200217381856200265e565b93506200218083620025f7565b8060005b83811015620021b75781516200219b8882620020ae565b9750620021a88362002640565b92505060018101905062002184565b5085935050505092915050565b620021cf81620026a5565b82525050565b620021e081620026e8565b82525050565b6000620021f38262002628565b620021ff818562002680565b9350620022118185602086016200271f565b6200221c8162002755565b840191505092915050565b600062002234826200261d565b6200224081856200266f565b9350620022528185602086016200271f565b6200225d8162002755565b840191505092915050565b600062002275826200261d565b62002281818562002680565b9350620022938185602086016200271f565b6200229e8162002755565b840191505092915050565b620022b481620026d1565b82525050565b620022c581620026d1565b82525050565b620022d681620026db565b82525050565b6000602082019050620022f36000830184620020c8565b92915050565b60006040820190508181036000830152620023158185620020d9565b905081810360208301526200232b81846200215a565b90509392505050565b60006020820190506200234b6000830184620021c4565b92915050565b6000602082019050620023686000830184620021d5565b92915050565b600060808201905081810360008301526200238a8187620021e6565b90508181036020830152620023a08186620021e6565b90508181036040830152620023b68185620021e6565b9050620023c76060830184620022cb565b95945050505050565b60006040820190508181036000830152620023ec8185620021e6565b9050620023fd6020830184620022ba565b9392505050565b60006080820190508181036000830152620024208187620021e6565b9050620024316020830186620022ba565b620024406040830185620022cb565b6200244f6060830184620020c8565b95945050505050565b6000608082019050818103600083015262002474818762002268565b9050620024856020830186620022ba565b620024946040830185620022ba565b620024a36060830184620022ba565b95945050505050565b6000602082019050620024c36000830184620022ba565b92915050565b6000606082019050620024e06000830186620022ba565b620024ef6020830185620022ba565b8181036040830152620025038184620021e6565b9050949350505050565b6000604051905081810181811067ffffffffffffffff821117156200253157600080fd5b8060405250919050565b600067ffffffffffffffff8211156200255357600080fd5b602082029050602081019050919050565b600067ffffffffffffffff8211156200257c57600080fd5b602082029050602081019050919050565b600067ffffffffffffffff821115620025a557600080fd5b601f19601f8301169050602081019050919050565b600067ffffffffffffffff821115620025d257600080fd5b601f19601f8301169050602081019050919050565b6000819050602082019050919050565b6000819050602082019050919050565b600081519050919050565b600081519050919050565b600081519050919050565b600081519050919050565b6000602082019050919050565b6000602082019050919050565b600082825260208201905092915050565b600082825260208201905092915050565b600082825260208201905092915050565b600082825260208201905092915050565b60006200269e82620026b1565b9050919050565b60008115159050919050565b600073ffffffffffffffffffffffffffffffffffffffff82169050919050565b6000819050919050565b600060ff82169050919050565b6000620026f582620026fc565b9050919050565b60006200270982620026b1565b9050919050565b82818337600083830152505050565b60005b838110156200273f57808201518184015260208101905062002722565b838111156200274f576000848401525b50505050565b6000601f19601f8301169050919050565b620027718162002691565b81146200277d57600080fd5b50565b6200278b81620026d1565b81146200279757600080fd5b50565b620027a581620026db565b8114620027b157600080fd5b5056fe608060405234801561001057600080fd5b50604051610c2f380380610c2f8339818101604052606081101561003357600080fd5b8101908080519060200190929190805190602001909291908051604051939291908464010000000082111561006757600080fd5b8382019150602082018581111561007d57600080fd5b825186600182028301116401000000008211171561009a57600080fd5b8083526020830192505050908051906020019080838360005b838110156100ce5780820151818401526020810190506100b3565b50505050905090810190601f1680156100fb5780820380516001836020036101000a031916815260200191505b5060405250505082600081905550806001908051906020019061011f929190610193565b506001600260006101000a81548160ff021916908360ff160217905550426003819055504260048190555032600560006101000a81548173ffffffffffffffffffffffffffffffffffffffff021916908373ffffffffffffffffffffffffffffffffffffffff160217905550505050610238565b828054600181600116156101000203166002900490600052602060002090601f016020900481019282601f106101d457805160ff1916838001178555610202565b82800160010185558215610202579182015b828111156102015782518255916020019190600101906101e6565b5b50905061020f9190610213565b5090565b61023591905b80821115610231576000816000905550600101610219565b5090565b90565b6109e8806102476000396000f3fe6080604052600436106100a75760003560e01c8063b9edb1af11610064578063b9edb1af146102e3578063bf250b961461033a578063c19d93fb14610411578063c9d3937f14610442578063d540a0971461046d578063f9bbff6b14610484576100a7565b80635958611e146100a95780637422485c146100d457806378e97925146101a6578063a035b1fe146101d1578063a9a531e9146101fc578063ac1717b01461028c575b005b3480156100b557600080fd5b506100be610549565b6040518082815260200191505060405180910390f35b3480156100e057600080fd5b506101a4600480360360408110156100f757600080fd5b810190808035906020019064010000000081111561011457600080fd5b82018360208201111561012657600080fd5b8035906020019184600183028401116401000000008311171561014857600080fd5b91908080601f016020809104026020016040519081016040528093929190818152602001838380828437600081840152601f19601f8201169050808301925050505050505091929192908035906020019092919050505061054f565b005b3480156101b257600080fd5b506101bb610653565b6040518082815260200191505060405180910390f35b3480156101dd57600080fd5b506101e6610659565b6040518082815260200191505060405180910390f35b34801561020857600080fd5b5061021161065f565b6040518080602001828103825283818151815260200191508051906020019080838360005b83811015610251578082015181840152602081019050610236565b50505050905090810190601f16801561027e5780820380516001836020036101000a031916815260200191505b509250505060405180910390f35b34801561029857600080fd5b506102a16106fd565b604051808273ffffffffffffffffffffffffffffffffffffffff1673ffffffffffffffffffffffffffffffffffffffff16815260200191505060405180910390f35b3480156102ef57600080fd5b506102f8610723565b604051808273ffffffffffffffffffffffffffffffffffffffff1673ffffffffffffffffffffffffffffffffffffffff16815260200191505060405180910390f35b34801561034657600080fd5b5061034f610749565b60405180806020018581526020018460ff1660ff1681526020018373ffffffffffffffffffffffffffffffffffffffff1673ffffffffffffffffffffffffffffffffffffffff168152602001828103825286818151815260200191508051906020019080838360005b838110156103d35780820151818401526020810190506103b8565b50505050905090810190601f1680156104005780820380516001836020036101000a031916815260200191505b509550505050505060405180910390f35b34801561041d57600080fd5b50610426610832565b604051808260ff1660ff16815260200191505060405180910390f35b34801561044e57600080fd5b50610457610845565b6040518082815260200191505060405180910390f35b34801561047957600080fd5b5061048261085f565b005b6105476004803603604081101561049a57600080fd5b81019080803590602001906401000000008111156104b757600080fd5b8201836020820111156104c957600080fd5b803590602001918460018302840111640100000000831117156104eb57600080fd5b91908080601f016020809104026020016040519081016040528093929190818152602001838380828437600081840152601f19601f820116905080830192505050505050509192919290803590602001909291905050506108a8565b005b60045481565b60028060006101000a81548160ff021916908360ff16021790555032600660006101000a81548173ffffffffffffffffffffffffffffffffffffffff021916908373ffffffffffffffffffffffffffffffffffffffff1602179055507f5101420f8082122cde58ba322db1c300b792ffdc0f785db0c0af395b9084cb3082826040518080602001838152602001828103825284818151815260200191508051906020019080838360005b838110156106145780820151818401526020810190506105f9565b50505050905090810190601f1680156106415780820380516001836020036101000a031916815260200191505b50935050505060405180910390a15050565b60035481565b60005481565b60018054600181600116156101000203166002900480601f0160208091040260200160405190810160405280929190818152602001828054600181600116156101000203166002900480156106f55780601f106106ca576101008083540402835291602001916106f5565b820191906000526020600020905b8154815290600101906020018083116106d857829003601f168201915b505050505081565b600560009054906101000a900473ffffffffffffffffffffffffffffffffffffffff1681565b600660009054906101000a900473ffffffffffffffffffffffffffffffffffffffff1681565b606060008060006001600054600260009054906101000a900460ff16600560009054906101000a900473ffffffffffffffffffffffffffffffffffffffff16838054600181600116156101000203166002900480601f01602080910402602001604051908101604052809291908181526020018280546001816001161561010002031660029004801561081d5780601f106107f25761010080835404028352916020019161081d565b820191906000526020600020905b81548152906001019060200180831161080057829003601f168201915b50505050509350935093509350935090919293565b600260009054906101000a900460ff1681565b6000600260009054906101000a900460ff1660ff16905090565b3273ffffffffffffffffffffffffffffffffffffffff166108fc479081150290604051600060405180830381858888f193505050501580156108a5573d6000803e3d6000fd5b50565b3273ffffffffffffffffffffffffffffffffffffffff166108fc479081150290604051600060405180830381858888f193505050501580156108ee573d6000803e3d6000fd5b506003600260006101000a81548160ff021916908360ff1602179055507fd8de606fa64c10a177777e8976ed05a854f09171980910884dcb3c0f1bbc786f82826040518080602001838152602001828103825284818151815260200191508051906020019080838360005b83811015610974578082015181840152602081019050610959565b50505050905090810190601f1680156109a15780820380516001836020036101000a031916815260200191505b50935050505060405180910390a1505056fea265627a7a723158202143643f2ec9c9fc26f4f989e6e6bae320109fae6d98ee085719e042efa82d0264736f6c63430005100032a365627a7a72315820bd62405191d9c77851674611b6c0abb99b4562d0aa49a62948d4f799a40a73c96c6578706572696d656e74616cf564736f6c63430005100040a365627a7a72315820c15cc8cc60f3e767d3066e02ba4f16e7a988b8f42ac8e888dc27103aaf7614e76c6578706572696d656e74616cf564736f6c63430005100040",
  "source": "pragma solidity ^0.5.2;\r\npragma experimental ABIEncoderV2;\r\n\r\nimport \"./ChickenHouseTest.sol\";\r\n\r\n// Admin \r\ncontract AdminTest {\r\n   \r\n  ChickenHouseTest[] chickenHouses;\r\n\r\n  function() external payable {}\r\n\r\n  mapping (string => uint) storeIndexs;\r\n  \r\n  //    \r\n  function getStoreReturn() public view returns(uint256) {\r\n    // ChickenHouseTest chickenHouse = findChickenHouse(_storeName);\r\n    return chickenHouses.length;\r\n  }\r\n\r\n  //    \r\n  function findChickenHouse(string memory _storeName) public view returns(ChickenHouseTest) {\r\n        ChickenHouseTest chickenHouse = chickenHouses[storeIndexs[_storeName]];\r\n        return chickenHouse;\r\n  }\r\n\r\n\r\n  // ChickenHouse () \r\n  function registerChickenHouse(string memory _storeName,string memory _latitude,string memory _longitude, string[] memory _chickenNames, uint256 [] memory _prices, uint256[] memory _menuState) public {\r\n    ChickenHouseTest chickenHouse = new ChickenHouseTest(_storeName, _latitude, _longitude,  msg.sender);\r\n    chickenHouse.registerChickenHouse(_chickenNames, _prices, _menuState);\r\n    storeIndexs[_storeName] = (chickenHouses.push(chickenHouse)) - 1;\r\n    \r\n  }\r\n  //   ,  , state(1, 2)  \r\n   function setMenu(string memory _storeName, uint _index, string memory _chickenNames, uint256 _price, uint256 _menuState) public returns (bool) {\r\n      ChickenHouseTest chickenHouse = findChickenHouse(_storeName);\r\n        chickenHouse.setMenu(_index, _chickenNames, _price, _menuState);\r\n\r\n      }\r\n//           \r\n      function deleteMenu(string memory _storeName, uint256 _index) public returns (bool){\r\n         ChickenHouseTest chickenHouse = findChickenHouse(_storeName);\r\n          chickenHouse.deleteMenu(_index);\r\n      }\r\n  //  \r\n  function createRoom(string memory _storeName, uint256 _price, uint256 _finish, string memory _chickenName) public payable {\r\n    // chickenHouse  storeName !\r\n    ChickenHouseTest chickenHouse = findChickenHouse(_storeName);  \r\n    // address(uint160(address(chickenHouse))).transfer(msg.value); // msg.value :   \r\n    chickenHouse.createRoom.value(msg.value)(_price, _finish, _chickenName);\r\n  }\r\n  \r\n  //  Match \r\n function matchRoom(string memory _storeName, uint256 _roomIndex) public payable {\r\n    //    \r\n    ChickenHouseTest chickenHouse = findChickenHouse(_storeName);\r\n    address(uint160(address(chickenHouse))).transfer(msg.value);\r\n    chickenHouse.matchRoom(_storeName, _roomIndex);\r\n  }\r\n\r\n  //   \r\n  function approveOrder(string memory _storeName , uint256 _roomIndex) public {\r\n    //    _storeName   _roomNumber    \r\n    ChickenHouseTest chickenHouse = findChickenHouse(_storeName);\r\n    chickenHouse.approveOrder(_storeName , _roomIndex);\r\n  }\r\n\r\n function getBalanceOfRoom(uint256 _storeIndex, uint256 _roomIndex) public view\r\n    returns (uint256)\r\n  {\r\n    ChickenHouseTest chickenHouse = chickenHouses[_storeIndex];\r\n    return chickenHouse.getBalance(_roomIndex);\r\n  }\r\n\r\n  function getStateRoom(uint256 _storeIndex, uint256 _roomIndex)\r\n    public\r\n    view\r\n    returns (uint256)\r\n  {\r\n    return 0;\r\n    //ChickenHouseTest chickenHouse = chickenHouses[_storeIndex];\r\n    //return chickenHouse.getStateRoom(_roomIndex);\r\n  }\r\n\r\n  // 2.      ?\r\n    function getChickenHouse(string memory _storeName) public view returns(\r\n      string memory storeName, \r\n      string memory latitude, \r\n      string memory longitude, \r\n      uint8 closed){\r\n        ChickenHouseTest chickenHouse = findChickenHouse(_storeName);\r\n        return chickenHouse.getChickenHouse();\r\n    }\r\n\r\n  // 2.2     ?\r\n    function getChickenHouse2(uint256 _storeIndex) public view returns(\r\n      string memory storeName, \r\n      string memory latitude, \r\n      string memory longitude, \r\n      uint8 closed){\r\n        ChickenHouseTest chickenHouse = chickenHouses[_storeIndex];\r\n        return chickenHouse.getChickenHouse2();\r\n    }\r\n\r\n\r\n    // 2.5    ?\r\n    function getStoreMenu(string memory _storeName)\r\n        public\r\n        view\r\n        returns (string[] memory, uint256[] memory)\r\n    {\r\n        ChickenHouseTest chickenHouse = chickenHouses[storeIndexs[_storeName]];\r\n        return chickenHouse.getStoreMenu();\r\n    }\r\n\r\n  // 3.    ?\r\n    function getRoomInfo(string memory _storeName, uint256 _roomIndex) public view returns(string memory, uint256, uint8, address){\r\n        ChickenHouseTest chickenHouse = findChickenHouse(_storeName);\r\n         return chickenHouse.getRoomInfo(_roomIndex);\r\n    }\r\n  \r\n\r\n  // onOff  \r\n   function changeOnOff(string memory _storeName) public {\r\n      ChickenHouseTest chickenHouse = findChickenHouse(_storeName);\r\n          chickenHouse.changeOnOff();\r\n   }\r\n\r\n  //    \r\n   function addOneMenu(string memory _storeName, string memory _chickenName, uint256 _price, uint256 _menuState) public {\r\n    ChickenHouseTest chickenHouse = findChickenHouse(_storeName);\r\n    chickenHouse.addOneMenu(_chickenName, _price, _menuState);  \r\n  }\r\n\r\n  //    \r\n  // function changeStoreName(string memory _storeName, string memory _changeName) public {\r\n  //   ChickenHouseTest chickenHouse = findChickenHouse(_storeName);\r\n  //     chickenHouse.changeStoreName(_changeName);\r\n  // }\r\n\r\n  // location  \r\n    function changeLocation(string memory _storeName, string memory _longitude, string memory _latitude) public {\r\n      ChickenHouseTest chickenHouse = findChickenHouse(_storeName);\r\n        chickenHouse.changeLocation(_longitude, _latitude);\r\n    }\r\n\r\n  // user1      \r\n    function refund1(string memory _storeName, uint256 _roomIndex) public {\r\n      ChickenHouseTest chickenHouse = findChickenHouse(_storeName);\r\n      chickenHouse.refund1(_roomIndex);\r\n    }\r\n\r\n  // user1 user2       \r\n    // function refund1(string memory _storeName, uint256 _roomIndex) public {\r\n    //   ChickenHouseTest chickenHouse = findChickenHouse(_storeName);\r\n    //   chickenHouse.refund1(_roomIndex);\r\n    // }   \r\n\r\n}\r\n",
  "sourcePath": "C:\\Users\\admin\\Documents\\GitHub\\chainserver\\contracts\\AdminTest.sol",
  "compiler": {
    "name": "solc",
    "version": "0.5.16+commit.9c3226ce.Emscripten.clang"
  },
  "schemaVersion": "3.4.3",
  "updatedAt": "2021-09-28T07:29:11.988Z",
  "networkType": "ethereum",
  "devdoc": {
    "methods": {}
  },
  "userdoc": {
    "methods": {}
  }
}