{
  "contractName": "AdminTest",
  "abi": [
    {
      "payable": true,
      "stateMutability": "payable",
      "type": "fallback"
    },
    {
      "constant": true,
      "inputs": [],
      "name": "getStoreCount",
      "outputs": [
        {
          "internalType": "uint256",
          "name": "storeCount",
          "type": "uint256"
        }
      ],
      "payable": false,
      "stateMutability": "view",
      "type": "function"
    },
    {
      "constant": true,
      "inputs": [
        {
          "internalType": "string",
          "name": "_storeName",
          "type": "string"
        }
      ],
      "name": "getRoomsCount",
      "outputs": [
        {
          "internalType": "uint256",
          "name": "roomsCount",
          "type": "uint256"
        }
      ],
      "payable": false,
      "stateMutability": "view",
      "type": "function"
    },
    {
      "constant": true,
      "inputs": [
        {
          "internalType": "string",
          "name": "_storeName",
          "type": "string"
        }
      ],
      "name": "findChickenHouse",
      "outputs": [
        {
          "internalType": "contract ChickenHouseTest",
          "name": "chickenHouse",
          "type": "address"
        }
      ],
      "payable": false,
      "stateMutability": "view",
      "type": "function"
    },
    {
      "constant": false,
      "inputs": [
        {
          "internalType": "string",
          "name": "_storeName",
          "type": "string"
        },
        {
          "internalType": "string",
          "name": "_latitude",
          "type": "string"
        },
        {
          "internalType": "string",
          "name": "_longitude",
          "type": "string"
        },
        {
          "internalType": "string[]",
          "name": "_chickenNames",
          "type": "string[]"
        },
        {
          "internalType": "uint256[]",
          "name": "_prices",
          "type": "uint256[]"
        },
        {
          "internalType": "uint256[]",
          "name": "_menuState",
          "type": "uint256[]"
        }
      ],
      "name": "registerChickenHouse",
      "outputs": [],
      "payable": false,
      "stateMutability": "nonpayable",
      "type": "function"
    },
    {
      "constant": false,
      "inputs": [
        {
          "internalType": "string",
          "name": "_storeName",
          "type": "string"
        },
        {
          "internalType": "uint256",
          "name": "_index",
          "type": "uint256"
        },
        {
          "internalType": "string",
          "name": "_chickenNames",
          "type": "string"
        },
        {
          "internalType": "uint256",
          "name": "_price",
          "type": "uint256"
        },
        {
          "internalType": "uint256",
          "name": "_menuState",
          "type": "uint256"
        }
      ],
      "name": "setMenu",
      "outputs": [
        {
          "internalType": "bool",
          "name": "",
          "type": "bool"
        }
      ],
      "payable": false,
      "stateMutability": "nonpayable",
      "type": "function"
    },
    {
      "constant": false,
      "inputs": [
        {
          "internalType": "string",
          "name": "_storeName",
          "type": "string"
        },
        {
          "internalType": "uint256",
          "name": "_index",
          "type": "uint256"
        }
      ],
      "name": "deleteMenu",
      "outputs": [
        {
          "internalType": "bool",
          "name": "",
          "type": "bool"
        }
      ],
      "payable": false,
      "stateMutability": "nonpayable",
      "type": "function"
    },
    {
      "constant": false,
      "inputs": [
        {
          "internalType": "string",
          "name": "_storeName",
          "type": "string"
        },
        {
          "internalType": "uint256",
          "name": "_price",
          "type": "uint256"
        },
        {
          "internalType": "uint256",
          "name": "_finish",
          "type": "uint256"
        },
        {
          "internalType": "string",
          "name": "_chickenName",
          "type": "string"
        }
      ],
      "name": "createRoom",
      "outputs": [],
      "payable": true,
      "stateMutability": "payable",
      "type": "function"
    },
    {
      "constant": false,
      "inputs": [
        {
          "internalType": "string",
          "name": "_storeName",
          "type": "string"
        },
        {
          "internalType": "uint256",
          "name": "_roomIndex",
          "type": "uint256"
        }
      ],
      "name": "matchRoom",
      "outputs": [],
      "payable": true,
      "stateMutability": "payable",
      "type": "function"
    },
    {
      "constant": false,
      "inputs": [
        {
          "internalType": "string",
          "name": "_storeName",
          "type": "string"
        },
        {
          "internalType": "uint256",
          "name": "_roomIndex",
          "type": "uint256"
        }
      ],
      "name": "approveOrder",
      "outputs": [],
      "payable": false,
      "stateMutability": "nonpayable",
      "type": "function"
    },
    {
      "constant": true,
      "inputs": [
        {
          "internalType": "uint256",
          "name": "_storeIndex",
          "type": "uint256"
        },
        {
          "internalType": "uint256",
          "name": "_roomIndex",
          "type": "uint256"
        }
      ],
      "name": "getBalanceOfRoom",
      "outputs": [
        {
          "internalType": "uint256",
          "name": "balance",
          "type": "uint256"
        }
      ],
      "payable": false,
      "stateMutability": "view",
      "type": "function"
    },
    {
      "constant": true,
      "inputs": [
        {
          "internalType": "uint256",
          "name": "_storeIndex",
          "type": "uint256"
        },
        {
          "internalType": "uint256",
          "name": "_roomIndex",
          "type": "uint256"
        }
      ],
      "name": "getStateRoom",
      "outputs": [
        {
          "internalType": "uint256",
          "name": "state",
          "type": "uint256"
        }
      ],
      "payable": false,
      "stateMutability": "view",
      "type": "function"
    },
    {
      "constant": true,
      "inputs": [
        {
          "internalType": "string",
          "name": "_storeName",
          "type": "string"
        }
      ],
      "name": "getChickenHouse",
      "outputs": [
        {
          "internalType": "string",
          "name": "storeName",
          "type": "string"
        },
        {
          "internalType": "string",
          "name": "latitude",
          "type": "string"
        },
        {
          "internalType": "string",
          "name": "longitude",
          "type": "string"
        },
        {
          "internalType": "uint8",
          "name": "closed",
          "type": "uint8"
        }
      ],
      "payable": false,
      "stateMutability": "view",
      "type": "function"
    },
    {
      "constant": true,
      "inputs": [
        {
          "internalType": "uint256",
          "name": "_storeIndex",
          "type": "uint256"
        }
      ],
      "name": "getChickenHouse2",
      "outputs": [
        {
          "internalType": "string",
          "name": "storeName",
          "type": "string"
        },
        {
          "internalType": "string",
          "name": "latitude",
          "type": "string"
        },
        {
          "internalType": "string",
          "name": "longitude",
          "type": "string"
        },
        {
          "internalType": "uint8",
          "name": "closed",
          "type": "uint8"
        }
      ],
      "payable": false,
      "stateMutability": "view",
      "type": "function"
    },
    {
      "constant": true,
      "inputs": [
        {
          "internalType": "string",
          "name": "_storeName",
          "type": "string"
        }
      ],
      "name": "getStoreMenu",
      "outputs": [
        {
          "internalType": "string[]",
          "name": "chickens",
          "type": "string[]"
        },
        {
          "internalType": "uint256[]",
          "name": "prices",
          "type": "uint256[]"
        }
      ],
      "payable": false,
      "stateMutability": "view",
      "type": "function"
    },
    {
      "constant": true,
      "inputs": [
        {
          "internalType": "string",
          "name": "_storeName",
          "type": "string"
        },
        {
          "internalType": "uint256",
          "name": "_roomIndex",
          "type": "uint256"
        }
      ],
      "name": "getRoomInfo",
      "outputs": [
        {
          "internalType": "string",
          "name": "chicken",
          "type": "string"
        },
        {
          "internalType": "uint256",
          "name": "price",
          "type": "uint256"
        },
        {
          "internalType": "uint8",
          "name": "state",
          "type": "uint8"
        },
        {
          "internalType": "address",
          "name": "user1",
          "type": "address"
        }
      ],
      "payable": false,
      "stateMutability": "view",
      "type": "function"
    },
    {
      "constant": false,
      "inputs": [
        {
          "internalType": "string",
          "name": "_storeName",
          "type": "string"
        }
      ],
      "name": "changeOnOff",
      "outputs": [],
      "payable": false,
      "stateMutability": "nonpayable",
      "type": "function"
    },
    {
      "constant": false,
      "inputs": [
        {
          "internalType": "string",
          "name": "_storeName",
          "type": "string"
        },
        {
          "internalType": "string",
          "name": "_chickenName",
          "type": "string"
        },
        {
          "internalType": "uint256",
          "name": "_price",
          "type": "uint256"
        },
        {
          "internalType": "uint256",
          "name": "_menuState",
          "type": "uint256"
        }
      ],
      "name": "addOneMenu",
      "outputs": [],
      "payable": false,
      "stateMutability": "nonpayable",
      "type": "function"
    },
    {
      "constant": false,
      "inputs": [
        {
          "internalType": "string",
          "name": "_storeName",
          "type": "string"
        },
        {
          "internalType": "string",
          "name": "_longitude",
          "type": "string"
        },
        {
          "internalType": "string",
          "name": "_latitude",
          "type": "string"
        }
      ],
      "name": "changeLocation",
      "outputs": [],
      "payable": false,
      "stateMutability": "nonpayable",
      "type": "function"
    },
    {
      "constant": false,
      "inputs": [
        {
          "internalType": "string",
          "name": "_storeName",
          "type": "string"
        },
        {
          "internalType": "uint256",
          "name": "_roomIndex",
          "type": "uint256"
        }
      ],
      "name": "refund1",
      "outputs": [],
      "payable": false,
      "stateMutability": "nonpayable",
      "type": "function"
    },
    {
      "constant": false,
      "inputs": [
        {
          "internalType": "string",
          "name": "_storeName",
          "type": "string"
        },
        {
          "internalType": "uint256",
          "name": "_roomIndex",
          "type": "uint256"
        }
      ],
      "name": "refund2",
      "outputs": [],
      "payable": false,
      "stateMutability": "nonpayable",
      "type": "function"
    }
  ],
  "bytecode": "0x608060405234801561001057600080fd5b50615faf806100206000396000f3fe6080604052600436106200013a5760003560e01c8063827bc52e11620000af578063bed33666116200006d578063bed336661462000477578063d52933d114620004bb578063e050d63414620004e9578063f35f69f8146200052e578063f9bbff6b1462000572576200013a565b8063827bc52e146200036e57806398e8bd97146200038e578063b06bb13014620003be578063b226ef091462000405578063b4cc2bc61462000433576200013a565b8063551bfcbb11620000fd578063551bfcbb146200024e5780635554c32c14620002955780637422485c14620002c357806374db003914620002e3578063825109001462000327576200013a565b806304893236146200013c57806310d6a38b146200018057806311afb72614620001ae578063427fae8814620001dc57806350c66273146200020a575b005b3480156200014957600080fd5b5062000168600480360362000162919081019062001782565b620005a0565b604051620001779190620020c1565b60405180910390f35b3480156200018d57600080fd5b50620001ac6004803603620001a6919081019062001a4b565b62000607565b005b348015620001bb57600080fd5b50620001da6004803603620001d4919081019062001ae9565b62000690565b005b348015620001e957600080fd5b50620002086004803603620002029190810190620017c7565b62000713565b005b3480156200021757600080fd5b5062000236600480360362000230919081019062001d72565b62000799565b604051620002459190620022ed565b60405180910390f35b3480156200025b57600080fd5b506200027a600480360362000274919081019062001d1a565b620007a4565b6040516200028c94939291906200217b565b60405180910390f35b348015620002a257600080fd5b50620002c16004803603620002bb919081019062001782565b6200087e565b005b620002e16004803603620002db919081019062001ae9565b620008f3565b005b348015620002f057600080fd5b506200030f600480360362000309919081019062001d72565b62000979565b6040516200031e9190620022ed565b60405180910390f35b3480156200033457600080fd5b506200035360048036036200034d919081019062001ae9565b62000a4f565b60405162000365949392919062002299565b60405180910390f35b6200038c600480360362000386919081019062001bf7565b62000b0a565b005b3480156200039b57600080fd5b50620003a662000b94565b604051620003b59190620022ed565b60405180910390f35b348015620003cb57600080fd5b50620003ea6004803603620003e4919081019062001782565b62000ba0565b604051620003fc94939291906200217b565b60405180910390f35b3480156200041257600080fd5b506200043160048036036200042b919081019062001868565b62000c4c565b005b3480156200044057600080fd5b506200045f600480360362000459919081019062001b43565b62000eef565b6040516200046e9190620020a4565b60405180910390f35b3480156200048457600080fd5b50620004a360048036036200049d919081019062001ae9565b62000fa1565b604051620004b29190620020a4565b60405180910390f35b348015620004c857600080fd5b50620004e76004803603620004e1919081019062001ae9565b6200104a565b005b348015620004f657600080fd5b506200051560048036036200050f919081019062001782565b620010cd565b6040516200052592919062002017565b60405180910390f35b3480156200053b57600080fd5b506200055a600480360362000554919081019062001782565b620011bd565b604051620005699190620022ed565b60405180910390f35b3480156200057f57600080fd5b506200059e600480360362000598919081019062001ae9565b62001257565b005b6000806000600184604051620005b7919062001ffe565b90815260200160405180910390205481548110620005d157fe5b9060005260206000200160009054906101000a900473ffffffffffffffffffffffffffffffffffffffff16905080915050919050565b60006200061485620005a0565b90508073ffffffffffffffffffffffffffffffffffffffff1663367bc1cd8585856040518463ffffffff1660e01b8152600401620006559392919062002255565b600060405180830381600087803b1580156200067057600080fd5b505af115801562000685573d6000803e3d6000fd5b505050505050505050565b60006200069d83620005a0565b90508073ffffffffffffffffffffffffffffffffffffffff1663db44a47e836040518263ffffffff1660e01b8152600401620006da9190620022ed565b600060405180830381600087803b158015620006f557600080fd5b505af11580156200070a573d6000803e3d6000fd5b50505050505050565b60006200072084620005a0565b90508073ffffffffffffffffffffffffffffffffffffffff1663f889fc0184846040518363ffffffff1660e01b81526004016200075f929190620020de565b600060405180830381600087803b1580156200077a57600080fd5b505af11580156200078f573d6000803e3d6000fd5b5050505050505050565b600080905092915050565b606080606060008060008681548110620007ba57fe5b9060005260206000200160009054906101000a900473ffffffffffffffffffffffffffffffffffffffff1690508073ffffffffffffffffffffffffffffffffffffffff166385b5c4b16040518163ffffffff1660e01b815260040160006040518083038186803b1580156200082e57600080fd5b505afa15801562000843573d6000803e3d6000fd5b505050506040513d6000823e3d601f19601f820116820180604052506200086e919081019062001994565b9450945094509450509193509193565b60006200088b82620005a0565b90508073ffffffffffffffffffffffffffffffffffffffff1663ecf668666040518163ffffffff1660e01b8152600401600060405180830381600087803b158015620008d657600080fd5b505af1158015620008eb573d6000803e3d6000fd5b505050505050565b60006200090083620005a0565b90508073ffffffffffffffffffffffffffffffffffffffff16637422485c3485856040518463ffffffff1660e01b815260040162000940929190620021dd565b6000604051808303818588803b1580156200095a57600080fd5b505af11580156200096f573d6000803e3d6000fd5b5050505050505050565b600080600084815481106200098a57fe5b9060005260206000200160009054906101000a900473ffffffffffffffffffffffffffffffffffffffff1690508073ffffffffffffffffffffffffffffffffffffffff16631e010439846040518263ffffffff1660e01b8152600401620009f29190620022ed565b60206040518083038186803b15801562000a0b57600080fd5b505afa15801562000a20573d6000803e3d6000fd5b505050506040513d601f19601f8201168201806040525062000a46919081019062001d46565b91505092915050565b606060008060008062000a6287620005a0565b90508073ffffffffffffffffffffffffffffffffffffffff16636790d2b5876040518263ffffffff1660e01b815260040162000a9f9190620022ed565b60006040518083038186803b15801562000ab857600080fd5b505afa15801562000acd573d6000803e3d6000fd5b505050506040513d6000823e3d601f19601f8201168201806040525062000af8919081019062001c95565b94509450945094505092959194509250565b600062000b1785620005a0565b90508073ffffffffffffffffffffffffffffffffffffffff166380f56840348686866040518563ffffffff1660e01b815260040162000b59939291906200235e565b6000604051808303818588803b15801562000b7357600080fd5b505af115801562000b88573d6000803e3d6000fd5b50505050505050505050565b60008080549050905090565b606080606060008062000bb386620005a0565b90508073ffffffffffffffffffffffffffffffffffffffff1663a71045f16040518163ffffffff1660e01b815260040160006040518083038186803b15801562000bfc57600080fd5b505afa15801562000c11573d6000803e3d6000fd5b505050506040513d6000823e3d601f19601f8201168201806040525062000c3c919081019062001994565b9450945094509450509193509193565b60008080549050141562000da35760008686863360405162000c6e90620012de565b62000c7d949392919062002119565b604051809103906000f08015801562000c9a573d6000803e3d6000fd5b509050600160008290806001815401808255809150509060018203906000526020600020016000909192909190916101000a81548173ffffffffffffffffffffffffffffffffffffffff021916908373ffffffffffffffffffffffffffffffffffffffff1602179055500360018860405162000d17919062001ffe565b9081526020016040518091039020819055508073ffffffffffffffffffffffffffffffffffffffff16632e639dbb8585856040518463ffffffff1660e01b815260040162000d689392919062002052565b600060405180830381600087803b15801562000d8357600080fd5b505af115801562000d98573d6000803e3d6000fd5b505050505062000ee7565b60008686863360405162000db790620012de565b62000dc6949392919062002119565b604051809103906000f08015801562000de3573d6000803e3d6000fd5b509050600160008290806001815401808255809150509060018203906000526020600020016000909192909190916101000a81548173ffffffffffffffffffffffffffffffffffffffff021916908373ffffffffffffffffffffffffffffffffffffffff1602179055500360018860405162000e60919062001ffe565b9081526020016040518091039020819055508073ffffffffffffffffffffffffffffffffffffffff16632e639dbb8585856040518463ffffffff1660e01b815260040162000eb19392919062002052565b600060405180830381600087803b15801562000ecc57600080fd5b505af115801562000ee1573d6000803e3d6000fd5b50505050505b505050505050565b60008062000efd87620005a0565b90508073ffffffffffffffffffffffffffffffffffffffff166312561e61878787876040518563ffffffff1660e01b815260040162000f4094939291906200230a565b602060405180830381600087803b15801562000f5b57600080fd5b505af115801562000f70573d6000803e3d6000fd5b505050506040513d601f19601f8201168201806040525062000f96919081019062001756565b505095945050505050565b60008062000faf84620005a0565b90508073ffffffffffffffffffffffffffffffffffffffff1663c2519ac3846040518263ffffffff1660e01b815260040162000fec9190620022ed565b602060405180830381600087803b1580156200100757600080fd5b505af11580156200101c573d6000803e3d6000fd5b505050506040513d601f19601f8201168201806040525062001042919081019062001756565b505092915050565b60006200105783620005a0565b90508073ffffffffffffffffffffffffffffffffffffffff16631dca91bf836040518263ffffffff1660e01b8152600401620010949190620022ed565b600060405180830381600087803b158015620010af57600080fd5b505af1158015620010c4573d6000803e3d6000fd5b50505050505050565b606080600080600185604051620010e5919062001ffe565b90815260200160405180910390205481548110620010ff57fe5b9060005260206000200160009054906101000a900473ffffffffffffffffffffffffffffffffffffffff1690508073ffffffffffffffffffffffffffffffffffffffff166316f9c96d6040518163ffffffff1660e01b815260040160006040518083038186803b1580156200117357600080fd5b505afa15801562001188573d6000803e3d6000fd5b505050506040513d6000823e3d601f19601f82011682018060405250620011b39190810190620016e3565b9250925050915091565b600080620011cb83620005a0565b90508073ffffffffffffffffffffffffffffffffffffffff166328822bde6040518163ffffffff1660e01b815260040160206040518083038186803b1580156200121457600080fd5b505afa15801562001229573d6000803e3d6000fd5b505050506040513d601f19601f820116820180604052506200124f919081019062001d46565b915050919050565b60006200126483620005a0565b90508073ffffffffffffffffffffffffffffffffffffffff1663f48c8d9d8484336040518463ffffffff1660e01b8152600401620012a59392919062002211565b600060405180830381600087803b158015620012c057600080fd5b505af1158015620012d5573d6000803e3d6000fd5b50505050505050565b6138c280620026ab83390190565b600081519050620012fd8162002642565b92915050565b600082601f8301126200131557600080fd5b81356200132c6200132682620023d0565b620023a2565b9150818183526020840193506020810190508360005b838110156200137657813586016200135b88826200152e565b84526020840193506020830192505060018101905062001342565b5050505092915050565b600082601f8301126200139257600080fd5b8151620013a9620013a382620023d0565b620023a2565b9150818183526020840193506020810190508360005b83811015620013f35781518601620013d888826200158a565b845260208401935060208301925050600181019050620013bf565b5050505092915050565b600082601f8301126200140f57600080fd5b8135620014266200142082620023f9565b620023a2565b915081818352602084019350602081019050838560208402820111156200144c57600080fd5b60005b838110156200148057816200146588826200169e565b8452602084019350602083019250506001810190506200144f565b5050505092915050565b600082601f8301126200149c57600080fd5b8151620014b3620014ad82620023f9565b620023a2565b91508181835260208401935060208101905083856020840282011115620014d957600080fd5b60005b838110156200150d5781620014f28882620016b5565b845260208401935060208301925050600181019050620014dc565b5050505092915050565b60008151905062001528816200265c565b92915050565b600082601f8301126200154057600080fd5b813562001557620015518262002422565b620023a2565b915080825260208301602083018583830111156200157457600080fd5b62001581838284620025ec565b50505092915050565b600082601f8301126200159c57600080fd5b8151620015b3620015ad8262002422565b620023a2565b91508082526020830160208301858383011115620015d057600080fd5b620015dd838284620025fb565b50505092915050565b600082601f830112620015f857600080fd5b81356200160f62001609826200244f565b620023a2565b915080825260208301602083018583830111156200162c57600080fd5b62001639838284620025ec565b50505092915050565b600082601f8301126200165457600080fd5b81516200166b62001665826200244f565b620023a2565b915080825260208301602083018583830111156200168857600080fd5b62001695838284620025fb565b50505092915050565b600081359050620016af8162002676565b92915050565b600081519050620016c68162002676565b92915050565b600081519050620016dd8162002690565b92915050565b60008060408385031215620016f757600080fd5b600083015167ffffffffffffffff8111156200171257600080fd5b620017208582860162001380565b925050602083015167ffffffffffffffff8111156200173e57600080fd5b6200174c858286016200148a565b9150509250929050565b6000602082840312156200176957600080fd5b6000620017798482850162001517565b91505092915050565b6000602082840312156200179557600080fd5b600082013567ffffffffffffffff811115620017b057600080fd5b620017be84828501620015e6565b91505092915050565b600080600060608486031215620017dd57600080fd5b600084013567ffffffffffffffff811115620017f857600080fd5b6200180686828701620015e6565b935050602084013567ffffffffffffffff8111156200182457600080fd5b6200183286828701620015e6565b925050604084013567ffffffffffffffff8111156200185057600080fd5b6200185e86828701620015e6565b9150509250925092565b60008060008060008060c087890312156200188257600080fd5b600087013567ffffffffffffffff8111156200189d57600080fd5b620018ab89828a01620015e6565b965050602087013567ffffffffffffffff811115620018c957600080fd5b620018d789828a01620015e6565b955050604087013567ffffffffffffffff811115620018f557600080fd5b6200190389828a01620015e6565b945050606087013567ffffffffffffffff8111156200192157600080fd5b6200192f89828a0162001303565b935050608087013567ffffffffffffffff8111156200194d57600080fd5b6200195b89828a01620013fd565b92505060a087013567ffffffffffffffff8111156200197957600080fd5b6200198789828a01620013fd565b9150509295509295509295565b60008060008060808587031215620019ab57600080fd5b600085015167ffffffffffffffff811115620019c657600080fd5b620019d48782880162001642565b945050602085015167ffffffffffffffff811115620019f257600080fd5b62001a008782880162001642565b935050604085015167ffffffffffffffff81111562001a1e57600080fd5b62001a2c8782880162001642565b925050606062001a3f87828801620016cc565b91505092959194509250565b6000806000806080858703121562001a6257600080fd5b600085013567ffffffffffffffff81111562001a7d57600080fd5b62001a8b87828801620015e6565b945050602085013567ffffffffffffffff81111562001aa957600080fd5b62001ab787828801620015e6565b935050604062001aca878288016200169e565b925050606062001add878288016200169e565b91505092959194509250565b6000806040838503121562001afd57600080fd5b600083013567ffffffffffffffff81111562001b1857600080fd5b62001b2685828601620015e6565b925050602062001b39858286016200169e565b9150509250929050565b600080600080600060a0868803121562001b5c57600080fd5b600086013567ffffffffffffffff81111562001b7757600080fd5b62001b8588828901620015e6565b955050602062001b98888289016200169e565b945050604086013567ffffffffffffffff81111562001bb657600080fd5b62001bc488828901620015e6565b935050606062001bd7888289016200169e565b925050608062001bea888289016200169e565b9150509295509295909350565b6000806000806080858703121562001c0e57600080fd5b600085013567ffffffffffffffff81111562001c2957600080fd5b62001c3787828801620015e6565b945050602062001c4a878288016200169e565b935050604062001c5d878288016200169e565b925050606085013567ffffffffffffffff81111562001c7b57600080fd5b62001c8987828801620015e6565b91505092959194509250565b6000806000806080858703121562001cac57600080fd5b600085015167ffffffffffffffff81111562001cc757600080fd5b62001cd58782880162001642565b945050602062001ce887828801620016b5565b935050604062001cfb87828801620016cc565b925050606062001d0e87828801620012ec565b91505092959194509250565b60006020828403121562001d2d57600080fd5b600062001d3d848285016200169e565b91505092915050565b60006020828403121562001d5957600080fd5b600062001d6984828501620016b5565b91505092915050565b6000806040838503121562001d8657600080fd5b600062001d96858286016200169e565b925050602062001da9858286016200169e565b9150509250929050565b600062001dc1838362001f8a565b905092915050565b600062001dd7838362001fcb565b60208301905092915050565b62001dee8162002588565b82525050565b62001dff8162002531565b82525050565b600062001e12826200249c565b62001e1e8185620024e2565b93508360208202850162001e32856200247c565b8060005b8581101562001e74578484038952815162001e52858262001db3565b945062001e5f83620024c8565b925060208a0199505060018101905062001e36565b50829750879550505050505092915050565b600062001e9382620024a7565b62001e9f8185620024f3565b935062001eac836200248c565b8060005b8381101562001ee357815162001ec7888262001dc9565b975062001ed483620024d5565b92505060018101905062001eb0565b5085935050505092915050565b62001efb8162002545565b82525050565b62001f0c816200259c565b82525050565b600062001f1f82620024bd565b62001f2b818562002515565b935062001f3d818560208601620025fb565b62001f488162002631565b840191505092915050565b600062001f6082620024bd565b62001f6c818562002526565b935062001f7e818560208601620025fb565b80840191505092915050565b600062001f9782620024b2565b62001fa3818562002504565b935062001fb5818560208601620025fb565b62001fc08162002631565b840191505092915050565b62001fd68162002571565b82525050565b62001fe78162002571565b82525050565b62001ff8816200257b565b82525050565b60006200200c828462001f53565b915081905092915050565b6000604082019050818103600083015262002033818562001e05565b9050818103602083015262002049818462001e86565b90509392505050565b600060608201905081810360008301526200206e818662001e05565b9050818103602083015262002084818562001e86565b905081810360408301526200209a818462001e86565b9050949350505050565b6000602082019050620020bb600083018462001ef0565b92915050565b6000602082019050620020d8600083018462001f01565b92915050565b60006040820190508181036000830152620020fa818562001f12565b9050818103602083015262002110818462001f12565b90509392505050565b6000608082019050818103600083015262002135818762001f12565b905081810360208301526200214b818662001f12565b9050818103604083015262002161818562001f12565b905062002172606083018462001de3565b95945050505050565b6000608082019050818103600083015262002197818762001f12565b90508181036020830152620021ad818662001f12565b90508181036040830152620021c3818562001f12565b9050620021d4606083018462001fed565b95945050505050565b60006040820190508181036000830152620021f9818562001f12565b90506200220a602083018462001fdc565b9392505050565b600060608201905081810360008301526200222d818662001f12565b90506200223e602083018562001fdc565b6200224d604083018462001de3565b949350505050565b6000606082019050818103600083015262002271818662001f12565b905062002282602083018562001fdc565b62002291604083018462001fdc565b949350505050565b60006080820190508181036000830152620022b5818762001f12565b9050620022c6602083018662001fdc565b620022d5604083018562001fed565b620022e4606083018462001df4565b95945050505050565b600060208201905062002304600083018462001fdc565b92915050565b600060808201905062002321600083018762001fdc565b818103602083015262002335818662001f12565b905062002346604083018562001fdc565b62002355606083018462001fdc565b95945050505050565b600060608201905062002375600083018662001fdc565b62002384602083018562001fdc565b818103604083015262002398818462001f12565b9050949350505050565b6000604051905081810181811067ffffffffffffffff82111715620023c657600080fd5b8060405250919050565b600067ffffffffffffffff821115620023e857600080fd5b602082029050602081019050919050565b600067ffffffffffffffff8211156200241157600080fd5b602082029050602081019050919050565b600067ffffffffffffffff8211156200243a57600080fd5b601f19601f8301169050602081019050919050565b600067ffffffffffffffff8211156200246757600080fd5b601f19601f8301169050602081019050919050565b6000819050602082019050919050565b6000819050602082019050919050565b600081519050919050565b600081519050919050565b600081519050919050565b600081519050919050565b6000602082019050919050565b6000602082019050919050565b600082825260208201905092915050565b600082825260208201905092915050565b600082825260208201905092915050565b600082825260208201905092915050565b600081905092915050565b60006200253e8262002551565b9050919050565b60008115159050919050565b600073ffffffffffffffffffffffffffffffffffffffff82169050919050565b6000819050919050565b600060ff82169050919050565b60006200259582620025c4565b9050919050565b6000620025a982620025b0565b9050919050565b6000620025bd8262002551565b9050919050565b6000620025d182620025d8565b9050919050565b6000620025e58262002551565b9050919050565b82818337600083830152505050565b60005b838110156200261b578082015181840152602081019050620025fe565b838111156200262b576000848401525b50505050565b6000601f19601f8301169050919050565b6200264d8162002531565b81146200265957600080fd5b50565b620026678162002545565b81146200267357600080fd5b50565b620026818162002571565b81146200268d57600080fd5b50565b6200269b816200257b565b8114620026a757600080fd5b5056fe60806040526000600360006101000a81548160ff021916908360ff16021790555060006007553480156200003257600080fd5b50604051620038c2380380620038c283398181016040526200005891908101906200028d565b80806000806101000a81548173ffffffffffffffffffffffffffffffffffffffff021916908373ffffffffffffffffffffffffffffffffffffffff1602179055506000809054906101000a900473ffffffffffffffffffffffffffffffffffffffff1673ffffffffffffffffffffffffffffffffffffffff16600073ffffffffffffffffffffffffffffffffffffffff167f8be0079c531659141344cd1fd0a4f28419497f9722a3daafe3b4186f6b6457e060405160405180910390a35083600290805190602001906200012e9291906200016b565b508260049080519060200190620001479291906200016b565b508160059080519060200190620001609291906200016b565b505050505062000423565b828054600181600116156101000203166002900490600052602060002090601f016020900481019282601f10620001ae57805160ff1916838001178555620001df565b82800160010185558215620001df579182015b82811115620001de578251825591602001919060010190620001c1565b5b509050620001ee9190620001f2565b5090565b6200021791905b8082111562000213576000816000905550600101620001f9565b5090565b90565b6000815190506200022b8162000409565b92915050565b600082601f8301126200024357600080fd5b81516200025a620002548262000372565b62000344565b915080825260208301602083018583830111156200027757600080fd5b62000284838284620003d3565b50505092915050565b60008060008060808587031215620002a457600080fd5b600085015167ffffffffffffffff811115620002bf57600080fd5b620002cd8782880162000231565b945050602085015167ffffffffffffffff811115620002eb57600080fd5b620002f98782880162000231565b935050604085015167ffffffffffffffff8111156200031757600080fd5b620003258782880162000231565b925050606062000338878288016200021a565b91505092959194509250565b6000604051905081810181811067ffffffffffffffff821117156200036857600080fd5b8060405250919050565b600067ffffffffffffffff8211156200038a57600080fd5b601f19601f8301169050602081019050919050565b6000620003ac82620003b3565b9050919050565b600073ffffffffffffffffffffffffffffffffffffffff82169050919050565b60005b83811015620003f3578082015181840152602081019050620003d6565b8381111562000403576000848401525b50505050565b62000414816200039f565b81146200042057600080fd5b50565b61348f80620004336000396000f3fe608060405260043610620001525760003560e01c80637422485c11620000bb578063c2519ac31162000079578063c2519ac314620004b3578063d27989ba14620004f7578063db44a47e146200053b578063ecf668661462000569578063f48c8d9d1462000583578063f889fc0114620005b15762000152565b80637422485c14620003dd57806380f5684014620003fd57806385b5c4b1146200041d5780638da5cb5b1462000450578063a71045f114620004805762000152565b806328822bde116200011557806328822bde146200027f5780632e639dbb14620002af5780632f54bf6e14620002dd578063367bc1cd14620003215780636790d2b5146200034f5780636fe66b0314620003965762000152565b806312561e61146200015457806316f9c96d14620001985780631dca91bf14620001c95780631e01043914620001f757806321058e81146200023b575b005b3480156200016157600080fd5b506200018060048036036200017a919081019062001edb565b620005df565b6040516200018f91906200226b565b60405180910390f35b348015620001a557600080fd5b50620001b062000679565b604051620001c092919062002230565b60405180910390f35b348015620001d657600080fd5b50620001f56004803603620001ef919081019062001e83565b62000832565b005b3480156200020457600080fd5b506200022360048036036200021d919081019062001e83565b620008ba565b604051620002329190620023e3565b60405180910390f35b3480156200024857600080fd5b5062000267600480360362000261919081019062001e83565b620008ea565b60405162000276919062002288565b60405180910390f35b3480156200028c57600080fd5b506200029762000931565b604051620002a69190620023e3565b60405180910390f35b348015620002bc57600080fd5b50620002db6004803603620002d5919081019062001bb2565b6200093e565b005b348015620002ea57600080fd5b5062000309600480360362000303919081019062001b86565b62000a3b565b6040516200031891906200226b565b60405180910390f35b3480156200032e57600080fd5b506200034d600480360362000347919081019062001d8f565b62000a94565b005b3480156200035c57600080fd5b506200037b600480360362000375919081019062001e83565b62000b2f565b6040516200038d94939291906200233b565b60405180910390f35b348015620003a357600080fd5b50620003c26004803603620003bc919081019062001e83565b62000bdb565b604051620003d494939291906200238f565b60405180910390f35b620003fb6004803603620003f5919081019062001cc6565b62000cb5565b005b6200041b600480360362000415919081019062001f60565b62000d82565b005b3480156200042a57600080fd5b506200043562000e89565b604051620004479493929190620022a5565b60405180910390f35b3480156200045d57600080fd5b506200046862001094565b60405162000477919062002213565b60405180910390f35b3480156200048d57600080fd5b5062000498620010bd565b604051620004aa9493929190620022a5565b60405180910390f35b348015620004c057600080fd5b50620004df6004803603620004d9919081019062001e83565b620012c8565b604051620004ee91906200226b565b60405180910390f35b3480156200050457600080fd5b506200052360048036036200051d919081019062001e83565b620013e7565b604051620005329190620023e3565b60405180910390f35b3480156200054857600080fd5b5062000567600480360362000561919081019062001e83565b62001481565b005b3480156200057657600080fd5b506200058162001509565b005b3480156200059057600080fd5b50620005af6004803603620005a9919081019062001d20565b62001583565b005b348015620005be57600080fd5b50620005dd6004803603620005d7919081019062001c53565b62001620565b005b60006006805490508510620005f357600080fd5b83600686815481106200060257fe5b906000526020600020906004020160000190805190602001906200062892919062001656565b5082600686815481106200063857fe5b90600052602060002090600402016001018190555081600686815481106200065c57fe5b906000526020600020906004020160020181905550949350505050565b6060806060600680549050604051908082528060200260200182016040528015620006b957816020015b6060815260200190600190039081620006a35790505b5090506060600680549050604051908082528060200260200182016040528015620006f35781602001602082028038833980820191505090505b50905060008090505b6006805490508110156200082557600681815481106200071857fe5b90600052602060002090600402016000018054600181600116156101000203166002900480601f016020809104026020016040519081016040528092919081815260200182805460018160011615610100020316600290048015620007c15780601f106200079557610100808354040283529160200191620007c1565b820191906000526020600020905b815481529060010190602001808311620007a357829003601f168201915b5050505050838281518110620007d357fe5b602002602001018190525060068181548110620007ec57fe5b9060005260206000209060040201600101548282815181106200080b57fe5b6020026020010181815250508080600101915050620006fc565b5081819350935050509091565b60006200083f82620008ea565b90508073ffffffffffffffffffffffffffffffffffffffff1663d540a0976040518163ffffffff1660e01b8152600401600060405180830381600087803b1580156200088a57600080fd5b505af11580156200089f573d6000803e3d6000fd5b50505050600760008154809291906001900391905055505050565b600080620008c883620008ea565b90508073ffffffffffffffffffffffffffffffffffffffff1631915050919050565b60008060018381548110620008fb57fe5b9060005260206000200160009054906101000a900473ffffffffffffffffffffffffffffffffffffffff16905080915050919050565b6000600180549050905090565b81518351146200094d57600080fd5b60008090505b835181101562000a3557600660405180608001604052808684815181106200097757fe5b602002602001015181526020018584815181106200099157fe5b60200260200101518152602001848481518110620009ab57fe5b602002602001015181526020018381525090806001815401808255809150509060018203906000526020600020906004020160009091929091909150600082015181600001908051906020019062000a05929190620016dd565b50602082015181600101556040820151816002015560608201518160030155505050808060010191505062000953565b50505050565b60008060009054906101000a900473ffffffffffffffffffffffffffffffffffffffff1673ffffffffffffffffffffffffffffffffffffffff168273ffffffffffffffffffffffffffffffffffffffff16149050919050565b6006604051806080016040528085815260200184815260200183815260200160016006805490500381525090806001815401808255809150509060018203906000526020600020906004020160009091929091909150600082015181600001908051906020019062000b08929190620016dd565b50602082015181600101556040820151816002015560608201518160030155505050505050565b606060008060008062000b4286620008ea565b90508073ffffffffffffffffffffffffffffffffffffffff1663bf250b966040518163ffffffff1660e01b815260040160006040518083038186803b15801562000b8b57600080fd5b505afa15801562000ba0573d6000803e3d6000fd5b505050506040513d6000823e3d601f19601f8201168201806040525062000bcb919081019062001dfe565b9450945094509450509193509193565b6006818154811062000be957fe5b9060005260206000209060040201600091509050806000018054600181600116156101000203166002900480601f01602080910402602001604051908101604052809291908181526020018280546001816001161561010002031660029004801562000c995780601f1062000c6d5761010080835404028352916020019162000c99565b820191906000526020600020905b81548152906001019060200180831162000c7b57829003601f168201915b5050505050908060010154908060020154908060030154905084565b600062000cc282620008ea565b90508073ffffffffffffffffffffffffffffffffffffffff166108fc349081150290604051600060405180830381858888f1935050505015801562000d0b573d6000803e3d6000fd5b508073ffffffffffffffffffffffffffffffffffffffff16637422485c84846040518363ffffffff1660e01b815260040162000d4992919062002307565b600060405180830381600087803b15801562000d6457600080fd5b505af115801562000d79573d6000803e3d6000fd5b50505050505050565b600083838360405162000d959062001764565b62000da39392919062002400565b604051809103906000f08015801562000dc0573d6000803e3d6000fd5b50905060018190806001815401808255809150509060018203906000526020600020016000909192909190916101000a81548173ffffffffffffffffffffffffffffffffffffffff021916908373ffffffffffffffffffffffffffffffffffffffff160217905550508073ffffffffffffffffffffffffffffffffffffffff166108fc349081150290604051600060405180830381858888f1935050505015801562000e70573d6000803e3d6000fd5b5060076000815480929190600101919050555050505050565b60608060606000600260046005600360009054906101000a900460ff16838054600181600116156101000203166002900480601f01602080910402602001604051908101604052809291908181526020018280546001816001161561010002031660029004801562000f3f5780601f1062000f135761010080835404028352916020019162000f3f565b820191906000526020600020905b81548152906001019060200180831162000f2157829003601f168201915b50505050509350828054600181600116156101000203166002900480601f01602080910402602001604051908101604052809291908181526020018280546001816001161561010002031660029004801562000fdf5780601f1062000fb35761010080835404028352916020019162000fdf565b820191906000526020600020905b81548152906001019060200180831162000fc157829003601f168201915b50505050509250818054600181600116156101000203166002900480601f0160208091040260200160405190810160405280929190818152602001828054600181600116156101000203166002900480156200107f5780601f1062001053576101008083540402835291602001916200107f565b820191906000526020600020905b8154815290600101906020018083116200106157829003601f168201915b50505050509150935093509350935090919293565b60008060009054906101000a900473ffffffffffffffffffffffffffffffffffffffff16905090565b60608060606000600260046005600360009054906101000a900460ff16838054600181600116156101000203166002900480601f016020809104026020016040519081016040528092919081815260200182805460018160011615610100020316600290048015620011735780601f10620011475761010080835404028352916020019162001173565b820191906000526020600020905b8154815290600101906020018083116200115557829003601f168201915b50505050509350828054600181600116156101000203166002900480601f016020809104026020016040519081016040528092919081815260200182805460018160011615610100020316600290048015620012135780601f10620011e75761010080835404028352916020019162001213565b820191906000526020600020905b815481529060010190602001808311620011f557829003601f168201915b50505050509250818054600181600116156101000203166002900480601f016020809104026020016040519081016040528092919081815260200182805460018160011615610100020316600290048015620012b35780601f106200128757610100808354040283529160200191620012b3565b820191906000526020600020905b8154815290600101906020018083116200129557829003601f168201915b50505050509150935093509350935090919293565b6000600660016006805490500381548110620012e057fe5b906000526020600020906004020160068381548110620012fc57fe5b9060005260206000209060040201600082018160000190805460018160011615610100020316600290046200133392919062001772565b5060018201548160010155600282015481600201556003820154816003015590505081600683815481106200136457fe5b9060005260206000209060040201600301819055506006600160068054905003815481106200138f57fe5b906000526020600020906004020160008082016000620013b0919062001800565b60018201600090556002820160009055600382016000905550506006805480919060019003620013e191906200184c565b50919050565b600080620013f583620008ea565b90508073ffffffffffffffffffffffffffffffffffffffff1663c9d3937f6040518163ffffffff1660e01b815260040160206040518083038186803b1580156200143e57600080fd5b505afa15801562001453573d6000803e3d6000fd5b505050506040513d601f19601f8201168201806040525062001479919081019062001eaf565b915050919050565b60006200148e82620008ea565b90508073ffffffffffffffffffffffffffffffffffffffff166318cae91c6040518163ffffffff1660e01b8152600401600060405180830381600087803b158015620014d957600080fd5b505af1158015620014ee573d6000803e3d6000fd5b50505050600760008154809291906001900391905055505050565b6000600360009054906101000a900460ff1660ff16141562001547576001600360006101000a81548160ff021916908360ff16021790555062001581565b6001600360009054906101000a900460ff1660ff16141562001580576000600360006101000a81548160ff021916908360ff1602179055505b5b565b806200158f8162000a3b565b6200159957600080fd5b6000620015a684620008ea565b90508073ffffffffffffffffffffffffffffffffffffffff1663f9bbff6b86866040518363ffffffff1660e01b8152600401620015e592919062002307565b600060405180830381600087803b1580156200160057600080fd5b505af115801562001615573d6000803e3d6000fd5b505050505050505050565b81600590805190602001906200163892919062001656565b5080600490805190602001906200165192919062001656565b505050565b828054600181600116156101000203166002900490600052602060002090601f016020900481019282601f106200169957805160ff1916838001178555620016ca565b82800160010185558215620016ca579182015b82811115620016c9578251825591602001919060010190620016ac565b5b509050620016d9919062001881565b5090565b828054600181600116156101000203166002900490600052602060002090601f016020900481019282601f106200172057805160ff191683800117855562001751565b8280016001018555821562001751579182015b828111156200175057825182559160200191906001019062001733565b5b50905062001760919062001881565b5090565b610d6180620026ec83390190565b828054600181600116156101000203166002900490600052602060002090601f016020900481019282601f10620017ad5780548555620017ed565b82800160010185558215620017ed57600052602060002091601f016020900482015b82811115620017ec578254825591600101919060010190620017cf565b5b509050620017fc919062001881565b5090565b50805460018160011615610100020316600290046000825580601f1062001828575062001849565b601f01602090049060005260206000209081019062001848919062001881565b5b50565b8154818355818111156200187c576004028160040283600052602060002091820191016200187b9190620018a9565b5b505050565b620018a691905b80821115620018a257600081600090555060010162001888565b5090565b90565b620018f291905b80821115620018ee5760008082016000620018cc919062001800565b60018201600090556002820160009055600382016000905550600401620018b0565b5090565b90565b60008135905062001906816200269d565b92915050565b6000815190506200191d816200269d565b92915050565b600082601f8301126200193557600080fd5b81356200194c620019468262002472565b62002444565b9150818183526020840193506020810190508360005b838110156200199657813586016200197b888262001a2d565b84526020840193506020830192505060018101905062001962565b5050505092915050565b600082601f830112620019b257600080fd5b8135620019c9620019c3826200249b565b62002444565b91508181835260208401935060208101905083856020840282011115620019ef57600080fd5b60005b8381101562001a23578162001a08888262001b41565b845260208401935060208301925050600181019050620019f2565b5050505092915050565b600082601f83011262001a3f57600080fd5b813562001a5662001a5082620024c4565b62002444565b9150808252602083016020830185838301111562001a7357600080fd5b62001a8083828462002647565b50505092915050565b600082601f83011262001a9b57600080fd5b813562001ab262001aac82620024f1565b62002444565b9150808252602083016020830185838301111562001acf57600080fd5b62001adc83828462002647565b50505092915050565b600082601f83011262001af757600080fd5b815162001b0e62001b0882620024f1565b62002444565b9150808252602083016020830185838301111562001b2b57600080fd5b62001b3883828462002656565b50505092915050565b60008135905062001b5281620026b7565b92915050565b60008151905062001b6981620026b7565b92915050565b60008151905062001b8081620026d1565b92915050565b60006020828403121562001b9957600080fd5b600062001ba984828501620018f5565b91505092915050565b60008060006060848603121562001bc857600080fd5b600084013567ffffffffffffffff81111562001be357600080fd5b62001bf18682870162001923565b935050602084013567ffffffffffffffff81111562001c0f57600080fd5b62001c1d86828701620019a0565b925050604084013567ffffffffffffffff81111562001c3b57600080fd5b62001c4986828701620019a0565b9150509250925092565b6000806040838503121562001c6757600080fd5b600083013567ffffffffffffffff81111562001c8257600080fd5b62001c908582860162001a89565b925050602083013567ffffffffffffffff81111562001cae57600080fd5b62001cbc8582860162001a89565b9150509250929050565b6000806040838503121562001cda57600080fd5b600083013567ffffffffffffffff81111562001cf557600080fd5b62001d038582860162001a89565b925050602062001d168582860162001b41565b9150509250929050565b60008060006060848603121562001d3657600080fd5b600084013567ffffffffffffffff81111562001d5157600080fd5b62001d5f8682870162001a89565b935050602062001d728682870162001b41565b925050604062001d8586828701620018f5565b9150509250925092565b60008060006060848603121562001da557600080fd5b600084013567ffffffffffffffff81111562001dc057600080fd5b62001dce8682870162001a89565b935050602062001de18682870162001b41565b925050604062001df48682870162001b41565b9150509250925092565b6000806000806080858703121562001e1557600080fd5b600085015167ffffffffffffffff81111562001e3057600080fd5b62001e3e8782880162001ae5565b945050602062001e518782880162001b58565b935050604062001e648782880162001b6f565b925050606062001e77878288016200190c565b91505092959194509250565b60006020828403121562001e9657600080fd5b600062001ea68482850162001b41565b91505092915050565b60006020828403121562001ec257600080fd5b600062001ed28482850162001b58565b91505092915050565b6000806000806080858703121562001ef257600080fd5b600062001f028782880162001b41565b945050602085013567ffffffffffffffff81111562001f2057600080fd5b62001f2e8782880162001a89565b935050604062001f418782880162001b41565b925050606062001f548782880162001b41565b91505092959194509250565b60008060006060848603121562001f7657600080fd5b600062001f868682870162001b41565b935050602062001f998682870162001b41565b925050604084013567ffffffffffffffff81111562001fb757600080fd5b62001fc58682870162001a89565b9150509250925092565b600062001fdd83836200215e565b905092915050565b600062001ff38383620021e0565b60208301905092915050565b6200200a81620025c8565b82525050565b60006200201d826200253e565b62002029818562002584565b9350836020820285016200203d856200251e565b8060005b858110156200207f57848403895281516200205d858262001fcf565b94506200206a836200256a565b925060208a0199505060018101905062002041565b50829750879550505050505092915050565b60006200209e8262002549565b620020aa818562002595565b9350620020b7836200252e565b8060005b83811015620020ee578151620020d2888262001fe5565b9750620020df8362002577565b925050600181019050620020bb565b5085935050505092915050565b6200210681620025dc565b82525050565b62002117816200261f565b82525050565b60006200212a826200255f565b620021368185620025b7565b93506200214881856020860162002656565b62002153816200268c565b840191505092915050565b60006200216b8262002554565b620021778185620025a6565b93506200218981856020860162002656565b62002194816200268c565b840191505092915050565b6000620021ac8262002554565b620021b88185620025b7565b9350620021ca81856020860162002656565b620021d5816200268c565b840191505092915050565b620021eb8162002608565b82525050565b620021fc8162002608565b82525050565b6200220d8162002612565b82525050565b60006020820190506200222a600083018462001fff565b92915050565b600060408201905081810360008301526200224c818562002010565b9050818103602083015262002262818462002091565b90509392505050565b6000602082019050620022826000830184620020fb565b92915050565b60006020820190506200229f60008301846200210c565b92915050565b60006080820190508181036000830152620022c181876200211d565b90508181036020830152620022d781866200211d565b90508181036040830152620022ed81856200211d565b9050620022fe606083018462002202565b95945050505050565b600060408201905081810360008301526200232381856200211d565b9050620023346020830184620021f1565b9392505050565b600060808201905081810360008301526200235781876200211d565b9050620023686020830186620021f1565b62002377604083018562002202565b62002386606083018462001fff565b95945050505050565b60006080820190508181036000830152620023ab81876200219f565b9050620023bc6020830186620021f1565b620023cb6040830185620021f1565b620023da6060830184620021f1565b95945050505050565b6000602082019050620023fa6000830184620021f1565b92915050565b6000606082019050620024176000830186620021f1565b620024266020830185620021f1565b81810360408301526200243a81846200211d565b9050949350505050565b6000604051905081810181811067ffffffffffffffff821117156200246857600080fd5b8060405250919050565b600067ffffffffffffffff8211156200248a57600080fd5b602082029050602081019050919050565b600067ffffffffffffffff821115620024b357600080fd5b602082029050602081019050919050565b600067ffffffffffffffff821115620024dc57600080fd5b601f19601f8301169050602081019050919050565b600067ffffffffffffffff8211156200250957600080fd5b601f19601f8301169050602081019050919050565b6000819050602082019050919050565b6000819050602082019050919050565b600081519050919050565b600081519050919050565b600081519050919050565b600081519050919050565b6000602082019050919050565b6000602082019050919050565b600082825260208201905092915050565b600082825260208201905092915050565b600082825260208201905092915050565b600082825260208201905092915050565b6000620025d582620025e8565b9050919050565b60008115159050919050565b600073ffffffffffffffffffffffffffffffffffffffff82169050919050565b6000819050919050565b600060ff82169050919050565b60006200262c8262002633565b9050919050565b60006200264082620025e8565b9050919050565b82818337600083830152505050565b60005b838110156200267657808201518184015260208101905062002659565b8381111562002686576000848401525b50505050565b6000601f19601f8301169050919050565b620026a881620025c8565b8114620026b457600080fd5b50565b620026c28162002608565b8114620026ce57600080fd5b50565b620026dc8162002612565b8114620026e857600080fd5b5056fe608060405234801561001057600080fd5b50604051610d61380380610d618339818101604052606081101561003357600080fd5b8101908080519060200190929190805190602001909291908051604051939291908464010000000082111561006757600080fd5b8382019150602082018581111561007d57600080fd5b825186600182028301116401000000008211171561009a57600080fd5b8083526020830192505050908051906020019080838360005b838110156100ce5780820151818401526020810190506100b3565b50505050905090810190601f1680156100fb5780820380516001836020036101000a031916815260200191505b5060405250505082600081905550806001908051906020019061011f929190610193565b506001600260006101000a81548160ff021916908360ff160217905550426003819055504260048190555032600560006101000a81548173ffffffffffffffffffffffffffffffffffffffff021916908373ffffffffffffffffffffffffffffffffffffffff160217905550505050610238565b828054600181600116156101000203166002900490600052602060002090601f016020900481019282601f106101d457805160ff1916838001178555610202565b82800160010185558215610202579182015b828111156102015782518255916020019190600101906101e6565b5b50905061020f9190610213565b5090565b61023591905b80821115610231576000816000905550600101610219565b5090565b90565b610b1a806102476000396000f3fe6080604052600436106100c25760003560e01c8063ac1717b01161007f578063c19d93fb11610059578063c19d93fb14610443578063c9d3937f14610474578063d540a0971461049f578063f9bbff6b146104b6576100c2565b8063ac1717b0146102be578063b9edb1af14610315578063bf250b961461036c576100c2565b806318cae91c146100c45780635958611e146100db5780637422485c1461010657806378e97925146101d8578063a035b1fe14610203578063a9a531e91461022e575b005b3480156100d057600080fd5b506100d961057b565b005b3480156100e757600080fd5b506100f0610659565b6040518082815260200191505060405180910390f35b34801561011257600080fd5b506101d66004803603604081101561012957600080fd5b810190808035906020019064010000000081111561014657600080fd5b82018360208201111561015857600080fd5b8035906020019184600183028401116401000000008311171561017a57600080fd5b91908080601f016020809104026020016040519081016040528093929190818152602001838380828437600081840152601f19601f8201169050808301925050505050505091929192908035906020019092919050505061065f565b005b3480156101e457600080fd5b506101ed610763565b6040518082815260200191505060405180910390f35b34801561020f57600080fd5b50610218610769565b6040518082815260200191505060405180910390f35b34801561023a57600080fd5b5061024361076f565b6040518080602001828103825283818151815260200191508051906020019080838360005b83811015610283578082015181840152602081019050610268565b50505050905090810190601f1680156102b05780820380516001836020036101000a031916815260200191505b509250505060405180910390f35b3480156102ca57600080fd5b506102d361080d565b604051808273ffffffffffffffffffffffffffffffffffffffff1673ffffffffffffffffffffffffffffffffffffffff16815260200191505060405180910390f35b34801561032157600080fd5b5061032a610833565b604051808273ffffffffffffffffffffffffffffffffffffffff1673ffffffffffffffffffffffffffffffffffffffff16815260200191505060405180910390f35b34801561037857600080fd5b50610381610859565b60405180806020018581526020018460ff1660ff1681526020018373ffffffffffffffffffffffffffffffffffffffff1673ffffffffffffffffffffffffffffffffffffffff168152602001828103825286818151815260200191508051906020019080838360005b838110156104055780820151818401526020810190506103ea565b50505050905090810190601f1680156104325780820380516001836020036101000a031916815260200191505b509550505050505060405180910390f35b34801561044f57600080fd5b50610458610942565b604051808260ff1660ff16815260200191505060405180910390f35b34801561048057600080fd5b50610489610955565b6040518082815260200191505060405180910390f35b3480156104ab57600080fd5b506104b461096f565b005b610579600480360360408110156104cc57600080fd5b81019080803590602001906401000000008111156104e957600080fd5b8201836020820111156104fb57600080fd5b8035906020019184600183028401116401000000008311171561051d57600080fd5b91908080601f016020809104026020016040519081016040528093929190818152602001838380828437600081840152601f19601f820116905080830192505050505050509192919290803590602001909291905050506109da565b005b600560009054906101000a900473ffffffffffffffffffffffffffffffffffffffff1673ffffffffffffffffffffffffffffffffffffffff166108fc600247816105c157fe5b049081150290604051600060405180830381858888f193505050501580156105ed573d6000803e3d6000fd5b50600660009054906101000a900473ffffffffffffffffffffffffffffffffffffffff1673ffffffffffffffffffffffffffffffffffffffff166108fc479081150290604051600060405180830381858888f19350505050158015610656573d6000803e3d6000fd5b50565b60045481565b60028060006101000a81548160ff021916908360ff16021790555032600660006101000a81548173ffffffffffffffffffffffffffffffffffffffff021916908373ffffffffffffffffffffffffffffffffffffffff1602179055507f5101420f8082122cde58ba322db1c300b792ffdc0f785db0c0af395b9084cb3082826040518080602001838152602001828103825284818151815260200191508051906020019080838360005b83811015610724578082015181840152602081019050610709565b50505050905090810190601f1680156107515780820380516001836020036101000a031916815260200191505b50935050505060405180910390a15050565b60035481565b60005481565b60018054600181600116156101000203166002900480601f0160208091040260200160405190810160405280929190818152602001828054600181600116156101000203166002900480156108055780601f106107da57610100808354040283529160200191610805565b820191906000526020600020905b8154815290600101906020018083116107e857829003601f168201915b505050505081565b600560009054906101000a900473ffffffffffffffffffffffffffffffffffffffff1681565b600660009054906101000a900473ffffffffffffffffffffffffffffffffffffffff1681565b606060008060006001600054600260009054906101000a900460ff16600560009054906101000a900473ffffffffffffffffffffffffffffffffffffffff16838054600181600116156101000203166002900480601f01602080910402602001604051908101604052809291908181526020018280546001816001161561010002031660029004801561092d5780601f106109025761010080835404028352916020019161092d565b820191906000526020600020905b81548152906001019060200180831161091057829003601f168201915b50505050509350935093509350935090919293565b600260009054906101000a900460ff1681565b6000600260009054906101000a900460ff1660ff16905090565b600560009054906101000a900473ffffffffffffffffffffffffffffffffffffffff1673ffffffffffffffffffffffffffffffffffffffff166108fc479081150290604051600060405180830381858888f193505050501580156109d7573d6000803e3d6000fd5b50565b3273ffffffffffffffffffffffffffffffffffffffff166108fc479081150290604051600060405180830381858888f19350505050158015610a20573d6000803e3d6000fd5b506003600260006101000a81548160ff021916908360ff1602179055507fd8de606fa64c10a177777e8976ed05a854f09171980910884dcb3c0f1bbc786f82826040518080602001838152602001828103825284818151815260200191508051906020019080838360005b83811015610aa6578082015181840152602081019050610a8b565b50505050905090810190601f168015610ad35780820380516001836020036101000a031916815260200191505b50935050505060405180910390a1505056fea265627a7a72315820e25ea6798eda7213e19a5948cb4247ca36209b4600d7e9b524909c1aba0d211264736f6c63430005100032a365627a7a7231582059159aa7918216351f2e70fc44a0f93c2ccfd203e894bf8fa6151f7742e4bab16c6578706572696d656e74616cf564736f6c63430005100040a365627a7a7231582003bb37686b58c0bea949951ae8efcaefa7fd6fd345a5270bdaba69b88d1d8daa6c6578706572696d656e74616cf564736f6c63430005100040",
  "source": "pragma solidity ^0.5.2;\r\npragma experimental ABIEncoderV2;\r\n\r\nimport \"./ChickenHouseTest.sol\";\r\n\r\n// Admin \r\ncontract AdminTest {\r\n   \r\n  ChickenHouseTest[] chickenHouses;\r\n\r\n  function() external payable {}\r\n    \r\n  mapping (string => uint) storeIndexs;\r\n  \r\n  //    \r\n  function getStoreCount() public view returns(uint256 storeCount) {\r\n    // ChickenHouseTest chickenHouse = findChickenHouse(_storeName);\r\n    return chickenHouses.length;\r\n  }\r\n  \r\n  //    \r\n  function getRoomsCount(string memory _storeName) public view returns(uint256 roomsCount) {\r\n    ChickenHouseTest chickenHouse = findChickenHouse(_storeName);\r\n    return chickenHouse.getRoomsCount();\r\n  }\r\n\r\n\r\n  //    \r\n  function findChickenHouse(string memory _storeName) public view returns(ChickenHouseTest chickenHouse) {\r\n        ChickenHouseTest chickenHouse = chickenHouses[storeIndexs[_storeName]];\r\n        return chickenHouse;\r\n  }\r\n\r\n\r\n  // ChickenHouse () \r\n  function registerChickenHouse(string memory _storeName,string memory _latitude,string memory _longitude, string[] memory _chickenNames, uint256 [] memory _prices, uint256[] memory _menuState) public {\r\n    if(chickenHouses.length ==  0){\r\n        // require(msg.sender == 0xCA35b7d915458EF540aDe6068dFe2F44E8fa733c);\r\n        ChickenHouseTest chickenHouse = new ChickenHouseTest(_storeName, _latitude, _longitude,  msg.sender);\r\n    \r\n        storeIndexs[_storeName] = chickenHouses.push(chickenHouse) - 1;\r\n         chickenHouse.registerChickenHouse(_chickenNames, _prices, _menuState);\r\n    }else{\r\n    ChickenHouseTest chickenHouse = new ChickenHouseTest(_storeName, _latitude, _longitude,  msg.sender);\r\n    \r\n    storeIndexs[_storeName] = chickenHouses.push(chickenHouse) - 1;\r\n    chickenHouse.registerChickenHouse(_chickenNames, _prices, _menuState);\r\n    }    \r\n    // 1 2 3 4 5 \r\n  }\r\n  //   ,  , state(1, 2)  \r\n   function setMenu(string memory _storeName, uint _index, string memory _chickenNames, uint256 _price, uint256 _menuState) public returns (bool ) {\r\n      ChickenHouseTest chickenHouse = findChickenHouse(_storeName);\r\n        chickenHouse.setMenu(_index, _chickenNames, _price, _menuState);\r\n\r\n      }\r\n//           \r\n      function deleteMenu(string memory _storeName, uint256 _index) public returns (bool){\r\n         ChickenHouseTest chickenHouse = findChickenHouse(_storeName);\r\n          chickenHouse.deleteMenu(_index);\r\n      }\r\n  //  \r\n  function createRoom(string memory _storeName, uint256 _price, uint256 _finish, string memory _chickenName) public payable {\r\n    // chickenHouse  storeName !\r\n    ChickenHouseTest chickenHouse = findChickenHouse(_storeName);  \r\n    // address(uint160(address(chickenHouse))).transfer(msg.value); // msg.value :   \r\n    chickenHouse.createRoom.value(msg.value)(_price, _finish, _chickenName);\r\n  }\r\n  \r\n  //  Match \r\n function matchRoom(string memory _storeName, uint256 _roomIndex) public payable {\r\n    //    \r\n    ChickenHouseTest chickenHouse = findChickenHouse(_storeName);\r\n    // address(uint160(address(chickenHouse))).transfer(msg.value);\r\n    chickenHouse.matchRoom.value(msg.value)(_storeName, _roomIndex);\r\n  }\r\n\r\n  //   \r\n  function approveOrder(string memory _storeName , uint256 _roomIndex) public {\r\n    //    _storeName   _roomNumber    \r\n    ChickenHouseTest chickenHouse = findChickenHouse(_storeName);\r\n    chickenHouse.approveOrder(_storeName , _roomIndex, msg.sender);\r\n  }\r\n\r\n function getBalanceOfRoom(uint256 _storeIndex, uint256 _roomIndex) public view\r\n    returns (uint256 balance)\r\n  {\r\n    ChickenHouseTest chickenHouse = chickenHouses[_storeIndex];\r\n    return chickenHouse.getBalance(_roomIndex);\r\n  }\r\n\r\n  function getStateRoom(uint256 _storeIndex, uint256 _roomIndex)\r\n    public\r\n    view\r\n    returns (uint256 state)\r\n  {\r\n    return 0;\r\n    //ChickenHouseTest chickenHouse = chickenHouses[_storeIndex];\r\n    //return chickenHouse.getStateRoom(_roomIndex);\r\n  }\r\n\r\n  // 2.      ?\r\n    function getChickenHouse(string memory _storeName) public view returns(\r\n      string memory storeName, \r\n      string memory latitude, \r\n      string memory longitude, \r\n      uint8 closed){\r\n        ChickenHouseTest chickenHouse = findChickenHouse(_storeName);\r\n        return chickenHouse.getChickenHouse();\r\n    }\r\n\r\n  // 2.2     ?\r\n    function getChickenHouse2(uint256 _storeIndex) public view returns(\r\n      string memory storeName, \r\n      string memory latitude, \r\n      string memory longitude, \r\n      uint8 closed){\r\n        ChickenHouseTest chickenHouse = chickenHouses[_storeIndex];\r\n        return chickenHouse.getChickenHouse2();\r\n    }\r\n\r\n\r\n    // 2.5    ?\r\n    function getStoreMenu(string memory _storeName)\r\n        public\r\n        view\r\n        returns (string[] memory chickens, uint256[] memory prices)\r\n    {\r\n        ChickenHouseTest chickenHouse = chickenHouses[storeIndexs[_storeName]];\r\n        return chickenHouse.getStoreMenu();\r\n    }\r\n\r\n  // 3.    ?\r\n    function getRoomInfo(string memory _storeName, uint256 _roomIndex) public view returns(string memory chicken, uint256 price, uint8 state, address user1){\r\n        ChickenHouseTest chickenHouse = findChickenHouse(_storeName);\r\n         return chickenHouse.getRoomInfo(_roomIndex);\r\n    }\r\n  \r\n\r\n  // onOff  \r\n   function changeOnOff(string memory _storeName) public {\r\n      ChickenHouseTest chickenHouse = findChickenHouse(_storeName);\r\n          chickenHouse.changeOnOff();\r\n   }\r\n\r\n  //    \r\n   function addOneMenu(string memory _storeName, string memory _chickenName, uint256 _price, uint256 _menuState) public {\r\n    ChickenHouseTest chickenHouse = findChickenHouse(_storeName);\r\n    chickenHouse.addOneMenu(_chickenName, _price, _menuState);  \r\n  }\r\n\r\n  //    \r\n  // function changeStoreName(string memory _storeName, string memory _changeName) public {\r\n  //   ChickenHouseTest chickenHouse = findChickenHouse(_storeName);\r\n  //     chickenHouse.changeStoreName(_changeName);\r\n  // }\r\n\r\n  // location  \r\n    function changeLocation(string memory _storeName, string memory _longitude, string memory _latitude) public {\r\n      ChickenHouseTest chickenHouse = findChickenHouse(_storeName);\r\n        chickenHouse.changeLocation(_longitude, _latitude);\r\n    }\r\n\r\n  // user1      \r\n    function refund1(string memory _storeName, uint256 _roomIndex) public {\r\n      ChickenHouseTest chickenHouse = findChickenHouse(_storeName);\r\n      chickenHouse.refund1(_roomIndex);\r\n    }\r\n\r\n  // user1 user2  \r\n    function refund2(string memory _storeName, uint256 _roomIndex) public {\r\n      ChickenHouseTest chickenHouse = findChickenHouse(_storeName);\r\n      chickenHouse.refund2(_roomIndex);\r\n    }   \r\n\r\n}\r\n",
  "sourcePath": "C:\\Users\\admin\\gitFolder\\chainserver\\contracts\\AdminTest.sol",
  "compiler": {
    "name": "solc",
    "version": "0.5.16+commit.9c3226ce.Emscripten.clang"
  },
  "schemaVersion": "3.4.3",
  "updatedAt": "2021-09-28T13:27:17.615Z",
  "networkType": "ethereum",
  "devdoc": {
    "methods": {}
  },
  "userdoc": {
    "methods": {}
  }
}