{
  "contractName": "AdminTest",
  "abi": [
    {
      "payable": true,
      "stateMutability": "payable",
      "type": "fallback"
    },
    {
      "constant": true,
      "inputs": [],
      "name": "getStoreCount",
      "outputs": [
        {
          "internalType": "uint256",
          "name": "storeCount",
          "type": "uint256"
        }
      ],
      "payable": false,
      "stateMutability": "view",
      "type": "function"
    },
    {
      "constant": true,
      "inputs": [
        {
          "internalType": "string",
          "name": "_storeName",
          "type": "string"
        }
      ],
      "name": "getRoomsCount",
      "outputs": [
        {
          "internalType": "uint256",
          "name": "roomsCount",
          "type": "uint256"
        }
      ],
      "payable": false,
      "stateMutability": "view",
      "type": "function"
    },
    {
      "constant": true,
      "inputs": [
        {
          "internalType": "string",
          "name": "_storeName",
          "type": "string"
        }
      ],
      "name": "findChickenHouse",
      "outputs": [
        {
          "internalType": "contract ChickenHouseTest",
          "name": "chickenHouse",
          "type": "address"
        }
      ],
      "payable": false,
      "stateMutability": "view",
      "type": "function"
    },
    {
      "constant": false,
      "inputs": [
        {
          "internalType": "string",
          "name": "_storeName",
          "type": "string"
        },
        {
          "internalType": "string",
          "name": "_latitude",
          "type": "string"
        },
        {
          "internalType": "string",
          "name": "_longitude",
          "type": "string"
        },
        {
          "internalType": "string[]",
          "name": "_chickenNames",
          "type": "string[]"
        },
        {
          "internalType": "uint256[]",
          "name": "_prices",
          "type": "uint256[]"
        },
        {
          "internalType": "uint256[]",
          "name": "_menuState",
          "type": "uint256[]"
        }
      ],
      "name": "registerChickenHouse",
      "outputs": [],
      "payable": false,
      "stateMutability": "nonpayable",
      "type": "function"
    },
    {
      "constant": false,
      "inputs": [
        {
          "internalType": "string",
          "name": "_storeName",
          "type": "string"
        },
        {
          "internalType": "uint256",
          "name": "_index",
          "type": "uint256"
        },
        {
          "internalType": "string",
          "name": "_chickenNames",
          "type": "string"
        },
        {
          "internalType": "uint256",
          "name": "_price",
          "type": "uint256"
        },
        {
          "internalType": "uint256",
          "name": "_menuState",
          "type": "uint256"
        }
      ],
      "name": "setMenu",
      "outputs": [
        {
          "internalType": "bool",
          "name": "",
          "type": "bool"
        }
      ],
      "payable": false,
      "stateMutability": "nonpayable",
      "type": "function"
    },
    {
      "constant": false,
      "inputs": [
        {
          "internalType": "string",
          "name": "_storeName",
          "type": "string"
        },
        {
          "internalType": "uint256",
          "name": "_index",
          "type": "uint256"
        }
      ],
      "name": "deleteMenu",
      "outputs": [
        {
          "internalType": "bool",
          "name": "",
          "type": "bool"
        }
      ],
      "payable": false,
      "stateMutability": "nonpayable",
      "type": "function"
    },
    {
      "constant": false,
      "inputs": [
        {
          "internalType": "string",
          "name": "_storeName",
          "type": "string"
        },
        {
          "internalType": "uint256",
          "name": "_price",
          "type": "uint256"
        },
        {
          "internalType": "uint256",
          "name": "_finish",
          "type": "uint256"
        },
        {
          "internalType": "string",
          "name": "_chickenName",
          "type": "string"
        }
      ],
      "name": "createRoom",
      "outputs": [],
      "payable": true,
      "stateMutability": "payable",
      "type": "function"
    },
    {
      "constant": false,
      "inputs": [
        {
          "internalType": "string",
          "name": "_storeName",
          "type": "string"
        },
        {
          "internalType": "uint256",
          "name": "_roomIndex",
          "type": "uint256"
        }
      ],
      "name": "matchRoom",
      "outputs": [],
      "payable": true,
      "stateMutability": "payable",
      "type": "function"
    },
    {
      "constant": false,
      "inputs": [
        {
          "internalType": "string",
          "name": "_storeName",
          "type": "string"
        },
        {
          "internalType": "uint256",
          "name": "_roomIndex",
          "type": "uint256"
        }
      ],
      "name": "approveOrder",
      "outputs": [],
      "payable": false,
      "stateMutability": "nonpayable",
      "type": "function"
    },
    {
      "constant": true,
      "inputs": [
        {
          "internalType": "uint256",
          "name": "_storeIndex",
          "type": "uint256"
        },
        {
          "internalType": "uint256",
          "name": "_roomIndex",
          "type": "uint256"
        }
      ],
      "name": "getBalanceOfRoom",
      "outputs": [
        {
          "internalType": "uint256",
          "name": "balance",
          "type": "uint256"
        }
      ],
      "payable": false,
      "stateMutability": "view",
      "type": "function"
    },
    {
      "constant": true,
      "inputs": [
        {
          "internalType": "uint256",
          "name": "_storeIndex",
          "type": "uint256"
        },
        {
          "internalType": "uint256",
          "name": "_roomIndex",
          "type": "uint256"
        }
      ],
      "name": "getStateRoom",
      "outputs": [
        {
          "internalType": "uint256",
          "name": "state",
          "type": "uint256"
        }
      ],
      "payable": false,
      "stateMutability": "view",
      "type": "function"
    },
    {
      "constant": true,
      "inputs": [
        {
          "internalType": "string",
          "name": "_storeName",
          "type": "string"
        }
      ],
      "name": "getChickenHouse",
      "outputs": [
        {
          "internalType": "string",
          "name": "storeName",
          "type": "string"
        },
        {
          "internalType": "string",
          "name": "latitude",
          "type": "string"
        },
        {
          "internalType": "string",
          "name": "longitude",
          "type": "string"
        },
        {
          "internalType": "uint8",
          "name": "closed",
          "type": "uint8"
        }
      ],
      "payable": false,
      "stateMutability": "view",
      "type": "function"
    },
    {
      "constant": true,
      "inputs": [
        {
          "internalType": "uint256",
          "name": "_storeIndex",
          "type": "uint256"
        }
      ],
      "name": "getChickenHouse2",
      "outputs": [
        {
          "internalType": "string",
          "name": "storeName",
          "type": "string"
        },
        {
          "internalType": "string",
          "name": "latitude",
          "type": "string"
        },
        {
          "internalType": "string",
          "name": "longitude",
          "type": "string"
        },
        {
          "internalType": "uint8",
          "name": "closed",
          "type": "uint8"
        }
      ],
      "payable": false,
      "stateMutability": "view",
      "type": "function"
    },
    {
      "constant": true,
      "inputs": [
        {
          "internalType": "string",
          "name": "_storeName",
          "type": "string"
        }
      ],
      "name": "getStoreMenu",
      "outputs": [
        {
          "internalType": "string[]",
          "name": "chickens",
          "type": "string[]"
        },
        {
          "internalType": "uint256[]",
          "name": "prices",
          "type": "uint256[]"
        }
      ],
      "payable": false,
      "stateMutability": "view",
      "type": "function"
    },
    {
      "constant": true,
      "inputs": [
        {
          "internalType": "string",
          "name": "_storeName",
          "type": "string"
        },
        {
          "internalType": "uint256",
          "name": "_roomIndex",
          "type": "uint256"
        }
      ],
      "name": "getRoomInfo",
      "outputs": [
        {
          "internalType": "string",
          "name": "chicken",
          "type": "string"
        },
        {
          "internalType": "uint256",
          "name": "price",
          "type": "uint256"
        },
        {
          "internalType": "uint8",
          "name": "state",
          "type": "uint8"
        },
        {
          "internalType": "address",
          "name": "user1",
          "type": "address"
        }
      ],
      "payable": false,
      "stateMutability": "view",
      "type": "function"
    },
    {
      "constant": false,
      "inputs": [
        {
          "internalType": "string",
          "name": "_storeName",
          "type": "string"
        }
      ],
      "name": "changeOnOff",
      "outputs": [],
      "payable": false,
      "stateMutability": "nonpayable",
      "type": "function"
    },
    {
      "constant": false,
      "inputs": [
        {
          "internalType": "string",
          "name": "_storeName",
          "type": "string"
        },
        {
          "internalType": "string",
          "name": "_chickenName",
          "type": "string"
        },
        {
          "internalType": "uint256",
          "name": "_price",
          "type": "uint256"
        },
        {
          "internalType": "uint256",
          "name": "_menuState",
          "type": "uint256"
        }
      ],
      "name": "addOneMenu",
      "outputs": [],
      "payable": false,
      "stateMutability": "nonpayable",
      "type": "function"
    },
    {
      "constant": false,
      "inputs": [
        {
          "internalType": "string",
          "name": "_storeName",
          "type": "string"
        },
        {
          "internalType": "string",
          "name": "_longitude",
          "type": "string"
        },
        {
          "internalType": "string",
          "name": "_latitude",
          "type": "string"
        }
      ],
      "name": "changeLocation",
      "outputs": [],
      "payable": false,
      "stateMutability": "nonpayable",
      "type": "function"
    },
    {
      "constant": false,
      "inputs": [
        {
          "internalType": "string",
          "name": "_storeName",
          "type": "string"
        },
        {
          "internalType": "uint256",
          "name": "_roomIndex",
          "type": "uint256"
        }
      ],
      "name": "refund1",
      "outputs": [],
      "payable": false,
      "stateMutability": "nonpayable",
      "type": "function"
    }
  ],
  "bytecode": "0x608060405234801561001057600080fd5b50615d9e806100206000396000f3fe6080604052600436106200012e5760003560e01c8063827bc52e11620000af578063bed33666116200006d578063bed33666146200043d578063d52933d11462000481578063e050d63414620004af578063f35f69f814620004f4578063f9bbff6b1462000538576200012e565b8063827bc52e146200033457806398e8bd971462000354578063b06bb1301462000384578063b226ef0914620003cb578063b4cc2bc614620003f9576200012e565b8063551bfcbb11620000fd578063551bfcbb14620002145780635554c32c146200025b5780637422485c146200028957806374db003914620002a95780638251090014620002ed576200012e565b806304893236146200013057806310d6a38b1462000174578063427fae8814620001a257806350c6627314620001d0575b005b3480156200013d57600080fd5b506200015c6004803603620001569190810190620015d5565b62000566565b6040516200016b919062001f14565b60405180910390f35b3480156200018157600080fd5b50620001a060048036036200019a91908101906200189e565b620005cd565b005b348015620001af57600080fd5b50620001ce6004803603620001c891908101906200161a565b62000656565b005b348015620001dd57600080fd5b50620001fc6004803603620001f6919081019062001bc5565b620006dc565b6040516200020b9190620020fc565b60405180910390f35b3480156200022157600080fd5b506200024060048036036200023a919081019062001b6d565b620006e7565b60405162000252949392919062001fce565b60405180910390f35b3480156200026857600080fd5b50620002876004803603620002819190810190620015d5565b620007c1565b005b620002a76004803603620002a191908101906200193c565b62000836565b005b348015620002b657600080fd5b50620002d56004803603620002cf919081019062001bc5565b62000903565b604051620002e49190620020fc565b60405180910390f35b348015620002fa57600080fd5b506200031960048036036200031391908101906200193c565b620009d9565b6040516200032b9493929190620020a8565b60405180910390f35b6200035260048036036200034c919081019062001a4a565b62000a94565b005b3480156200036157600080fd5b506200036c62000b1e565b6040516200037b9190620020fc565b60405180910390f35b3480156200039157600080fd5b50620003b06004803603620003aa9190810190620015d5565b62000b2a565b604051620003c2949392919062001fce565b60405180910390f35b348015620003d857600080fd5b50620003f76004803603620003f19190810190620016bb565b62000bd6565b005b3480156200040657600080fd5b506200042560048036036200041f919081019062001996565b62000d44565b60405162000434919062001ef7565b60405180910390f35b3480156200044a57600080fd5b506200046960048036036200046391908101906200193c565b62000df6565b60405162000478919062001ef7565b60405180910390f35b3480156200048e57600080fd5b50620004ad6004803603620004a791908101906200193c565b62000e9f565b005b348015620004bc57600080fd5b50620004db6004803603620004d59190810190620015d5565b62000f22565b604051620004eb92919062001e6a565b60405180910390f35b3480156200050157600080fd5b506200052060048036036200051a9190810190620015d5565b62001012565b6040516200052f9190620020fc565b60405180910390f35b3480156200054557600080fd5b506200056460048036036200055e91908101906200193c565b620010ac565b005b60008060006001846040516200057d919062001e51565b908152602001604051809103902054815481106200059757fe5b9060005260206000200160009054906101000a900473ffffffffffffffffffffffffffffffffffffffff16905080915050919050565b6000620005da8562000566565b90508073ffffffffffffffffffffffffffffffffffffffff1663367bc1cd8585856040518463ffffffff1660e01b81526004016200061b9392919062002064565b600060405180830381600087803b1580156200063657600080fd5b505af11580156200064b573d6000803e3d6000fd5b505050505050505050565b6000620006638462000566565b90508073ffffffffffffffffffffffffffffffffffffffff1663f889fc0184846040518363ffffffff1660e01b8152600401620006a292919062001f31565b600060405180830381600087803b158015620006bd57600080fd5b505af1158015620006d2573d6000803e3d6000fd5b5050505050505050565b600080905092915050565b606080606060008060008681548110620006fd57fe5b9060005260206000200160009054906101000a900473ffffffffffffffffffffffffffffffffffffffff1690508073ffffffffffffffffffffffffffffffffffffffff166385b5c4b16040518163ffffffff1660e01b815260040160006040518083038186803b1580156200077157600080fd5b505afa15801562000786573d6000803e3d6000fd5b505050506040513d6000823e3d601f19601f82011682018060405250620007b19190810190620017e7565b9450945094509450509193509193565b6000620007ce8262000566565b90508073ffffffffffffffffffffffffffffffffffffffff1663ecf668666040518163ffffffff1660e01b8152600401600060405180830381600087803b1580156200081957600080fd5b505af11580156200082e573d6000803e3d6000fd5b505050505050565b6000620008438362000566565b90508073ffffffffffffffffffffffffffffffffffffffff166108fc349081150290604051600060405180830381858888f193505050501580156200088c573d6000803e3d6000fd5b508073ffffffffffffffffffffffffffffffffffffffff16637422485c84846040518363ffffffff1660e01b8152600401620008ca92919062002030565b600060405180830381600087803b158015620008e557600080fd5b505af1158015620008fa573d6000803e3d6000fd5b50505050505050565b600080600084815481106200091457fe5b9060005260206000200160009054906101000a900473ffffffffffffffffffffffffffffffffffffffff1690508073ffffffffffffffffffffffffffffffffffffffff16631e010439846040518263ffffffff1660e01b81526004016200097c9190620020fc565b60206040518083038186803b1580156200099557600080fd5b505afa158015620009aa573d6000803e3d6000fd5b505050506040513d601f19601f82011682018060405250620009d0919081019062001b99565b91505092915050565b6060600080600080620009ec8762000566565b90508073ffffffffffffffffffffffffffffffffffffffff16636790d2b5876040518263ffffffff1660e01b815260040162000a299190620020fc565b60006040518083038186803b15801562000a4257600080fd5b505afa15801562000a57573d6000803e3d6000fd5b505050506040513d6000823e3d601f19601f8201168201806040525062000a82919081019062001ae8565b94509450945094505092959194509250565b600062000aa18562000566565b90508073ffffffffffffffffffffffffffffffffffffffff166380f56840348686866040518563ffffffff1660e01b815260040162000ae3939291906200216d565b6000604051808303818588803b15801562000afd57600080fd5b505af115801562000b12573d6000803e3d6000fd5b50505050505050505050565b60008080549050905090565b606080606060008062000b3d8662000566565b90508073ffffffffffffffffffffffffffffffffffffffff1663a71045f16040518163ffffffff1660e01b815260040160006040518083038186803b15801562000b8657600080fd5b505afa15801562000b9b573d6000803e3d6000fd5b505050506040513d6000823e3d601f19601f8201168201806040525062000bc69190810190620017e7565b9450945094509450509193509193565b60008686863360405162000bea9062001131565b62000bf9949392919062001f6c565b604051809103906000f08015801562000c16573d6000803e3d6000fd5b5090508073ffffffffffffffffffffffffffffffffffffffff16632e639dbb8585856040518463ffffffff1660e01b815260040162000c589392919062001ea5565b602060405180830381600087803b15801562000c7357600080fd5b505af115801562000c88573d6000803e3d6000fd5b505050506040513d601f19601f8201168201806040525062000cae919081019062001b99565b50600160008290806001815401808255809150509060018203906000526020600020016000909192909190916101000a81548173ffffffffffffffffffffffffffffffffffffffff021916908373ffffffffffffffffffffffffffffffffffffffff1602179055500360018860405162000d29919062001e51565b90815260200160405180910390208190555050505050505050565b60008062000d528762000566565b90508073ffffffffffffffffffffffffffffffffffffffff166312561e61878787876040518563ffffffff1660e01b815260040162000d95949392919062002119565b602060405180830381600087803b15801562000db057600080fd5b505af115801562000dc5573d6000803e3d6000fd5b505050506040513d601f19601f8201168201806040525062000deb9190810190620015a9565b505095945050505050565b60008062000e048462000566565b90508073ffffffffffffffffffffffffffffffffffffffff1663c2519ac3846040518263ffffffff1660e01b815260040162000e419190620020fc565b602060405180830381600087803b15801562000e5c57600080fd5b505af115801562000e71573d6000803e3d6000fd5b505050506040513d601f19601f8201168201806040525062000e979190810190620015a9565b505092915050565b600062000eac8362000566565b90508073ffffffffffffffffffffffffffffffffffffffff16631dca91bf836040518263ffffffff1660e01b815260040162000ee99190620020fc565b600060405180830381600087803b15801562000f0457600080fd5b505af115801562000f19573d6000803e3d6000fd5b50505050505050565b60608060008060018560405162000f3a919062001e51565b9081526020016040518091039020548154811062000f5457fe5b9060005260206000200160009054906101000a900473ffffffffffffffffffffffffffffffffffffffff1690508073ffffffffffffffffffffffffffffffffffffffff166316f9c96d6040518163ffffffff1660e01b815260040160006040518083038186803b15801562000fc857600080fd5b505afa15801562000fdd573d6000803e3d6000fd5b505050506040513d6000823e3d601f19601f8201168201806040525062001008919081019062001536565b9250925050915091565b600080620010208362000566565b90508073ffffffffffffffffffffffffffffffffffffffff166328822bde6040518163ffffffff1660e01b815260040160206040518083038186803b1580156200106957600080fd5b505afa1580156200107e573d6000803e3d6000fd5b505050506040513d601f19601f82011682018060405250620010a4919081019062001b99565b915050919050565b6000620010b98362000566565b90508073ffffffffffffffffffffffffffffffffffffffff1663f9bbff6b84846040518363ffffffff1660e01b8152600401620010f892919062002030565b600060405180830381600087803b1580156200111357600080fd5b505af115801562001128573d6000803e3d6000fd5b50505050505050565b6138a280620024ba83390190565b600081519050620011508162002451565b92915050565b600082601f8301126200116857600080fd5b81356200117f6200117982620021df565b620021b1565b9150818183526020840193506020810190508360005b83811015620011c95781358601620011ae888262001381565b84526020840193506020830192505060018101905062001195565b5050505092915050565b600082601f830112620011e557600080fd5b8151620011fc620011f682620021df565b620021b1565b9150818183526020840193506020810190508360005b838110156200124657815186016200122b8882620013dd565b84526020840193506020830192505060018101905062001212565b5050505092915050565b600082601f8301126200126257600080fd5b813562001279620012738262002208565b620021b1565b915081818352602084019350602081019050838560208402820111156200129f57600080fd5b60005b83811015620012d35781620012b88882620014f1565b845260208401935060208301925050600181019050620012a2565b5050505092915050565b600082601f830112620012ef57600080fd5b815162001306620013008262002208565b620021b1565b915081818352602084019350602081019050838560208402820111156200132c57600080fd5b60005b8381101562001360578162001345888262001508565b8452602084019350602083019250506001810190506200132f565b5050505092915050565b6000815190506200137b816200246b565b92915050565b600082601f8301126200139357600080fd5b8135620013aa620013a48262002231565b620021b1565b91508082526020830160208301858383011115620013c757600080fd5b620013d4838284620023fb565b50505092915050565b600082601f830112620013ef57600080fd5b815162001406620014008262002231565b620021b1565b915080825260208301602083018583830111156200142357600080fd5b620014308382846200240a565b50505092915050565b600082601f8301126200144b57600080fd5b8135620014626200145c826200225e565b620021b1565b915080825260208301602083018583830111156200147f57600080fd5b6200148c838284620023fb565b50505092915050565b600082601f830112620014a757600080fd5b8151620014be620014b8826200225e565b620021b1565b91508082526020830160208301858383011115620014db57600080fd5b620014e88382846200240a565b50505092915050565b600081359050620015028162002485565b92915050565b600081519050620015198162002485565b92915050565b60008151905062001530816200249f565b92915050565b600080604083850312156200154a57600080fd5b600083015167ffffffffffffffff8111156200156557600080fd5b6200157385828601620011d3565b925050602083015167ffffffffffffffff8111156200159157600080fd5b6200159f85828601620012dd565b9150509250929050565b600060208284031215620015bc57600080fd5b6000620015cc848285016200136a565b91505092915050565b600060208284031215620015e857600080fd5b600082013567ffffffffffffffff8111156200160357600080fd5b620016118482850162001439565b91505092915050565b6000806000606084860312156200163057600080fd5b600084013567ffffffffffffffff8111156200164b57600080fd5b620016598682870162001439565b935050602084013567ffffffffffffffff8111156200167757600080fd5b620016858682870162001439565b925050604084013567ffffffffffffffff811115620016a357600080fd5b620016b18682870162001439565b9150509250925092565b60008060008060008060c08789031215620016d557600080fd5b600087013567ffffffffffffffff811115620016f057600080fd5b620016fe89828a0162001439565b965050602087013567ffffffffffffffff8111156200171c57600080fd5b6200172a89828a0162001439565b955050604087013567ffffffffffffffff8111156200174857600080fd5b6200175689828a0162001439565b945050606087013567ffffffffffffffff8111156200177457600080fd5b6200178289828a0162001156565b935050608087013567ffffffffffffffff811115620017a057600080fd5b620017ae89828a0162001250565b92505060a087013567ffffffffffffffff811115620017cc57600080fd5b620017da89828a0162001250565b9150509295509295509295565b60008060008060808587031215620017fe57600080fd5b600085015167ffffffffffffffff8111156200181957600080fd5b620018278782880162001495565b945050602085015167ffffffffffffffff8111156200184557600080fd5b620018538782880162001495565b935050604085015167ffffffffffffffff8111156200187157600080fd5b6200187f8782880162001495565b925050606062001892878288016200151f565b91505092959194509250565b60008060008060808587031215620018b557600080fd5b600085013567ffffffffffffffff811115620018d057600080fd5b620018de8782880162001439565b945050602085013567ffffffffffffffff811115620018fc57600080fd5b6200190a8782880162001439565b93505060406200191d87828801620014f1565b92505060606200193087828801620014f1565b91505092959194509250565b600080604083850312156200195057600080fd5b600083013567ffffffffffffffff8111156200196b57600080fd5b620019798582860162001439565b92505060206200198c85828601620014f1565b9150509250929050565b600080600080600060a08688031215620019af57600080fd5b600086013567ffffffffffffffff811115620019ca57600080fd5b620019d88882890162001439565b9550506020620019eb88828901620014f1565b945050604086013567ffffffffffffffff81111562001a0957600080fd5b62001a178882890162001439565b935050606062001a2a88828901620014f1565b925050608062001a3d88828901620014f1565b9150509295509295909350565b6000806000806080858703121562001a6157600080fd5b600085013567ffffffffffffffff81111562001a7c57600080fd5b62001a8a8782880162001439565b945050602062001a9d87828801620014f1565b935050604062001ab087828801620014f1565b925050606085013567ffffffffffffffff81111562001ace57600080fd5b62001adc8782880162001439565b91505092959194509250565b6000806000806080858703121562001aff57600080fd5b600085015167ffffffffffffffff81111562001b1a57600080fd5b62001b288782880162001495565b945050602062001b3b8782880162001508565b935050604062001b4e878288016200151f565b925050606062001b61878288016200113f565b91505092959194509250565b60006020828403121562001b8057600080fd5b600062001b9084828501620014f1565b91505092915050565b60006020828403121562001bac57600080fd5b600062001bbc8482850162001508565b91505092915050565b6000806040838503121562001bd957600080fd5b600062001be985828601620014f1565b925050602062001bfc85828601620014f1565b9150509250929050565b600062001c14838362001ddd565b905092915050565b600062001c2a838362001e1e565b60208301905092915050565b62001c418162002397565b82525050565b62001c528162002340565b82525050565b600062001c6582620022ab565b62001c718185620022f1565b93508360208202850162001c85856200228b565b8060005b8581101562001cc7578484038952815162001ca5858262001c06565b945062001cb283620022d7565b925060208a0199505060018101905062001c89565b50829750879550505050505092915050565b600062001ce682620022b6565b62001cf2818562002302565b935062001cff836200229b565b8060005b8381101562001d3657815162001d1a888262001c1c565b975062001d2783620022e4565b92505060018101905062001d03565b5085935050505092915050565b62001d4e8162002354565b82525050565b62001d5f81620023ab565b82525050565b600062001d7282620022cc565b62001d7e818562002324565b935062001d908185602086016200240a565b62001d9b8162002440565b840191505092915050565b600062001db382620022cc565b62001dbf818562002335565b935062001dd18185602086016200240a565b80840191505092915050565b600062001dea82620022c1565b62001df6818562002313565b935062001e088185602086016200240a565b62001e138162002440565b840191505092915050565b62001e298162002380565b82525050565b62001e3a8162002380565b82525050565b62001e4b816200238a565b82525050565b600062001e5f828462001da6565b915081905092915050565b6000604082019050818103600083015262001e86818562001c58565b9050818103602083015262001e9c818462001cd9565b90509392505050565b6000606082019050818103600083015262001ec1818662001c58565b9050818103602083015262001ed7818562001cd9565b9050818103604083015262001eed818462001cd9565b9050949350505050565b600060208201905062001f0e600083018462001d43565b92915050565b600060208201905062001f2b600083018462001d54565b92915050565b6000604082019050818103600083015262001f4d818562001d65565b9050818103602083015262001f63818462001d65565b90509392505050565b6000608082019050818103600083015262001f88818762001d65565b9050818103602083015262001f9e818662001d65565b9050818103604083015262001fb4818562001d65565b905062001fc5606083018462001c36565b95945050505050565b6000608082019050818103600083015262001fea818762001d65565b9050818103602083015262002000818662001d65565b9050818103604083015262002016818562001d65565b905062002027606083018462001e40565b95945050505050565b600060408201905081810360008301526200204c818562001d65565b90506200205d602083018462001e2f565b9392505050565b6000606082019050818103600083015262002080818662001d65565b905062002091602083018562001e2f565b620020a0604083018462001e2f565b949350505050565b60006080820190508181036000830152620020c4818762001d65565b9050620020d5602083018662001e2f565b620020e4604083018562001e40565b620020f3606083018462001c47565b95945050505050565b600060208201905062002113600083018462001e2f565b92915050565b600060808201905062002130600083018762001e2f565b818103602083015262002144818662001d65565b905062002155604083018562001e2f565b62002164606083018462001e2f565b95945050505050565b600060608201905062002184600083018662001e2f565b62002193602083018562001e2f565b8181036040830152620021a7818462001d65565b9050949350505050565b6000604051905081810181811067ffffffffffffffff82111715620021d557600080fd5b8060405250919050565b600067ffffffffffffffff821115620021f757600080fd5b602082029050602081019050919050565b600067ffffffffffffffff8211156200222057600080fd5b602082029050602081019050919050565b600067ffffffffffffffff8211156200224957600080fd5b601f19601f8301169050602081019050919050565b600067ffffffffffffffff8211156200227657600080fd5b601f19601f8301169050602081019050919050565b6000819050602082019050919050565b6000819050602082019050919050565b600081519050919050565b600081519050919050565b600081519050919050565b600081519050919050565b6000602082019050919050565b6000602082019050919050565b600082825260208201905092915050565b600082825260208201905092915050565b600082825260208201905092915050565b600082825260208201905092915050565b600081905092915050565b60006200234d8262002360565b9050919050565b60008115159050919050565b600073ffffffffffffffffffffffffffffffffffffffff82169050919050565b6000819050919050565b600060ff82169050919050565b6000620023a482620023d3565b9050919050565b6000620023b882620023bf565b9050919050565b6000620023cc8262002360565b9050919050565b6000620023e082620023e7565b9050919050565b6000620023f48262002360565b9050919050565b82818337600083830152505050565b60005b838110156200242a5780820151818401526020810190506200240d565b838111156200243a576000848401525b50505050565b6000601f19601f8301169050919050565b6200245c8162002340565b81146200246857600080fd5b50565b620024768162002354565b81146200248257600080fd5b50565b620024908162002380565b81146200249c57600080fd5b50565b620024aa816200238a565b8114620024b657600080fd5b5056fe60806040526000600360006101000a81548160ff021916908360ff16021790555060006007553480156200003257600080fd5b50604051620038a2380380620038a283398181016040526200005891908101906200028d565b80806000806101000a81548173ffffffffffffffffffffffffffffffffffffffff021916908373ffffffffffffffffffffffffffffffffffffffff1602179055506000809054906101000a900473ffffffffffffffffffffffffffffffffffffffff1673ffffffffffffffffffffffffffffffffffffffff16600073ffffffffffffffffffffffffffffffffffffffff167f8be0079c531659141344cd1fd0a4f28419497f9722a3daafe3b4186f6b6457e060405160405180910390a35083600290805190602001906200012e9291906200016b565b508260049080519060200190620001479291906200016b565b508160059080519060200190620001609291906200016b565b505050505062000423565b828054600181600116156101000203166002900490600052602060002090601f016020900481019282601f10620001ae57805160ff1916838001178555620001df565b82800160010185558215620001df579182015b82811115620001de578251825591602001919060010190620001c1565b5b509050620001ee9190620001f2565b5090565b6200021791905b8082111562000213576000816000905550600101620001f9565b5090565b90565b6000815190506200022b8162000409565b92915050565b600082601f8301126200024357600080fd5b81516200025a620002548262000372565b62000344565b915080825260208301602083018583830111156200027757600080fd5b62000284838284620003d3565b50505092915050565b60008060008060808587031215620002a457600080fd5b600085015167ffffffffffffffff811115620002bf57600080fd5b620002cd8782880162000231565b945050602085015167ffffffffffffffff811115620002eb57600080fd5b620002f98782880162000231565b935050604085015167ffffffffffffffff8111156200031757600080fd5b620003258782880162000231565b925050606062000338878288016200021a565b91505092959194509250565b6000604051905081810181811067ffffffffffffffff821117156200036857600080fd5b8060405250919050565b600067ffffffffffffffff8211156200038a57600080fd5b601f19601f8301169050602081019050919050565b6000620003ac82620003b3565b9050919050565b600073ffffffffffffffffffffffffffffffffffffffff82169050919050565b60005b83811015620003f3578082015181840152602081019050620003d6565b8381111562000403576000848401525b50505050565b62000414816200039f565b81146200042057600080fd5b50565b61346f80620004336000396000f3fe6080604052600436106200015e5760003560e01c80637422485c11620000c7578063c2519ac31162000079578063c2519ac314620004db578063d27989ba146200051f578063ecf668661462000563578063f2fde38b146200057d578063f889fc0114620005ab578063f9bbff6b14620005d9576200015e565b80637422485c14620003d557806380f5684014620003f557806385b5c4b114620004155780638da5cb5b14620004485780638f32d59b1462000478578063a71045f114620004a8576200015e565b806328822bde116200012157806328822bde146200028b5780632e639dbb14620002bb578063367bc1cd14620002ff5780636790d2b5146200032d5780636fe66b031462000374578063715018a614620003bb576200015e565b806312561e61146200016057806316f9c96d14620001a45780631dca91bf14620001d55780631e010439146200020357806321058e811462000247575b005b3480156200016d57600080fd5b506200018c600480360362000186919081019062001fed565b62000607565b6040516200019b91906200237d565b60405180910390f35b348015620001b157600080fd5b50620001bc620006a1565b604051620001cc92919062002342565b60405180910390f35b348015620001e257600080fd5b50620002016004803603620001fb919081019062001f95565b6200085a565b005b3480156200021057600080fd5b506200022f600480360362000229919081019062001f95565b620008cf565b6040516200023e9190620024f5565b60405180910390f35b3480156200025457600080fd5b506200027360048036036200026d919081019062001f95565b620008ff565b6040516200028291906200239a565b60405180910390f35b3480156200029857600080fd5b50620002a362000946565b604051620002b29190620024f5565b60405180910390f35b348015620002c857600080fd5b50620002e76004803603620002e1919081019062001d33565b62000953565b604051620002f69190620024f5565b60405180910390f35b3480156200030c57600080fd5b506200032b600480360362000325919081019062001ea1565b62000a5c565b005b3480156200033a57600080fd5b5062000359600480360362000353919081019062001f95565b62000af7565b6040516200036b94939291906200244d565b60405180910390f35b3480156200038157600080fd5b50620003a060048036036200039a919081019062001f95565b62000ba3565b604051620003b29493929190620024a1565b60405180910390f35b348015620003c857600080fd5b50620003d362000c7d565b005b620003f36004803603620003ed919081019062001e47565b62000d50565b005b6200041360048036036200040d919081019062002072565b62000e1d565b005b3480156200042257600080fd5b506200042d62000f24565b6040516200043f9493929190620023b7565b60405180910390f35b3480156200045557600080fd5b50620004606200112f565b6040516200046f919062002325565b60405180910390f35b3480156200048557600080fd5b506200049062001158565b6040516200049f91906200237d565b60405180910390f35b348015620004b557600080fd5b50620004c0620011af565b604051620004d29493929190620023b7565b60405180910390f35b348015620004e857600080fd5b5062000507600480360362000501919081019062001f95565b620013ba565b6040516200051691906200237d565b60405180910390f35b3480156200052c57600080fd5b506200054b600480360362000545919081019062001f95565b620014d9565b6040516200055a9190620024f5565b60405180910390f35b3480156200057057600080fd5b506200057b62001573565b005b3480156200058a57600080fd5b50620005a96004803603620005a3919081019062001d07565b620015ed565b005b348015620005b857600080fd5b50620005d76004803603620005d1919081019062001dd4565b6200160f565b005b348015620005e657600080fd5b50620006056004803603620005ff919081019062001e47565b62001645565b005b600060068054905085106200061b57600080fd5b83600686815481106200062a57fe5b9060005260206000209060040201600001908051906020019062000650929190620017d7565b5082600686815481106200066057fe5b90600052602060002090600402016001018190555081600686815481106200068457fe5b906000526020600020906004020160020181905550949350505050565b6060806060600680549050604051908082528060200260200182016040528015620006e157816020015b6060815260200190600190039081620006cb5790505b50905060606006805490506040519080825280602002602001820160405280156200071b5781602001602082028038833980820191505090505b50905060008090505b6006805490508110156200084d57600681815481106200074057fe5b90600052602060002090600402016000018054600181600116156101000203166002900480601f016020809104026020016040519081016040528092919081815260200182805460018160011615610100020316600290048015620007e95780601f10620007bd57610100808354040283529160200191620007e9565b820191906000526020600020905b815481529060010190602001808311620007cb57829003601f168201915b5050505050838281518110620007fb57fe5b6020026020010181905250600681815481106200081457fe5b9060005260206000209060040201600101548282815181106200083357fe5b602002602001018181525050808060010191505062000724565b5081819350935050509091565b60006200086782620008ff565b90508073ffffffffffffffffffffffffffffffffffffffff1663d540a0976040518163ffffffff1660e01b8152600401600060405180830381600087803b158015620008b257600080fd5b505af1158015620008c7573d6000803e3d6000fd5b505050505050565b600080620008dd83620008ff565b90508073ffffffffffffffffffffffffffffffffffffffff1631915050919050565b600080600183815481106200091057fe5b9060005260206000200160009054906101000a900473ffffffffffffffffffffffffffffffffffffffff16905080915050919050565b6000600180549050905090565b600082518451146200096457600080fd5b60008090505b845181101562000a4c57600660405180608001604052808784815181106200098e57fe5b60200260200101518152602001868481518110620009a857fe5b60200260200101518152602001858481518110620009c257fe5b602002602001015181526020018381525090806001815401808255809150509060018203906000526020600020906004020160009091929091909150600082015181600001908051906020019062000a1c9291906200185e565b5060208201518160010155604082015181600201556060820151816003015550505080806001019150506200096a565b5060068054905090509392505050565b6006604051806080016040528085815260200184815260200183815260200160016006805490500381525090806001815401808255809150509060018203906000526020600020906004020160009091929091909150600082015181600001908051906020019062000ad09291906200185e565b50602082015181600101556040820151816002015560608201518160030155505050505050565b606060008060008062000b0a86620008ff565b90508073ffffffffffffffffffffffffffffffffffffffff1663bf250b966040518163ffffffff1660e01b815260040160006040518083038186803b15801562000b5357600080fd5b505afa15801562000b68573d6000803e3d6000fd5b505050506040513d6000823e3d601f19601f8201168201806040525062000b93919081019062001f10565b9450945094509450509193509193565b6006818154811062000bb157fe5b9060005260206000209060040201600091509050806000018054600181600116156101000203166002900480601f01602080910402602001604051908101604052809291908181526020018280546001816001161561010002031660029004801562000c615780601f1062000c355761010080835404028352916020019162000c61565b820191906000526020600020905b81548152906001019060200180831162000c4357829003601f168201915b5050505050908060010154908060020154908060030154905084565b62000c8762001158565b62000c9157600080fd5b600073ffffffffffffffffffffffffffffffffffffffff166000809054906101000a900473ffffffffffffffffffffffffffffffffffffffff1673ffffffffffffffffffffffffffffffffffffffff167f8be0079c531659141344cd1fd0a4f28419497f9722a3daafe3b4186f6b6457e060405160405180910390a360008060006101000a81548173ffffffffffffffffffffffffffffffffffffffff021916908373ffffffffffffffffffffffffffffffffffffffff160217905550565b600062000d5d82620008ff565b90508073ffffffffffffffffffffffffffffffffffffffff166108fc479081150290604051600060405180830381858888f1935050505015801562000da6573d6000803e3d6000fd5b508073ffffffffffffffffffffffffffffffffffffffff16637422485c84846040518363ffffffff1660e01b815260040162000de492919062002419565b600060405180830381600087803b15801562000dff57600080fd5b505af115801562000e14573d6000803e3d6000fd5b50505050505050565b600083838360405162000e3090620018e5565b62000e3e9392919062002512565b604051809103906000f08015801562000e5b573d6000803e3d6000fd5b50905060018190806001815401808255809150509060018203906000526020600020016000909192909190916101000a81548173ffffffffffffffffffffffffffffffffffffffff021916908373ffffffffffffffffffffffffffffffffffffffff160217905550508073ffffffffffffffffffffffffffffffffffffffff166108fc349081150290604051600060405180830381858888f1935050505015801562000f0b573d6000803e3d6000fd5b5060076000815480929190600101919050555050505050565b60608060606000600260046005600360009054906101000a900460ff16838054600181600116156101000203166002900480601f01602080910402602001604051908101604052809291908181526020018280546001816001161561010002031660029004801562000fda5780601f1062000fae5761010080835404028352916020019162000fda565b820191906000526020600020905b81548152906001019060200180831162000fbc57829003601f168201915b50505050509350828054600181600116156101000203166002900480601f0160208091040260200160405190810160405280929190818152602001828054600181600116156101000203166002900480156200107a5780601f106200104e576101008083540402835291602001916200107a565b820191906000526020600020905b8154815290600101906020018083116200105c57829003601f168201915b50505050509250818054600181600116156101000203166002900480601f0160208091040260200160405190810160405280929190818152602001828054600181600116156101000203166002900480156200111a5780601f10620010ee576101008083540402835291602001916200111a565b820191906000526020600020905b815481529060010190602001808311620010fc57829003601f168201915b50505050509150935093509350935090919293565b60008060009054906101000a900473ffffffffffffffffffffffffffffffffffffffff16905090565b60008060009054906101000a900473ffffffffffffffffffffffffffffffffffffffff1673ffffffffffffffffffffffffffffffffffffffff163373ffffffffffffffffffffffffffffffffffffffff1614905090565b60608060606000600260046005600360009054906101000a900460ff16838054600181600116156101000203166002900480601f016020809104026020016040519081016040528092919081815260200182805460018160011615610100020316600290048015620012655780601f10620012395761010080835404028352916020019162001265565b820191906000526020600020905b8154815290600101906020018083116200124757829003601f168201915b50505050509350828054600181600116156101000203166002900480601f016020809104026020016040519081016040528092919081815260200182805460018160011615610100020316600290048015620013055780601f10620012d95761010080835404028352916020019162001305565b820191906000526020600020905b815481529060010190602001808311620012e757829003601f168201915b50505050509250818054600181600116156101000203166002900480601f016020809104026020016040519081016040528092919081815260200182805460018160011615610100020316600290048015620013a55780601f106200137957610100808354040283529160200191620013a5565b820191906000526020600020905b8154815290600101906020018083116200138757829003601f168201915b50505050509150935093509350935090919293565b6000600660016006805490500381548110620013d257fe5b906000526020600020906004020160068381548110620013ee57fe5b90600052602060002090600402016000820181600001908054600181600116156101000203166002900462001425929190620018f3565b5060018201548160010155600282015481600201556003820154816003015590505081600683815481106200145657fe5b9060005260206000209060040201600301819055506006600160068054905003815481106200148157fe5b906000526020600020906004020160008082016000620014a2919062001981565b60018201600090556002820160009055600382016000905550506006805480919060019003620014d39190620019cd565b50919050565b600080620014e783620008ff565b90508073ffffffffffffffffffffffffffffffffffffffff1663c9d3937f6040518163ffffffff1660e01b815260040160206040518083038186803b1580156200153057600080fd5b505afa15801562001545573d6000803e3d6000fd5b505050506040513d601f19601f820116820180604052506200156b919081019062001fc1565b915050919050565b6000600360009054906101000a900460ff1660ff161415620015b1576001600360006101000a81548160ff021916908360ff160217905550620015eb565b6001600360009054906101000a900460ff1660ff161415620015ea576000600360006101000a81548160ff021916908360ff1602179055505b5b565b620015f762001158565b6200160157600080fd5b6200160c81620016de565b50565b816005908051906020019062001627929190620017d7565b50806004908051906020019062001640929190620017d7565b505050565b6200164f62001158565b6200165957600080fd5b60006200166682620008ff565b90508073ffffffffffffffffffffffffffffffffffffffff1663f9bbff6b84846040518363ffffffff1660e01b8152600401620016a592919062002419565b600060405180830381600087803b158015620016c057600080fd5b505af1158015620016d5573d6000803e3d6000fd5b50505050505050565b600073ffffffffffffffffffffffffffffffffffffffff168173ffffffffffffffffffffffffffffffffffffffff1614156200171957600080fd5b8073ffffffffffffffffffffffffffffffffffffffff166000809054906101000a900473ffffffffffffffffffffffffffffffffffffffff1673ffffffffffffffffffffffffffffffffffffffff167f8be0079c531659141344cd1fd0a4f28419497f9722a3daafe3b4186f6b6457e060405160405180910390a3806000806101000a81548173ffffffffffffffffffffffffffffffffffffffff021916908373ffffffffffffffffffffffffffffffffffffffff16021790555050565b828054600181600116156101000203166002900490600052602060002090601f016020900481019282601f106200181a57805160ff19168380011785556200184b565b828001600101855582156200184b579182015b828111156200184a5782518255916020019190600101906200182d565b5b5090506200185a919062001a02565b5090565b828054600181600116156101000203166002900490600052602060002090601f016020900481019282601f10620018a157805160ff1916838001178555620018d2565b82800160010185558215620018d2579182015b82811115620018d1578251825591602001919060010190620018b4565b5b509050620018e1919062001a02565b5090565b610c2f80620027fe83390190565b828054600181600116156101000203166002900490600052602060002090601f016020900481019282601f106200192e57805485556200196e565b828001600101855582156200196e57600052602060002091601f016020900482015b828111156200196d57825482559160010191906001019062001950565b5b5090506200197d919062001a02565b5090565b50805460018160011615610100020316600290046000825580601f10620019a95750620019ca565b601f016020900490600052602060002090810190620019c9919062001a02565b5b50565b815481835581811115620019fd57600402816004028360005260206000209182019101620019fc919062001a2a565b5b505050565b62001a2791905b8082111562001a2357600081600090555060010162001a09565b5090565b90565b62001a7391905b8082111562001a6f576000808201600062001a4d919062001981565b6001820160009055600282016000905560038201600090555060040162001a31565b5090565b90565b60008135905062001a8781620027af565b92915050565b60008151905062001a9e81620027af565b92915050565b600082601f83011262001ab657600080fd5b813562001acd62001ac78262002584565b62002556565b9150818183526020840193506020810190508360005b8381101562001b17578135860162001afc888262001bae565b84526020840193506020830192505060018101905062001ae3565b5050505092915050565b600082601f83011262001b3357600080fd5b813562001b4a62001b4482620025ad565b62002556565b9150818183526020840193506020810190508385602084028201111562001b7057600080fd5b60005b8381101562001ba4578162001b89888262001cc2565b84526020840193506020830192505060018101905062001b73565b5050505092915050565b600082601f83011262001bc057600080fd5b813562001bd762001bd182620025d6565b62002556565b9150808252602083016020830185838301111562001bf457600080fd5b62001c0183828462002759565b50505092915050565b600082601f83011262001c1c57600080fd5b813562001c3362001c2d8262002603565b62002556565b9150808252602083016020830185838301111562001c5057600080fd5b62001c5d83828462002759565b50505092915050565b600082601f83011262001c7857600080fd5b815162001c8f62001c898262002603565b62002556565b9150808252602083016020830185838301111562001cac57600080fd5b62001cb983828462002768565b50505092915050565b60008135905062001cd381620027c9565b92915050565b60008151905062001cea81620027c9565b92915050565b60008151905062001d0181620027e3565b92915050565b60006020828403121562001d1a57600080fd5b600062001d2a8482850162001a76565b91505092915050565b60008060006060848603121562001d4957600080fd5b600084013567ffffffffffffffff81111562001d6457600080fd5b62001d728682870162001aa4565b935050602084013567ffffffffffffffff81111562001d9057600080fd5b62001d9e8682870162001b21565b925050604084013567ffffffffffffffff81111562001dbc57600080fd5b62001dca8682870162001b21565b9150509250925092565b6000806040838503121562001de857600080fd5b600083013567ffffffffffffffff81111562001e0357600080fd5b62001e118582860162001c0a565b925050602083013567ffffffffffffffff81111562001e2f57600080fd5b62001e3d8582860162001c0a565b9150509250929050565b6000806040838503121562001e5b57600080fd5b600083013567ffffffffffffffff81111562001e7657600080fd5b62001e848582860162001c0a565b925050602062001e978582860162001cc2565b9150509250929050565b60008060006060848603121562001eb757600080fd5b600084013567ffffffffffffffff81111562001ed257600080fd5b62001ee08682870162001c0a565b935050602062001ef38682870162001cc2565b925050604062001f068682870162001cc2565b9150509250925092565b6000806000806080858703121562001f2757600080fd5b600085015167ffffffffffffffff81111562001f4257600080fd5b62001f508782880162001c66565b945050602062001f638782880162001cd9565b935050604062001f768782880162001cf0565b925050606062001f898782880162001a8d565b91505092959194509250565b60006020828403121562001fa857600080fd5b600062001fb88482850162001cc2565b91505092915050565b60006020828403121562001fd457600080fd5b600062001fe48482850162001cd9565b91505092915050565b600080600080608085870312156200200457600080fd5b6000620020148782880162001cc2565b945050602085013567ffffffffffffffff8111156200203257600080fd5b620020408782880162001c0a565b9350506040620020538782880162001cc2565b9250506060620020668782880162001cc2565b91505092959194509250565b6000806000606084860312156200208857600080fd5b6000620020988682870162001cc2565b9350506020620020ab8682870162001cc2565b925050604084013567ffffffffffffffff811115620020c957600080fd5b620020d78682870162001c0a565b9150509250925092565b6000620020ef838362002270565b905092915050565b6000620021058383620022f2565b60208301905092915050565b6200211c81620026da565b82525050565b60006200212f8262002650565b6200213b818562002696565b9350836020820285016200214f8562002630565b8060005b858110156200219157848403895281516200216f8582620020e1565b94506200217c836200267c565b925060208a0199505060018101905062002153565b50829750879550505050505092915050565b6000620021b0826200265b565b620021bc8185620026a7565b9350620021c98362002640565b8060005b8381101562002200578151620021e48882620020f7565b9750620021f18362002689565b925050600181019050620021cd565b5085935050505092915050565b6200221881620026ee565b82525050565b620022298162002731565b82525050565b60006200223c8262002671565b620022488185620026c9565b93506200225a81856020860162002768565b62002265816200279e565b840191505092915050565b60006200227d8262002666565b620022898185620026b8565b93506200229b81856020860162002768565b620022a6816200279e565b840191505092915050565b6000620022be8262002666565b620022ca8185620026c9565b9350620022dc81856020860162002768565b620022e7816200279e565b840191505092915050565b620022fd816200271a565b82525050565b6200230e816200271a565b82525050565b6200231f8162002724565b82525050565b60006020820190506200233c600083018462002111565b92915050565b600060408201905081810360008301526200235e818562002122565b90508181036020830152620023748184620021a3565b90509392505050565b60006020820190506200239460008301846200220d565b92915050565b6000602082019050620023b160008301846200221e565b92915050565b60006080820190508181036000830152620023d381876200222f565b90508181036020830152620023e981866200222f565b90508181036040830152620023ff81856200222f565b905062002410606083018462002314565b95945050505050565b600060408201905081810360008301526200243581856200222f565b905062002446602083018462002303565b9392505050565b600060808201905081810360008301526200246981876200222f565b90506200247a602083018662002303565b62002489604083018562002314565b62002498606083018462002111565b95945050505050565b60006080820190508181036000830152620024bd8187620022b1565b9050620024ce602083018662002303565b620024dd604083018562002303565b620024ec606083018462002303565b95945050505050565b60006020820190506200250c600083018462002303565b92915050565b600060608201905062002529600083018662002303565b62002538602083018562002303565b81810360408301526200254c81846200222f565b9050949350505050565b6000604051905081810181811067ffffffffffffffff821117156200257a57600080fd5b8060405250919050565b600067ffffffffffffffff8211156200259c57600080fd5b602082029050602081019050919050565b600067ffffffffffffffff821115620025c557600080fd5b602082029050602081019050919050565b600067ffffffffffffffff821115620025ee57600080fd5b601f19601f8301169050602081019050919050565b600067ffffffffffffffff8211156200261b57600080fd5b601f19601f8301169050602081019050919050565b6000819050602082019050919050565b6000819050602082019050919050565b600081519050919050565b600081519050919050565b600081519050919050565b600081519050919050565b6000602082019050919050565b6000602082019050919050565b600082825260208201905092915050565b600082825260208201905092915050565b600082825260208201905092915050565b600082825260208201905092915050565b6000620026e782620026fa565b9050919050565b60008115159050919050565b600073ffffffffffffffffffffffffffffffffffffffff82169050919050565b6000819050919050565b600060ff82169050919050565b60006200273e8262002745565b9050919050565b60006200275282620026fa565b9050919050565b82818337600083830152505050565b60005b83811015620027885780820151818401526020810190506200276b565b8381111562002798576000848401525b50505050565b6000601f19601f8301169050919050565b620027ba81620026da565b8114620027c657600080fd5b50565b620027d4816200271a565b8114620027e057600080fd5b50565b620027ee8162002724565b8114620027fa57600080fd5b5056fe608060405234801561001057600080fd5b50604051610c2f380380610c2f8339818101604052606081101561003357600080fd5b8101908080519060200190929190805190602001909291908051604051939291908464010000000082111561006757600080fd5b8382019150602082018581111561007d57600080fd5b825186600182028301116401000000008211171561009a57600080fd5b8083526020830192505050908051906020019080838360005b838110156100ce5780820151818401526020810190506100b3565b50505050905090810190601f1680156100fb5780820380516001836020036101000a031916815260200191505b5060405250505082600081905550806001908051906020019061011f929190610193565b506001600260006101000a81548160ff021916908360ff160217905550426003819055504260048190555032600560006101000a81548173ffffffffffffffffffffffffffffffffffffffff021916908373ffffffffffffffffffffffffffffffffffffffff160217905550505050610238565b828054600181600116156101000203166002900490600052602060002090601f016020900481019282601f106101d457805160ff1916838001178555610202565b82800160010185558215610202579182015b828111156102015782518255916020019190600101906101e6565b5b50905061020f9190610213565b5090565b61023591905b80821115610231576000816000905550600101610219565b5090565b90565b6109e8806102476000396000f3fe6080604052600436106100a75760003560e01c8063b9edb1af11610064578063b9edb1af146102e3578063bf250b961461033a578063c19d93fb14610411578063c9d3937f14610442578063d540a0971461046d578063f9bbff6b14610484576100a7565b80635958611e146100a95780637422485c146100d457806378e97925146101a6578063a035b1fe146101d1578063a9a531e9146101fc578063ac1717b01461028c575b005b3480156100b557600080fd5b506100be610549565b6040518082815260200191505060405180910390f35b3480156100e057600080fd5b506101a4600480360360408110156100f757600080fd5b810190808035906020019064010000000081111561011457600080fd5b82018360208201111561012657600080fd5b8035906020019184600183028401116401000000008311171561014857600080fd5b91908080601f016020809104026020016040519081016040528093929190818152602001838380828437600081840152601f19601f8201169050808301925050505050505091929192908035906020019092919050505061054f565b005b3480156101b257600080fd5b506101bb610653565b6040518082815260200191505060405180910390f35b3480156101dd57600080fd5b506101e6610659565b6040518082815260200191505060405180910390f35b34801561020857600080fd5b5061021161065f565b6040518080602001828103825283818151815260200191508051906020019080838360005b83811015610251578082015181840152602081019050610236565b50505050905090810190601f16801561027e5780820380516001836020036101000a031916815260200191505b509250505060405180910390f35b34801561029857600080fd5b506102a16106fd565b604051808273ffffffffffffffffffffffffffffffffffffffff1673ffffffffffffffffffffffffffffffffffffffff16815260200191505060405180910390f35b3480156102ef57600080fd5b506102f8610723565b604051808273ffffffffffffffffffffffffffffffffffffffff1673ffffffffffffffffffffffffffffffffffffffff16815260200191505060405180910390f35b34801561034657600080fd5b5061034f610749565b60405180806020018581526020018460ff1660ff1681526020018373ffffffffffffffffffffffffffffffffffffffff1673ffffffffffffffffffffffffffffffffffffffff168152602001828103825286818151815260200191508051906020019080838360005b838110156103d35780820151818401526020810190506103b8565b50505050905090810190601f1680156104005780820380516001836020036101000a031916815260200191505b509550505050505060405180910390f35b34801561041d57600080fd5b50610426610832565b604051808260ff1660ff16815260200191505060405180910390f35b34801561044e57600080fd5b50610457610845565b6040518082815260200191505060405180910390f35b34801561047957600080fd5b5061048261085f565b005b6105476004803603604081101561049a57600080fd5b81019080803590602001906401000000008111156104b757600080fd5b8201836020820111156104c957600080fd5b803590602001918460018302840111640100000000831117156104eb57600080fd5b91908080601f016020809104026020016040519081016040528093929190818152602001838380828437600081840152601f19601f820116905080830192505050505050509192919290803590602001909291905050506108a8565b005b60045481565b60028060006101000a81548160ff021916908360ff16021790555032600660006101000a81548173ffffffffffffffffffffffffffffffffffffffff021916908373ffffffffffffffffffffffffffffffffffffffff1602179055507f5101420f8082122cde58ba322db1c300b792ffdc0f785db0c0af395b9084cb3082826040518080602001838152602001828103825284818151815260200191508051906020019080838360005b838110156106145780820151818401526020810190506105f9565b50505050905090810190601f1680156106415780820380516001836020036101000a031916815260200191505b50935050505060405180910390a15050565b60035481565b60005481565b60018054600181600116156101000203166002900480601f0160208091040260200160405190810160405280929190818152602001828054600181600116156101000203166002900480156106f55780601f106106ca576101008083540402835291602001916106f5565b820191906000526020600020905b8154815290600101906020018083116106d857829003601f168201915b505050505081565b600560009054906101000a900473ffffffffffffffffffffffffffffffffffffffff1681565b600660009054906101000a900473ffffffffffffffffffffffffffffffffffffffff1681565b606060008060006001600054600260009054906101000a900460ff16600560009054906101000a900473ffffffffffffffffffffffffffffffffffffffff16838054600181600116156101000203166002900480601f01602080910402602001604051908101604052809291908181526020018280546001816001161561010002031660029004801561081d5780601f106107f25761010080835404028352916020019161081d565b820191906000526020600020905b81548152906001019060200180831161080057829003601f168201915b50505050509350935093509350935090919293565b600260009054906101000a900460ff1681565b6000600260009054906101000a900460ff1660ff16905090565b3273ffffffffffffffffffffffffffffffffffffffff166108fc479081150290604051600060405180830381858888f193505050501580156108a5573d6000803e3d6000fd5b50565b3273ffffffffffffffffffffffffffffffffffffffff166108fc479081150290604051600060405180830381858888f193505050501580156108ee573d6000803e3d6000fd5b506003600260006101000a81548160ff021916908360ff1602179055507fd8de606fa64c10a177777e8976ed05a854f09171980910884dcb3c0f1bbc786f82826040518080602001838152602001828103825284818151815260200191508051906020019080838360005b83811015610974578082015181840152602081019050610959565b50505050905090810190601f1680156109a15780820380516001836020036101000a031916815260200191505b50935050505060405180910390a1505056fea265627a7a72315820a5504cf0f3fac98e78ae6af4ceff8952b9efbd898cacbd5fd1fba325e310a59864736f6c63430005100032a365627a7a723158200115e92547be8e148ed81e5c816e77c6a626c0bc381ee8c60d96fc674c56472e6c6578706572696d656e74616cf564736f6c63430005100040a365627a7a72315820b3d0bebcf588b817990775afe0813944419e98fbadd476c7a5926a734e858e5b6c6578706572696d656e74616cf564736f6c63430005100040",
  "source": "pragma solidity ^0.5.2;\npragma experimental ABIEncoderV2;\n\nimport \"./ChickenHouseTest.sol\";\n\n// Admin \ncontract AdminTest {\n   \n  ChickenHouseTest[] chickenHouses;\n\n  function() external payable {}\n\n  mapping (string => uint) storeIndexs;\n  \n  //    \n  function getStoreCount() public view returns(uint256 storeCount) {\n    // ChickenHouseTest chickenHouse = findChickenHouse(_storeName);\n    return chickenHouses.length;\n  }\n  \n  //    \n  function getRoomsCount(string memory _storeName) public view returns(uint256 roomsCount) {\n    ChickenHouseTest chickenHouse = findChickenHouse(_storeName);\n    return chickenHouse.getRoomsCount();\n  }\n\n\n  //    \n  function findChickenHouse(string memory _storeName) public view returns(ChickenHouseTest chickenHouse) {\n        ChickenHouseTest chickenHouse = chickenHouses[storeIndexs[_storeName]];\n        return chickenHouse;\n  }\n\n\n  // ChickenHouse () \n  function registerChickenHouse(string memory _storeName,string memory _latitude,string memory _longitude, string[] memory _chickenNames, uint256 [] memory _prices, uint256[] memory _menuState) public {\n    ChickenHouseTest chickenHouse = new ChickenHouseTest(_storeName, _latitude, _longitude,  msg.sender);\n    chickenHouse.registerChickenHouse(_chickenNames, _prices, _menuState);\n    storeIndexs[_storeName] = (chickenHouses.push(chickenHouse)) - 1;\n    \n  }\n  //   ,  , state(1, 2)  \n   function setMenu(string memory _storeName, uint _index, string memory _chickenNames, uint256 _price, uint256 _menuState) public returns (bool ) {\n      ChickenHouseTest chickenHouse = findChickenHouse(_storeName);\n        chickenHouse.setMenu(_index, _chickenNames, _price, _menuState);\n\n      }\n//           \n      function deleteMenu(string memory _storeName, uint256 _index) public returns (bool){\n         ChickenHouseTest chickenHouse = findChickenHouse(_storeName);\n          chickenHouse.deleteMenu(_index);\n      }\n  //  \n  function createRoom(string memory _storeName, uint256 _price, uint256 _finish, string memory _chickenName) public payable {\n    // chickenHouse  storeName !\n    ChickenHouseTest chickenHouse = findChickenHouse(_storeName);  \n    // address(uint160(address(chickenHouse))).transfer(msg.value); // msg.value :   \n    chickenHouse.createRoom.value(msg.value)(_price, _finish, _chickenName);\n  }\n  \n  //  Match \n function matchRoom(string memory _storeName, uint256 _roomIndex) public payable {\n    //    \n    ChickenHouseTest chickenHouse = findChickenHouse(_storeName);\n    address(uint160(address(chickenHouse))).transfer(msg.value);\n    chickenHouse.matchRoom(_storeName, _roomIndex);\n  }\n\n  //   \n  function approveOrder(string memory _storeName , uint256 _roomIndex) public {\n    //    _storeName   _roomNumber    \n    ChickenHouseTest chickenHouse = findChickenHouse(_storeName);\n    chickenHouse.approveOrder(_storeName , _roomIndex);\n  }\n\n function getBalanceOfRoom(uint256 _storeIndex, uint256 _roomIndex) public view\n    returns (uint256 balance)\n  {\n    ChickenHouseTest chickenHouse = chickenHouses[_storeIndex];\n    return chickenHouse.getBalance(_roomIndex);\n  }\n\n  function getStateRoom(uint256 _storeIndex, uint256 _roomIndex)\n    public\n    view\n    returns (uint256 state)\n  {\n    return 0;\n    //ChickenHouseTest chickenHouse = chickenHouses[_storeIndex];\n    //return chickenHouse.getStateRoom(_roomIndex);\n  }\n\n  // 2.      ?\n    function getChickenHouse(string memory _storeName) public view returns(\n      string memory storeName, \n      string memory latitude, \n      string memory longitude, \n      uint8 closed){\n        ChickenHouseTest chickenHouse = findChickenHouse(_storeName);\n        return chickenHouse.getChickenHouse();\n    }\n\n  // 2.2     ?\n    function getChickenHouse2(uint256 _storeIndex) public view returns(\n      string memory storeName, \n      string memory latitude, \n      string memory longitude, \n      uint8 closed){\n        ChickenHouseTest chickenHouse = chickenHouses[_storeIndex];\n        return chickenHouse.getChickenHouse2();\n    }\n\n\n    // 2.5    ?\n    function getStoreMenu(string memory _storeName)\n        public\n        view\n        returns (string[] memory chickens, uint256[] memory prices)\n    {\n        ChickenHouseTest chickenHouse = chickenHouses[storeIndexs[_storeName]];\n        return chickenHouse.getStoreMenu();\n    }\n\n  // 3.    ?\n    function getRoomInfo(string memory _storeName, uint256 _roomIndex) public view returns(string memory chicken, uint256 price, uint8 state, address user1){\n        ChickenHouseTest chickenHouse = findChickenHouse(_storeName);\n         return chickenHouse.getRoomInfo(_roomIndex);\n    }\n  \n\n  // onOff  \n   function changeOnOff(string memory _storeName) public {\n      ChickenHouseTest chickenHouse = findChickenHouse(_storeName);\n          chickenHouse.changeOnOff();\n   }\n\n  //    \n   function addOneMenu(string memory _storeName, string memory _chickenName, uint256 _price, uint256 _menuState) public {\n    ChickenHouseTest chickenHouse = findChickenHouse(_storeName);\n    chickenHouse.addOneMenu(_chickenName, _price, _menuState);  \n  }\n\n  //    \n  // function changeStoreName(string memory _storeName, string memory _changeName) public {\n  //   ChickenHouseTest chickenHouse = findChickenHouse(_storeName);\n  //     chickenHouse.changeStoreName(_changeName);\n  // }\n\n  // location  \n    function changeLocation(string memory _storeName, string memory _longitude, string memory _latitude) public {\n      ChickenHouseTest chickenHouse = findChickenHouse(_storeName);\n        chickenHouse.changeLocation(_longitude, _latitude);\n    }\n\n  // user1      \n    function refund1(string memory _storeName, uint256 _roomIndex) public {\n      ChickenHouseTest chickenHouse = findChickenHouse(_storeName);\n      chickenHouse.refund1(_roomIndex);\n    }\n\n  // user1 user2       \n    // function refund1(string memory _storeName, uint256 _roomIndex) public {\n    //   ChickenHouseTest chickenHouse = findChickenHouse(_storeName);\n    //   chickenHouse.refund1(_roomIndex);\n    // }   \n\n}\n",
  "sourcePath": "/Users/sangilmo/GITHUB/fn-final/chainserver/contracts/AdminTest.sol",
  "compiler": {
    "name": "solc",
    "version": "0.5.16+commit.9c3226ce.Emscripten.clang"
  },
  "schemaVersion": "3.4.3",
  "updatedAt": "2021-09-23T05:09:57.262Z",
  "networkType": "ethereum",
  "devdoc": {
    "methods": {}
  },
  "userdoc": {
    "methods": {}
  }
}