{
  "contractName": "AdminTest",
  "abi": [
    {
      "constant": false,
      "inputs": [],
      "name": "registerChickenHouse",
      "outputs": [],
      "payable": false,
      "stateMutability": "nonpayable",
      "type": "function"
    },
    {
      "constant": false,
      "inputs": [
        {
          "internalType": "uint256",
          "name": "storeName",
          "type": "uint256"
        }
      ],
      "name": "createRoom",
      "outputs": [],
      "payable": true,
      "stateMutability": "payable",
      "type": "function"
    },
    {
      "constant": true,
      "inputs": [
        {
          "internalType": "uint256",
          "name": "storeName",
          "type": "uint256"
        },
        {
          "internalType": "uint256",
          "name": "roomNumber",
          "type": "uint256"
        }
      ],
      "name": "getBalanceOfRomm",
      "outputs": [
        {
          "internalType": "uint256",
          "name": "",
          "type": "uint256"
        }
      ],
      "payable": false,
      "stateMutability": "view",
      "type": "function"
    }
  ],
  "bytecode": "0x608060405234801561001057600080fd5b50610674806100206000396000f3fe6080604052600436106100345760003560e01c8063a4b994c314610039578063bbba825714610050578063fc38ebba1461007e575b600080fd5b34801561004557600080fd5b5061004e6100d7565b005b61007c6004803603602081101561006657600080fd5b810190808035906020019092919050505061016d565b005b34801561008a57600080fd5b506100c1600480360360408110156100a157600080fd5b810190808035906020019092919080359060200190929190505050610253565b6040518082815260200191505060405180910390f35b60006040516100e590610325565b604051809103906000f080158015610101573d6000803e3d6000fd5b50905060008190806001815401808255809150509060018203906000526020600020016000909192909190916101000a81548173ffffffffffffffffffffffffffffffffffffffff021916908373ffffffffffffffffffffffffffffffffffffffff1602179055505050565b600080828154811061017b57fe5b9060005260206000200160009054906101000a900473ffffffffffffffffffffffffffffffffffffffff1690508073ffffffffffffffffffffffffffffffffffffffff166108fc349081150290604051600060405180830381858888f193505050501580156101ee573d6000803e3d6000fd5b508073ffffffffffffffffffffffffffffffffffffffff16633be272aa6040518163ffffffff1660e01b8152600401600060405180830381600087803b15801561023757600080fd5b505af115801561024b573d6000803e3d6000fd5b505050505050565b6000806000848154811061026357fe5b9060005260206000200160009054906101000a900473ffffffffffffffffffffffffffffffffffffffff1690508073ffffffffffffffffffffffffffffffffffffffff16631e010439846040518263ffffffff1660e01b81526004018082815260200191505060206040518083038186803b1580156102e157600080fd5b505afa1580156102f5573d6000803e3d6000fd5b505050506040513d602081101561030b57600080fd5b810190808051906020019092919050505091505092915050565b61030d806103338339019056fe608060405234801561001057600080fd5b506102ed806100206000396000f3fe6080604052600436106100295760003560e01c80631e0104391461002b5780633be272aa1461007a575b005b34801561003757600080fd5b506100646004803603602081101561004e57600080fd5b8101908080359060200190929190505050610091565b6040518082815260200191505060405180910390f35b34801561008657600080fd5b5061008f6100ee565b005b600080600083815481106100a157fe5b9060005260206000200160009054906101000a900473ffffffffffffffffffffffffffffffffffffffff1690508073ffffffffffffffffffffffffffffffffffffffff1631915050919050565b60006040516100fc906101cc565b604051809103906000f080158015610118573d6000803e3d6000fd5b50905060008190806001815401808255809150509060018203906000526020600020016000909192909190916101000a81548173ffffffffffffffffffffffffffffffffffffffff021916908373ffffffffffffffffffffffffffffffffffffffff160217905550508073ffffffffffffffffffffffffffffffffffffffff166108fc600a9081150290604051600060405180830381858888f193505050501580156101c8573d6000803e3d6000fd5b5050565b60e0806101d98339019056fe6080604052600a60005534801561001557600080fd5b5060bc806100246000396000f3fe60806040526004361060265760003560e01c80634e70b1dc14602857806367e0badb146050575b005b348015603357600080fd5b50603a6078565b6040518082815260200191505060405180910390f35b348015605b57600080fd5b506062607e565b6040518082815260200191505060405180910390f35b60005481565b6000805490509056fea265627a7a72315820555c3797a84139b1c841627467f17d08a6ac2869b02d91fe5646e63c8f35514b64736f6c63430005100032a265627a7a723158206460e237ef4d5014689251972dad4450d31a7351f5bcc0e58419165ae32c2a8d64736f6c63430005100032a265627a7a72315820b42c9d67255813c8c1a69b436b6a3297d38f0e293054ff11335567eba851a11d64736f6c63430005100032",
  "source": "pragma solidity ^0.5.2;\r\n\r\nimport \"./ChickenHouseTest.sol\";\r\n\r\n// Admin 역할\r\ncontract AdminTest {\r\n  ChickenHouseTest[] chickenHouses;\r\n\r\n  // ChickenHouse 등록\r\n  function registerChickenHouse() public {\r\n    ChickenHouseTest chickenHouse = new ChickenHouseTest();\r\n    chickenHouses.push(chickenHouse);\r\n  }\r\n\r\n  // 방만들기 함수\r\n  function createRoom(uint256 storeName) public payable {\r\n    // chickenHouse를 찾자 storeName 으로!\r\n    ChickenHouseTest chickenHouse = chickenHouses[storeName];\r\n    address(uint160(address(chickenHouse))).transfer(msg.value); // msg.value : 사용자가 전달한 이더\r\n    chickenHouse.createRoom();\r\n  }\r\n\r\n  function getBalanceOfRomm(uint256 storeName, uint256 roomNumber)\r\n    public\r\n    view\r\n    returns (uint256)\r\n  {\r\n    ChickenHouseTest chickenHouse = chickenHouses[storeName];\r\n    return chickenHouse.getBalance(roomNumber);\r\n  }\r\n}\r\n",
  "sourcePath": "C:\\Users\\admin\\sangil\\BanMan-Dapp\\banman-blockchain\\contracts\\AdminTest.sol",
  "compiler": {
    "name": "solc",
    "version": "0.5.16+commit.9c3226ce.Emscripten.clang"
  },
  "schemaVersion": "3.4.3",
  "updatedAt": "2021-09-12T14:35:54.353Z",
  "devdoc": {
    "methods": {}
  },
  "userdoc": {
    "methods": {}
  }
}